{
	"tips.sol": {
		"tips": {
			"abi": [
				{
					"inputs": [],
					"stateMutability": "nonpayable",
					"type": "constructor"
				},
				{
					"inputs": [],
					"name": "addtips",
					"outputs": [],
					"stateMutability": "payable",
					"type": "function"
				},
				{
					"inputs": [
						{
							"internalType": "address payable",
							"name": "walletAddress",
							"type": "address"
						},
						{
							"internalType": "string",
							"name": "name",
							"type": "string"
						}
					],
					"name": "addwaitress",
					"outputs": [],
					"stateMutability": "nonpayable",
					"type": "function"
				},
				{
					"inputs": [],
					"name": "viewWaitress",
					"outputs": [
						{
							"components": [
								{
									"internalType": "address payable",
									"name": "walletAddress",
									"type": "address"
								},
								{
									"internalType": "string",
									"name": "name",
									"type": "string"
								}
							],
							"internalType": "struct tips.Waitress[]",
							"name": "",
							"type": "tuple[]"
						}
					],
					"stateMutability": "view",
					"type": "function"
				},
				{
					"inputs": [],
					"name": "viewtips",
					"outputs": [
						{
							"internalType": "uint256",
							"name": "",
							"type": "uint256"
						}
					],
					"stateMutability": "view",
					"type": "function"
				}
			],
			"devdoc": {
				"kind": "dev",
				"methods": {},
				"version": 1
			},
			"evm": {
				"assembly": "    /* \"tips.sol\":60:1476  contract tips {... */\n  mstore(0x40, 0x80)\n    /* \"tips.sol\":137:189  constructor(){... */\n  callvalue\n  dup1\n  iszero\n  tag_1\n  jumpi\n  0x00\n  dup1\n  revert\ntag_1:\n  pop\n    /* \"tips.sol\":169:179  msg.sender */\n  caller\n    /* \"tips.sol\":161:166  owner */\n  0x00\n  dup1\n    /* \"tips.sol\":161:179  owner = msg.sender */\n  0x0100\n  exp\n  dup2\n  sload\n  dup2\n  0xffffffffffffffffffffffffffffffffffffffff\n  mul\n  not\n  and\n  swap1\n  dup4\n  0xffffffffffffffffffffffffffffffffffffffff\n  and\n  mul\n  or\n  swap1\n  sstore\n  pop\n    /* \"tips.sol\":60:1476  contract tips {... */\n  dataSize(sub_0)\n  dup1\n  dataOffset(sub_0)\n  0x00\n  codecopy\n  0x00\n  return\nstop\n\nsub_0: assembly {\n        /* \"tips.sol\":60:1476  contract tips {... */\n      mstore(0x40, 0x80)\n      jumpi(tag_1, lt(calldatasize, 0x04))\n      shr(0xe0, calldataload(0x00))\n      dup1\n      0x2a08deda\n      eq\n      tag_2\n      jumpi\n      dup1\n      0x6e7301fd\n      eq\n      tag_3\n      jumpi\n      dup1\n      0x8acce972\n      eq\n      tag_4\n      jumpi\n      dup1\n      0xe83a1b00\n      eq\n      tag_5\n      jumpi\n    tag_1:\n      0x00\n      dup1\n      revert\n        /* \"tips.sol\":393:485  function viewtips() public view returns(uint){... */\n    tag_2:\n      callvalue\n      dup1\n      iszero\n      tag_6\n      jumpi\n      0x00\n      dup1\n      revert\n    tag_6:\n      pop\n      tag_7\n      tag_8\n      jump\t// in\n    tag_7:\n      mload(0x40)\n      tag_9\n      swap2\n      swap1\n      tag_10\n      jump\t// in\n    tag_9:\n      mload(0x40)\n      dup1\n      swap2\n      sub\n      swap1\n      return\n        /* \"tips.sol\":272:316  function addtips() payable public {... */\n    tag_3:\n      tag_11\n      tag_12\n      jump\t// in\n    tag_11:\n      stop\n        /* \"tips.sol\":722:1164  function addwaitress(address payable walletAddress,string memory name) public {... */\n    tag_4:\n      callvalue\n      dup1\n      iszero\n      tag_13\n      jumpi\n      0x00\n      dup1\n      revert\n    tag_13:\n      pop\n      tag_14\n      0x04\n      dup1\n      calldatasize\n      sub\n      dup2\n      add\n      swap1\n      tag_15\n      swap2\n      swap1\n      tag_16\n      jump\t// in\n    tag_15:\n      tag_17\n      jump\t// in\n    tag_14:\n      stop\n        /* \"tips.sol\":1338:1435  function viewWaitress() public view returns(Waitress[] memory) {... */\n    tag_5:\n      callvalue\n      dup1\n      iszero\n      tag_18\n      jumpi\n      0x00\n      dup1\n      revert\n    tag_18:\n      pop\n      tag_19\n      tag_20\n      jump\t// in\n    tag_19:\n      mload(0x40)\n      tag_21\n      swap2\n      swap1\n      tag_22\n      jump\t// in\n    tag_21:\n      mload(0x40)\n      dup1\n      swap2\n      sub\n      swap1\n      return\n        /* \"tips.sol\":393:485  function viewtips() public view returns(uint){... */\n    tag_8:\n        /* \"tips.sol\":433:437  uint */\n      0x00\n        /* \"tips.sol\":456:477  address(this).balance */\n      selfbalance\n        /* \"tips.sol\":449:477  return address(this).balance */\n      swap1\n      pop\n        /* \"tips.sol\":393:485  function viewtips() public view returns(uint){... */\n      swap1\n      jump\t// out\n        /* \"tips.sol\":272:316  function addtips() payable public {... */\n    tag_12:\n      jump\t// out\n        /* \"tips.sol\":722:1164  function addwaitress(address payable walletAddress,string memory name) public {... */\n    tag_17:\n        /* \"tips.sol\":811:829  bool waitressExist */\n      0x00\n        /* \"tips.sol\":871:872  1 */\n      0x01\n        /* \"tips.sol\":853:861  waitress */\n      dup1\n        /* \"tips.sol\":853:868  waitress.length */\n      dup1\n      sload\n      swap1\n      pop\n        /* \"tips.sol\":853:872  waitress.length >=1 */\n      lt\n        /* \"tips.sol\":850:1049  if(waitress.length >=1){... */\n      tag_26\n      jumpi\n        /* \"tips.sol\":888:894  uint i */\n      0x00\n        /* \"tips.sol\":884:1042  for(uint i=0; i<waitress.length; i++){... */\n    tag_27:\n        /* \"tips.sol\":900:908  waitress */\n      0x01\n        /* \"tips.sol\":900:915  waitress.length */\n      dup1\n      sload\n      swap1\n      pop\n        /* \"tips.sol\":898:899  i */\n      dup2\n        /* \"tips.sol\":898:915  i<waitress.length */\n      lt\n        /* \"tips.sol\":884:1042  for(uint i=0; i<waitress.length; i++){... */\n      iszero\n      tag_28\n      jumpi\n        /* \"tips.sol\":967:980  walletAddress */\n      dup4\n        /* \"tips.sol\":938:980  waitress[i].walletAddress == walletAddress */\n      0xffffffffffffffffffffffffffffffffffffffff\n      and\n        /* \"tips.sol\":938:946  waitress */\n      0x01\n        /* \"tips.sol\":947:948  i */\n      dup3\n        /* \"tips.sol\":938:949  waitress[i] */\n      dup2\n      sload\n      dup2\n      lt\n      tag_30\n      jumpi\n      tag_31\n      tag_32\n      jump\t// in\n    tag_31:\n    tag_30:\n      swap1\n      0x00\n      mstore\n      keccak256(0x00, 0x20)\n      swap1\n      0x02\n      mul\n      add\n        /* \"tips.sol\":938:963  waitress[i].walletAddress */\n      0x00\n      add\n      0x00\n      swap1\n      sload\n      swap1\n      0x0100\n      exp\n      swap1\n      div\n      0xffffffffffffffffffffffffffffffffffffffff\n      and\n        /* \"tips.sol\":938:980  waitress[i].walletAddress == walletAddress */\n      0xffffffffffffffffffffffffffffffffffffffff\n      and\n      sub\n        /* \"tips.sol\":935:1031  if(waitress[i].walletAddress == walletAddress){... */\n      tag_34\n      jumpi\n        /* \"tips.sol\":1012:1016  true */\n      0x01\n        /* \"tips.sol\":996:1016  waitressExist = true */\n      swap2\n      pop\n        /* \"tips.sol\":935:1031  if(waitress[i].walletAddress == walletAddress){... */\n    tag_34:\n        /* \"tips.sol\":917:920  i++ */\n      dup1\n      dup1\n      0x01\n      add\n      swap2\n      pop\n      pop\n        /* \"tips.sol\":884:1042  for(uint i=0; i<waitress.length; i++){... */\n      jump(tag_27)\n    tag_28:\n      pop\n        /* \"tips.sol\":850:1049  if(waitress.length >=1){... */\n    tag_26:\n        /* \"tips.sol\":1075:1080  false */\n      0x00\n        /* \"tips.sol\":1060:1080  waitressExist==false */\n      iszero\n      iszero\n        /* \"tips.sol\":1060:1073  waitressExist */\n      dup2\n        /* \"tips.sol\":1060:1080  waitressExist==false */\n      iszero\n      iszero\n      sub\n        /* \"tips.sol\":1057:1157  if(waitressExist==false){... */\n      tag_35\n      jumpi\n        /* \"tips.sol\":1092:1100  waitress */\n      0x01\n        /* \"tips.sol\":1106:1134  Waitress(walletAddress,name) */\n      mload(0x40)\n      dup1\n      0x40\n      add\n      0x40\n      mstore\n      dup1\n        /* \"tips.sol\":1115:1128  walletAddress */\n      dup6\n        /* \"tips.sol\":1106:1134  Waitress(walletAddress,name) */\n      0xffffffffffffffffffffffffffffffffffffffff\n      and\n      dup2\n      mstore\n      0x20\n      add\n        /* \"tips.sol\":1129:1133  name */\n      dup5\n        /* \"tips.sol\":1106:1134  Waitress(walletAddress,name) */\n      dup2\n      mstore\n      pop\n        /* \"tips.sol\":1092:1135  waitress.push(Waitress(walletAddress,name)) */\n      swap1\n      dup1\n      0x01\n      dup2\n      sload\n      add\n      dup1\n      dup3\n      sstore\n      dup1\n      swap2\n      pop\n      pop\n      0x01\n      swap1\n      sub\n      swap1\n      0x00\n      mstore\n      keccak256(0x00, 0x20)\n      swap1\n      0x02\n      mul\n      add\n      0x00\n      swap1\n      swap2\n      swap1\n      swap2\n      swap1\n      swap2\n      pop\n      0x00\n      dup3\n      add\n      mload\n      dup2\n      0x00\n      add\n      exp(0x0100, 0x00)\n      dup2\n      sload\n      dup2\n      0xffffffffffffffffffffffffffffffffffffffff\n      mul\n      not\n      and\n      swap1\n      dup4\n      0xffffffffffffffffffffffffffffffffffffffff\n      and\n      mul\n      or\n      swap1\n      sstore\n      pop\n      0x20\n      dup3\n      add\n      mload\n      dup2\n      0x01\n      add\n      swap1\n      dup2\n      tag_37\n      swap2\n      swap1\n      tag_38\n      jump\t// in\n    tag_37:\n      pop\n      pop\n      pop\n        /* \"tips.sol\":1057:1157  if(waitressExist==false){... */\n    tag_35:\n        /* \"tips.sol\":800:1164  {... */\n      pop\n        /* \"tips.sol\":722:1164  function addwaitress(address payable walletAddress,string memory name) public {... */\n      pop\n      pop\n      jump\t// out\n        /* \"tips.sol\":1338:1435  function viewWaitress() public view returns(Waitress[] memory) {... */\n    tag_20:\n        /* \"tips.sol\":1382:1399  Waitress[] memory */\n      0x60\n        /* \"tips.sol\":1419:1427  waitress */\n      0x01\n        /* \"tips.sol\":1412:1427  return waitress */\n      dup1\n      sload\n      dup1\n      0x20\n      mul\n      0x20\n      add\n      mload(0x40)\n      swap1\n      dup2\n      add\n      0x40\n      mstore\n      dup1\n      swap3\n      swap2\n      swap1\n      dup2\n      dup2\n      mstore\n      0x20\n      add\n      0x00\n      swap1\n    tag_40:\n      dup3\n      dup3\n      lt\n      iszero\n      tag_41\n      jumpi\n      dup4\n      dup3\n      swap1\n      0x00\n      mstore\n      keccak256(0x00, 0x20)\n      swap1\n      0x02\n      mul\n      add\n      mload(0x40)\n      dup1\n      0x40\n      add\n      0x40\n      mstore\n      swap1\n      dup2\n      0x00\n      dup3\n      add\n      0x00\n      swap1\n      sload\n      swap1\n      0x0100\n      exp\n      swap1\n      div\n      0xffffffffffffffffffffffffffffffffffffffff\n      and\n      0xffffffffffffffffffffffffffffffffffffffff\n      and\n      0xffffffffffffffffffffffffffffffffffffffff\n      and\n      dup2\n      mstore\n      0x20\n      add\n      0x01\n      dup3\n      add\n      dup1\n      sload\n      tag_43\n      swap1\n      tag_44\n      jump\t// in\n    tag_43:\n      dup1\n      0x1f\n      add\n      0x20\n      dup1\n      swap2\n      div\n      mul\n      0x20\n      add\n      mload(0x40)\n      swap1\n      dup2\n      add\n      0x40\n      mstore\n      dup1\n      swap3\n      swap2\n      swap1\n      dup2\n      dup2\n      mstore\n      0x20\n      add\n      dup3\n      dup1\n      sload\n      tag_45\n      swap1\n      tag_44\n      jump\t// in\n    tag_45:\n      dup1\n      iszero\n      tag_46\n      jumpi\n      dup1\n      0x1f\n      lt\n      tag_47\n      jumpi\n      0x0100\n      dup1\n      dup4\n      sload\n      div\n      mul\n      dup4\n      mstore\n      swap2\n      0x20\n      add\n      swap2\n      jump(tag_46)\n    tag_47:\n      dup3\n      add\n      swap2\n      swap1\n      0x00\n      mstore\n      keccak256(0x00, 0x20)\n      swap1\n    tag_48:\n      dup2\n      sload\n      dup2\n      mstore\n      swap1\n      0x01\n      add\n      swap1\n      0x20\n      add\n      dup1\n      dup4\n      gt\n      tag_48\n      jumpi\n      dup3\n      swap1\n      sub\n      0x1f\n      and\n      dup3\n      add\n      swap2\n    tag_46:\n      pop\n      pop\n      pop\n      pop\n      pop\n      dup2\n      mstore\n      pop\n      pop\n      dup2\n      mstore\n      0x20\n      add\n      swap1\n      0x01\n      add\n      swap1\n      jump(tag_40)\n    tag_41:\n      pop\n      pop\n      pop\n      pop\n      swap1\n      pop\n        /* \"tips.sol\":1338:1435  function viewWaitress() public view returns(Waitress[] memory) {... */\n      swap1\n      jump\t// out\n        /* \"#utility.yul\":7:84   */\n    tag_49:\n        /* \"#utility.yul\":44:51   */\n      0x00\n        /* \"#utility.yul\":73:78   */\n      dup2\n        /* \"#utility.yul\":62:78   */\n      swap1\n      pop\n        /* \"#utility.yul\":7:84   */\n      swap2\n      swap1\n      pop\n      jump\t// out\n        /* \"#utility.yul\":90:208   */\n    tag_50:\n        /* \"#utility.yul\":177:201   */\n      tag_99\n        /* \"#utility.yul\":195:200   */\n      dup2\n        /* \"#utility.yul\":177:201   */\n      tag_49\n      jump\t// in\n    tag_99:\n        /* \"#utility.yul\":172:175   */\n      dup3\n        /* \"#utility.yul\":165:202   */\n      mstore\n        /* \"#utility.yul\":90:208   */\n      pop\n      pop\n      jump\t// out\n        /* \"#utility.yul\":214:436   */\n    tag_10:\n        /* \"#utility.yul\":307:311   */\n      0x00\n        /* \"#utility.yul\":345:347   */\n      0x20\n        /* \"#utility.yul\":334:343   */\n      dup3\n        /* \"#utility.yul\":330:348   */\n      add\n        /* \"#utility.yul\":322:348   */\n      swap1\n      pop\n        /* \"#utility.yul\":358:429   */\n      tag_101\n        /* \"#utility.yul\":426:427   */\n      0x00\n        /* \"#utility.yul\":415:424   */\n      dup4\n        /* \"#utility.yul\":411:428   */\n      add\n        /* \"#utility.yul\":402:408   */\n      dup5\n        /* \"#utility.yul\":358:429   */\n      tag_50\n      jump\t// in\n    tag_101:\n        /* \"#utility.yul\":214:436   */\n      swap3\n      swap2\n      pop\n      pop\n      jump\t// out\n        /* \"#utility.yul\":442:517   */\n    tag_51:\n        /* \"#utility.yul\":475:481   */\n      0x00\n        /* \"#utility.yul\":508:510   */\n      0x40\n        /* \"#utility.yul\":502:511   */\n      mload\n        /* \"#utility.yul\":492:511   */\n      swap1\n      pop\n        /* \"#utility.yul\":442:517   */\n      swap1\n      jump\t// out\n        /* \"#utility.yul\":523:640   */\n    tag_52:\n        /* \"#utility.yul\":632:633   */\n      0x00\n        /* \"#utility.yul\":629:630   */\n      dup1\n        /* \"#utility.yul\":622:634   */\n      revert\n        /* \"#utility.yul\":646:763   */\n    tag_53:\n        /* \"#utility.yul\":755:756   */\n      0x00\n        /* \"#utility.yul\":752:753   */\n      dup1\n        /* \"#utility.yul\":745:757   */\n      revert\n        /* \"#utility.yul\":769:895   */\n    tag_54:\n        /* \"#utility.yul\":806:813   */\n      0x00\n        /* \"#utility.yul\":846:888   */\n      0xffffffffffffffffffffffffffffffffffffffff\n        /* \"#utility.yul\":839:844   */\n      dup3\n        /* \"#utility.yul\":835:889   */\n      and\n        /* \"#utility.yul\":824:889   */\n      swap1\n      pop\n        /* \"#utility.yul\":769:895   */\n      swap2\n      swap1\n      pop\n      jump\t// out\n        /* \"#utility.yul\":901:1005   */\n    tag_55:\n        /* \"#utility.yul\":946:953   */\n      0x00\n        /* \"#utility.yul\":975:999   */\n      tag_107\n        /* \"#utility.yul\":993:998   */\n      dup3\n        /* \"#utility.yul\":975:999   */\n      tag_54\n      jump\t// in\n    tag_107:\n        /* \"#utility.yul\":964:999   */\n      swap1\n      pop\n        /* \"#utility.yul\":901:1005   */\n      swap2\n      swap1\n      pop\n      jump\t// out\n        /* \"#utility.yul\":1011:1149   */\n    tag_56:\n        /* \"#utility.yul\":1092:1124   */\n      tag_109\n        /* \"#utility.yul\":1118:1123   */\n      dup2\n        /* \"#utility.yul\":1092:1124   */\n      tag_55\n      jump\t// in\n    tag_109:\n        /* \"#utility.yul\":1085:1090   */\n      dup2\n        /* \"#utility.yul\":1082:1125   */\n      eq\n        /* \"#utility.yul\":1072:1143   */\n      tag_110\n      jumpi\n        /* \"#utility.yul\":1139:1140   */\n      0x00\n        /* \"#utility.yul\":1136:1137   */\n      dup1\n        /* \"#utility.yul\":1129:1141   */\n      revert\n        /* \"#utility.yul\":1072:1143   */\n    tag_110:\n        /* \"#utility.yul\":1011:1149   */\n      pop\n      jump\t// out\n        /* \"#utility.yul\":1155:1310   */\n    tag_57:\n        /* \"#utility.yul\":1209:1214   */\n      0x00\n        /* \"#utility.yul\":1247:1253   */\n      dup2\n        /* \"#utility.yul\":1234:1254   */\n      calldataload\n        /* \"#utility.yul\":1225:1254   */\n      swap1\n      pop\n        /* \"#utility.yul\":1263:1304   */\n      tag_112\n        /* \"#utility.yul\":1298:1303   */\n      dup2\n        /* \"#utility.yul\":1263:1304   */\n      tag_56\n      jump\t// in\n    tag_112:\n        /* \"#utility.yul\":1155:1310   */\n      swap3\n      swap2\n      pop\n      pop\n      jump\t// out\n        /* \"#utility.yul\":1316:1433   */\n    tag_58:\n        /* \"#utility.yul\":1425:1426   */\n      0x00\n        /* \"#utility.yul\":1422:1423   */\n      dup1\n        /* \"#utility.yul\":1415:1427   */\n      revert\n        /* \"#utility.yul\":1439:1556   */\n    tag_59:\n        /* \"#utility.yul\":1548:1549   */\n      0x00\n        /* \"#utility.yul\":1545:1546   */\n      dup1\n        /* \"#utility.yul\":1538:1550   */\n      revert\n        /* \"#utility.yul\":1562:1664   */\n    tag_60:\n        /* \"#utility.yul\":1603:1609   */\n      0x00\n        /* \"#utility.yul\":1654:1656   */\n      0x1f\n        /* \"#utility.yul\":1650:1657   */\n      not\n        /* \"#utility.yul\":1645:1647   */\n      0x1f\n        /* \"#utility.yul\":1638:1643   */\n      dup4\n        /* \"#utility.yul\":1634:1648   */\n      add\n        /* \"#utility.yul\":1630:1658   */\n      and\n        /* \"#utility.yul\":1620:1658   */\n      swap1\n      pop\n        /* \"#utility.yul\":1562:1664   */\n      swap2\n      swap1\n      pop\n      jump\t// out\n        /* \"#utility.yul\":1670:1850   */\n    tag_61:\n        /* \"#utility.yul\":1718:1795   */\n      0x4e487b7100000000000000000000000000000000000000000000000000000000\n        /* \"#utility.yul\":1715:1716   */\n      0x00\n        /* \"#utility.yul\":1708:1796   */\n      mstore\n        /* \"#utility.yul\":1815:1819   */\n      0x41\n        /* \"#utility.yul\":1812:1813   */\n      0x04\n        /* \"#utility.yul\":1805:1820   */\n      mstore\n        /* \"#utility.yul\":1839:1843   */\n      0x24\n        /* \"#utility.yul\":1836:1837   */\n      0x00\n        /* \"#utility.yul\":1829:1844   */\n      revert\n        /* \"#utility.yul\":1856:2137   */\n    tag_62:\n        /* \"#utility.yul\":1939:1966   */\n      tag_118\n        /* \"#utility.yul\":1961:1965   */\n      dup3\n        /* \"#utility.yul\":1939:1966   */\n      tag_60\n      jump\t// in\n    tag_118:\n        /* \"#utility.yul\":1931:1937   */\n      dup2\n        /* \"#utility.yul\":1927:1967   */\n      add\n        /* \"#utility.yul\":2069:2075   */\n      dup2\n        /* \"#utility.yul\":2057:2067   */\n      dup2\n        /* \"#utility.yul\":2054:2076   */\n      lt\n        /* \"#utility.yul\":2033:2051   */\n      0xffffffffffffffff\n        /* \"#utility.yul\":2021:2031   */\n      dup3\n        /* \"#utility.yul\":2018:2052   */\n      gt\n        /* \"#utility.yul\":2015:2077   */\n      or\n        /* \"#utility.yul\":2012:2100   */\n      iszero\n      tag_119\n      jumpi\n        /* \"#utility.yul\":2080:2098   */\n      tag_120\n      tag_61\n      jump\t// in\n    tag_120:\n        /* \"#utility.yul\":2012:2100   */\n    tag_119:\n        /* \"#utility.yul\":2120:2130   */\n      dup1\n        /* \"#utility.yul\":2116:2118   */\n      0x40\n        /* \"#utility.yul\":2109:2131   */\n      mstore\n        /* \"#utility.yul\":1899:2137   */\n      pop\n        /* \"#utility.yul\":1856:2137   */\n      pop\n      pop\n      jump\t// out\n        /* \"#utility.yul\":2143:2272   */\n    tag_63:\n        /* \"#utility.yul\":2177:2183   */\n      0x00\n        /* \"#utility.yul\":2204:2224   */\n      tag_122\n      tag_51\n      jump\t// in\n    tag_122:\n        /* \"#utility.yul\":2194:2224   */\n      swap1\n      pop\n        /* \"#utility.yul\":2233:2266   */\n      tag_123\n        /* \"#utility.yul\":2261:2265   */\n      dup3\n        /* \"#utility.yul\":2253:2259   */\n      dup3\n        /* \"#utility.yul\":2233:2266   */\n      tag_62\n      jump\t// in\n    tag_123:\n        /* \"#utility.yul\":2143:2272   */\n      swap2\n      swap1\n      pop\n      jump\t// out\n        /* \"#utility.yul\":2278:2586   */\n    tag_64:\n        /* \"#utility.yul\":2340:2344   */\n      0x00\n        /* \"#utility.yul\":2430:2448   */\n      0xffffffffffffffff\n        /* \"#utility.yul\":2422:2428   */\n      dup3\n        /* \"#utility.yul\":2419:2449   */\n      gt\n        /* \"#utility.yul\":2416:2472   */\n      iszero\n      tag_125\n      jumpi\n        /* \"#utility.yul\":2452:2470   */\n      tag_126\n      tag_61\n      jump\t// in\n    tag_126:\n        /* \"#utility.yul\":2416:2472   */\n    tag_125:\n        /* \"#utility.yul\":2490:2519   */\n      tag_127\n        /* \"#utility.yul\":2512:2518   */\n      dup3\n        /* \"#utility.yul\":2490:2519   */\n      tag_60\n      jump\t// in\n    tag_127:\n        /* \"#utility.yul\":2482:2519   */\n      swap1\n      pop\n        /* \"#utility.yul\":2574:2578   */\n      0x20\n        /* \"#utility.yul\":2568:2572   */\n      dup2\n        /* \"#utility.yul\":2564:2579   */\n      add\n        /* \"#utility.yul\":2556:2579   */\n      swap1\n      pop\n        /* \"#utility.yul\":2278:2586   */\n      swap2\n      swap1\n      pop\n      jump\t// out\n        /* \"#utility.yul\":2592:2740   */\n    tag_65:\n        /* \"#utility.yul\":2690:2696   */\n      dup3\n        /* \"#utility.yul\":2685:2688   */\n      dup2\n        /* \"#utility.yul\":2680:2683   */\n      dup4\n        /* \"#utility.yul\":2667:2697   */\n      calldatacopy\n        /* \"#utility.yul\":2731:2732   */\n      0x00\n        /* \"#utility.yul\":2722:2728   */\n      dup4\n        /* \"#utility.yul\":2717:2720   */\n      dup4\n        /* \"#utility.yul\":2713:2729   */\n      add\n        /* \"#utility.yul\":2706:2733   */\n      mstore\n        /* \"#utility.yul\":2592:2740   */\n      pop\n      pop\n      pop\n      jump\t// out\n        /* \"#utility.yul\":2746:3171   */\n    tag_66:\n        /* \"#utility.yul\":2824:2829   */\n      0x00\n        /* \"#utility.yul\":2849:2915   */\n      tag_130\n        /* \"#utility.yul\":2865:2914   */\n      tag_131\n        /* \"#utility.yul\":2907:2913   */\n      dup5\n        /* \"#utility.yul\":2865:2914   */\n      tag_64\n      jump\t// in\n    tag_131:\n        /* \"#utility.yul\":2849:2915   */\n      tag_63\n      jump\t// in\n    tag_130:\n        /* \"#utility.yul\":2840:2915   */\n      swap1\n      pop\n        /* \"#utility.yul\":2938:2944   */\n      dup3\n        /* \"#utility.yul\":2931:2936   */\n      dup2\n        /* \"#utility.yul\":2924:2945   */\n      mstore\n        /* \"#utility.yul\":2976:2980   */\n      0x20\n        /* \"#utility.yul\":2969:2974   */\n      dup2\n        /* \"#utility.yul\":2965:2981   */\n      add\n        /* \"#utility.yul\":3014:3017   */\n      dup5\n        /* \"#utility.yul\":3005:3011   */\n      dup5\n        /* \"#utility.yul\":3000:3003   */\n      dup5\n        /* \"#utility.yul\":2996:3012   */\n      add\n        /* \"#utility.yul\":2993:3018   */\n      gt\n        /* \"#utility.yul\":2990:3102   */\n      iszero\n      tag_132\n      jumpi\n        /* \"#utility.yul\":3021:3100   */\n      tag_133\n      tag_59\n      jump\t// in\n    tag_133:\n        /* \"#utility.yul\":2990:3102   */\n    tag_132:\n        /* \"#utility.yul\":3111:3165   */\n      tag_134\n        /* \"#utility.yul\":3158:3164   */\n      dup5\n        /* \"#utility.yul\":3153:3156   */\n      dup3\n        /* \"#utility.yul\":3148:3151   */\n      dup6\n        /* \"#utility.yul\":3111:3165   */\n      tag_65\n      jump\t// in\n    tag_134:\n        /* \"#utility.yul\":2830:3171   */\n      pop\n        /* \"#utility.yul\":2746:3171   */\n      swap4\n      swap3\n      pop\n      pop\n      pop\n      jump\t// out\n        /* \"#utility.yul\":3191:3531   */\n    tag_67:\n        /* \"#utility.yul\":3247:3252   */\n      0x00\n        /* \"#utility.yul\":3296:3299   */\n      dup3\n        /* \"#utility.yul\":3289:3293   */\n      0x1f\n        /* \"#utility.yul\":3281:3287   */\n      dup4\n        /* \"#utility.yul\":3277:3294   */\n      add\n        /* \"#utility.yul\":3273:3300   */\n      slt\n        /* \"#utility.yul\":3263:3385   */\n      tag_136\n      jumpi\n        /* \"#utility.yul\":3304:3383   */\n      tag_137\n      tag_58\n      jump\t// in\n    tag_137:\n        /* \"#utility.yul\":3263:3385   */\n    tag_136:\n        /* \"#utility.yul\":3421:3427   */\n      dup2\n        /* \"#utility.yul\":3408:3428   */\n      calldataload\n        /* \"#utility.yul\":3446:3525   */\n      tag_138\n        /* \"#utility.yul\":3521:3524   */\n      dup5\n        /* \"#utility.yul\":3513:3519   */\n      dup3\n        /* \"#utility.yul\":3506:3510   */\n      0x20\n        /* \"#utility.yul\":3498:3504   */\n      dup7\n        /* \"#utility.yul\":3494:3511   */\n      add\n        /* \"#utility.yul\":3446:3525   */\n      tag_66\n      jump\t// in\n    tag_138:\n        /* \"#utility.yul\":3437:3525   */\n      swap2\n      pop\n        /* \"#utility.yul\":3253:3531   */\n      pop\n        /* \"#utility.yul\":3191:3531   */\n      swap3\n      swap2\n      pop\n      pop\n      jump\t// out\n        /* \"#utility.yul\":3537:4207   */\n    tag_16:\n        /* \"#utility.yul\":3623:3629   */\n      0x00\n        /* \"#utility.yul\":3631:3637   */\n      dup1\n        /* \"#utility.yul\":3680:3682   */\n      0x40\n        /* \"#utility.yul\":3668:3677   */\n      dup4\n        /* \"#utility.yul\":3659:3666   */\n      dup6\n        /* \"#utility.yul\":3655:3678   */\n      sub\n        /* \"#utility.yul\":3651:3683   */\n      slt\n        /* \"#utility.yul\":3648:3767   */\n      iszero\n      tag_140\n      jumpi\n        /* \"#utility.yul\":3686:3765   */\n      tag_141\n      tag_52\n      jump\t// in\n    tag_141:\n        /* \"#utility.yul\":3648:3767   */\n    tag_140:\n        /* \"#utility.yul\":3806:3807   */\n      0x00\n        /* \"#utility.yul\":3831:3892   */\n      tag_142\n        /* \"#utility.yul\":3884:3891   */\n      dup6\n        /* \"#utility.yul\":3875:3881   */\n      dup3\n        /* \"#utility.yul\":3864:3873   */\n      dup7\n        /* \"#utility.yul\":3860:3882   */\n      add\n        /* \"#utility.yul\":3831:3892   */\n      tag_57\n      jump\t// in\n    tag_142:\n        /* \"#utility.yul\":3821:3892   */\n      swap3\n      pop\n        /* \"#utility.yul\":3777:3902   */\n      pop\n        /* \"#utility.yul\":3969:3971   */\n      0x20\n        /* \"#utility.yul\":3958:3967   */\n      dup4\n        /* \"#utility.yul\":3954:3972   */\n      add\n        /* \"#utility.yul\":3941:3973   */\n      calldataload\n        /* \"#utility.yul\":4000:4018   */\n      0xffffffffffffffff\n        /* \"#utility.yul\":3992:3998   */\n      dup2\n        /* \"#utility.yul\":3989:4019   */\n      gt\n        /* \"#utility.yul\":3986:4103   */\n      iszero\n      tag_143\n      jumpi\n        /* \"#utility.yul\":4022:4101   */\n      tag_144\n      tag_53\n      jump\t// in\n    tag_144:\n        /* \"#utility.yul\":3986:4103   */\n    tag_143:\n        /* \"#utility.yul\":4127:4190   */\n      tag_145\n        /* \"#utility.yul\":4182:4189   */\n      dup6\n        /* \"#utility.yul\":4173:4179   */\n      dup3\n        /* \"#utility.yul\":4162:4171   */\n      dup7\n        /* \"#utility.yul\":4158:4180   */\n      add\n        /* \"#utility.yul\":4127:4190   */\n      tag_67\n      jump\t// in\n    tag_145:\n        /* \"#utility.yul\":4117:4190   */\n      swap2\n      pop\n        /* \"#utility.yul\":3912:4200   */\n      pop\n        /* \"#utility.yul\":3537:4207   */\n      swap3\n      pop\n      swap3\n      swap1\n      pop\n      jump\t// out\n        /* \"#utility.yul\":4213:4351   */\n    tag_68:\n        /* \"#utility.yul\":4304:4310   */\n      0x00\n        /* \"#utility.yul\":4338:4343   */\n      dup2\n        /* \"#utility.yul\":4332:4344   */\n      mload\n        /* \"#utility.yul\":4322:4344   */\n      swap1\n      pop\n        /* \"#utility.yul\":4213:4351   */\n      swap2\n      swap1\n      pop\n      jump\t// out\n        /* \"#utility.yul\":4357:4565   */\n    tag_69:\n        /* \"#utility.yul\":4480:4491   */\n      0x00\n        /* \"#utility.yul\":4514:4520   */\n      dup3\n        /* \"#utility.yul\":4509:4512   */\n      dup3\n        /* \"#utility.yul\":4502:4521   */\n      mstore\n        /* \"#utility.yul\":4554:4558   */\n      0x20\n        /* \"#utility.yul\":4549:4552   */\n      dup3\n        /* \"#utility.yul\":4545:4559   */\n      add\n        /* \"#utility.yul\":4530:4559   */\n      swap1\n      pop\n        /* \"#utility.yul\":4357:4565   */\n      swap3\n      swap2\n      pop\n      pop\n      jump\t// out\n        /* \"#utility.yul\":4571:4727   */\n    tag_70:\n        /* \"#utility.yul\":4662:4666   */\n      0x00\n        /* \"#utility.yul\":4685:4688   */\n      dup2\n        /* \"#utility.yul\":4677:4688   */\n      swap1\n      pop\n        /* \"#utility.yul\":4715:4719   */\n      0x20\n        /* \"#utility.yul\":4710:4713   */\n      dup3\n        /* \"#utility.yul\":4706:4720   */\n      add\n        /* \"#utility.yul\":4698:4720   */\n      swap1\n      pop\n        /* \"#utility.yul\":4571:4727   */\n      swap2\n      swap1\n      pop\n      jump\t// out\n        /* \"#utility.yul\":4733:4865   */\n    tag_71:\n        /* \"#utility.yul\":4826:4858   */\n      tag_150\n        /* \"#utility.yul\":4852:4857   */\n      dup2\n        /* \"#utility.yul\":4826:4858   */\n      tag_55\n      jump\t// in\n    tag_150:\n        /* \"#utility.yul\":4821:4824   */\n      dup3\n        /* \"#utility.yul\":4814:4859   */\n      mstore\n        /* \"#utility.yul\":4733:4865   */\n      pop\n      pop\n      jump\t// out\n        /* \"#utility.yul\":4871:4970   */\n    tag_72:\n        /* \"#utility.yul\":4923:4929   */\n      0x00\n        /* \"#utility.yul\":4957:4962   */\n      dup2\n        /* \"#utility.yul\":4951:4963   */\n      mload\n        /* \"#utility.yul\":4941:4963   */\n      swap1\n      pop\n        /* \"#utility.yul\":4871:4970   */\n      swap2\n      swap1\n      pop\n      jump\t// out\n        /* \"#utility.yul\":4976:5135   */\n    tag_73:\n        /* \"#utility.yul\":5050:5061   */\n      0x00\n        /* \"#utility.yul\":5084:5090   */\n      dup3\n        /* \"#utility.yul\":5079:5082   */\n      dup3\n        /* \"#utility.yul\":5072:5091   */\n      mstore\n        /* \"#utility.yul\":5124:5128   */\n      0x20\n        /* \"#utility.yul\":5119:5122   */\n      dup3\n        /* \"#utility.yul\":5115:5129   */\n      add\n        /* \"#utility.yul\":5100:5129   */\n      swap1\n      pop\n        /* \"#utility.yul\":4976:5135   */\n      swap3\n      swap2\n      pop\n      pop\n      jump\t// out\n        /* \"#utility.yul\":5141:5280   */\n    tag_74:\n        /* \"#utility.yul\":5230:5236   */\n      dup3\n        /* \"#utility.yul\":5225:5228   */\n      dup2\n        /* \"#utility.yul\":5220:5223   */\n      dup4\n        /* \"#utility.yul\":5214:5237   */\n      mcopy\n        /* \"#utility.yul\":5271:5272   */\n      0x00\n        /* \"#utility.yul\":5262:5268   */\n      dup4\n        /* \"#utility.yul\":5257:5260   */\n      dup4\n        /* \"#utility.yul\":5253:5269   */\n      add\n        /* \"#utility.yul\":5246:5273   */\n      mstore\n        /* \"#utility.yul\":5141:5280   */\n      pop\n      pop\n      pop\n      jump\t// out\n        /* \"#utility.yul\":5286:5643   */\n    tag_75:\n        /* \"#utility.yul\":5364:5367   */\n      0x00\n        /* \"#utility.yul\":5392:5431   */\n      tag_155\n        /* \"#utility.yul\":5425:5430   */\n      dup3\n        /* \"#utility.yul\":5392:5431   */\n      tag_72\n      jump\t// in\n    tag_155:\n        /* \"#utility.yul\":5447:5508   */\n      tag_156\n        /* \"#utility.yul\":5501:5507   */\n      dup2\n        /* \"#utility.yul\":5496:5499   */\n      dup6\n        /* \"#utility.yul\":5447:5508   */\n      tag_73\n      jump\t// in\n    tag_156:\n        /* \"#utility.yul\":5440:5508   */\n      swap4\n      pop\n        /* \"#utility.yul\":5517:5582   */\n      tag_157\n        /* \"#utility.yul\":5575:5581   */\n      dup2\n        /* \"#utility.yul\":5570:5573   */\n      dup6\n        /* \"#utility.yul\":5563:5567   */\n      0x20\n        /* \"#utility.yul\":5556:5561   */\n      dup7\n        /* \"#utility.yul\":5552:5568   */\n      add\n        /* \"#utility.yul\":5517:5582   */\n      tag_74\n      jump\t// in\n    tag_157:\n        /* \"#utility.yul\":5607:5636   */\n      tag_158\n        /* \"#utility.yul\":5629:5635   */\n      dup2\n        /* \"#utility.yul\":5607:5636   */\n      tag_60\n      jump\t// in\n    tag_158:\n        /* \"#utility.yul\":5602:5605   */\n      dup5\n        /* \"#utility.yul\":5598:5637   */\n      add\n        /* \"#utility.yul\":5591:5637   */\n      swap2\n      pop\n        /* \"#utility.yul\":5368:5643   */\n      pop\n        /* \"#utility.yul\":5286:5643   */\n      swap3\n      swap2\n      pop\n      pop\n      jump\t// out\n        /* \"#utility.yul\":5701:6320   */\n    tag_76:\n        /* \"#utility.yul\":5808:5811   */\n      0x00\n        /* \"#utility.yul\":5844:5848   */\n      0x40\n        /* \"#utility.yul\":5839:5842   */\n      dup4\n        /* \"#utility.yul\":5835:5849   */\n      add\n        /* \"#utility.yul\":5940:5944   */\n      0x00\n        /* \"#utility.yul\":5933:5938   */\n      dup4\n        /* \"#utility.yul\":5929:5945   */\n      add\n        /* \"#utility.yul\":5923:5946   */\n      mload\n        /* \"#utility.yul\":5959:6038   */\n      tag_160\n        /* \"#utility.yul\":6032:6036   */\n      0x00\n        /* \"#utility.yul\":6027:6030   */\n      dup7\n        /* \"#utility.yul\":6023:6037   */\n      add\n        /* \"#utility.yul\":6009:6021   */\n      dup3\n        /* \"#utility.yul\":5959:6038   */\n      tag_71\n      jump\t// in\n    tag_160:\n        /* \"#utility.yul\":5859:6048   */\n      pop\n        /* \"#utility.yul\":6130:6134   */\n      0x20\n        /* \"#utility.yul\":6123:6128   */\n      dup4\n        /* \"#utility.yul\":6119:6135   */\n      add\n        /* \"#utility.yul\":6113:6136   */\n      mload\n        /* \"#utility.yul\":6183:6186   */\n      dup5\n        /* \"#utility.yul\":6177:6181   */\n      dup3\n        /* \"#utility.yul\":6173:6187   */\n      sub\n        /* \"#utility.yul\":6166:6170   */\n      0x20\n        /* \"#utility.yul\":6161:6164   */\n      dup7\n        /* \"#utility.yul\":6157:6171   */\n      add\n        /* \"#utility.yul\":6150:6188   */\n      mstore\n        /* \"#utility.yul\":6209:6282   */\n      tag_161\n        /* \"#utility.yul\":6277:6281   */\n      dup3\n        /* \"#utility.yul\":6263:6275   */\n      dup3\n        /* \"#utility.yul\":6209:6282   */\n      tag_75\n      jump\t// in\n    tag_161:\n        /* \"#utility.yul\":6201:6282   */\n      swap2\n      pop\n        /* \"#utility.yul\":6058:6293   */\n      pop\n        /* \"#utility.yul\":6310:6314   */\n      dup1\n        /* \"#utility.yul\":6303:6314   */\n      swap2\n      pop\n        /* \"#utility.yul\":5813:6320   */\n      pop\n        /* \"#utility.yul\":5701:6320   */\n      swap3\n      swap2\n      pop\n      pop\n      jump\t// out\n        /* \"#utility.yul\":6326:6578   */\n    tag_77:\n        /* \"#utility.yul\":6443:6453   */\n      0x00\n        /* \"#utility.yul\":6478:6572   */\n      tag_163\n        /* \"#utility.yul\":6568:6571   */\n      dup4\n        /* \"#utility.yul\":6560:6566   */\n      dup4\n        /* \"#utility.yul\":6478:6572   */\n      tag_76\n      jump\t// in\n    tag_163:\n        /* \"#utility.yul\":6464:6572   */\n      swap1\n      pop\n        /* \"#utility.yul\":6326:6578   */\n      swap3\n      swap2\n      pop\n      pop\n      jump\t// out\n        /* \"#utility.yul\":6584:6721   */\n    tag_78:\n        /* \"#utility.yul\":6678:6682   */\n      0x00\n        /* \"#utility.yul\":6710:6714   */\n      0x20\n        /* \"#utility.yul\":6705:6708   */\n      dup3\n        /* \"#utility.yul\":6701:6715   */\n      add\n        /* \"#utility.yul\":6693:6715   */\n      swap1\n      pop\n        /* \"#utility.yul\":6584:6721   */\n      swap2\n      swap1\n      pop\n      jump\t// out\n        /* \"#utility.yul\":6783:7886   */\n    tag_79:\n        /* \"#utility.yul\":6950:6953   */\n      0x00\n        /* \"#utility.yul\":6979:7057   */\n      tag_166\n        /* \"#utility.yul\":7051:7056   */\n      dup3\n        /* \"#utility.yul\":6979:7057   */\n      tag_68\n      jump\t// in\n    tag_166:\n        /* \"#utility.yul\":7073:7183   */\n      tag_167\n        /* \"#utility.yul\":7176:7182   */\n      dup2\n        /* \"#utility.yul\":7171:7174   */\n      dup6\n        /* \"#utility.yul\":7073:7183   */\n      tag_69\n      jump\t// in\n    tag_167:\n        /* \"#utility.yul\":7066:7183   */\n      swap4\n      pop\n        /* \"#utility.yul\":7209:7212   */\n      dup4\n        /* \"#utility.yul\":7254:7258   */\n      0x20\n        /* \"#utility.yul\":7246:7252   */\n      dup3\n        /* \"#utility.yul\":7242:7259   */\n      mul\n        /* \"#utility.yul\":7237:7240   */\n      dup6\n        /* \"#utility.yul\":7233:7260   */\n      add\n        /* \"#utility.yul\":7284:7364   */\n      tag_168\n        /* \"#utility.yul\":7358:7363   */\n      dup6\n        /* \"#utility.yul\":7284:7364   */\n      tag_70\n      jump\t// in\n    tag_168:\n        /* \"#utility.yul\":7387:7394   */\n      dup1\n        /* \"#utility.yul\":7418:7419   */\n      0x00\n        /* \"#utility.yul\":7403:7841   */\n    tag_169:\n        /* \"#utility.yul\":7428:7434   */\n      dup6\n        /* \"#utility.yul\":7425:7426   */\n      dup2\n        /* \"#utility.yul\":7422:7435   */\n      lt\n        /* \"#utility.yul\":7403:7841   */\n      iszero\n      tag_171\n      jumpi\n        /* \"#utility.yul\":7499:7508   */\n      dup5\n        /* \"#utility.yul\":7493:7497   */\n      dup5\n        /* \"#utility.yul\":7489:7509   */\n      sub\n        /* \"#utility.yul\":7484:7487   */\n      dup10\n        /* \"#utility.yul\":7477:7510   */\n      mstore\n        /* \"#utility.yul\":7550:7556   */\n      dup2\n        /* \"#utility.yul\":7544:7557   */\n      mload\n        /* \"#utility.yul\":7578:7690   */\n      tag_172\n        /* \"#utility.yul\":7685:7689   */\n      dup6\n        /* \"#utility.yul\":7670:7683   */\n      dup3\n        /* \"#utility.yul\":7578:7690   */\n      tag_77\n      jump\t// in\n    tag_172:\n        /* \"#utility.yul\":7570:7690   */\n      swap5\n      pop\n        /* \"#utility.yul\":7713:7797   */\n      tag_173\n        /* \"#utility.yul\":7790:7796   */\n      dup4\n        /* \"#utility.yul\":7713:7797   */\n      tag_78\n      jump\t// in\n    tag_173:\n        /* \"#utility.yul\":7703:7797   */\n      swap3\n      pop\n        /* \"#utility.yul\":7826:7830   */\n      0x20\n        /* \"#utility.yul\":7821:7824   */\n      dup11\n        /* \"#utility.yul\":7817:7831   */\n      add\n        /* \"#utility.yul\":7810:7831   */\n      swap10\n      pop\n        /* \"#utility.yul\":7463:7841   */\n      pop\n        /* \"#utility.yul\":7450:7451   */\n      0x01\n        /* \"#utility.yul\":7447:7448   */\n      dup2\n        /* \"#utility.yul\":7443:7452   */\n      add\n        /* \"#utility.yul\":7438:7452   */\n      swap1\n      pop\n        /* \"#utility.yul\":7403:7841   */\n      jump(tag_169)\n    tag_171:\n        /* \"#utility.yul\":7407:7421   */\n      pop\n        /* \"#utility.yul\":7857:7861   */\n      dup3\n        /* \"#utility.yul\":7850:7861   */\n      swap8\n      pop\n        /* \"#utility.yul\":7877:7880   */\n      dup8\n        /* \"#utility.yul\":7870:7880   */\n      swap6\n      pop\n        /* \"#utility.yul\":6955:7886   */\n      pop\n      pop\n      pop\n      pop\n      pop\n        /* \"#utility.yul\":6783:7886   */\n      swap3\n      swap2\n      pop\n      pop\n      jump\t// out\n        /* \"#utility.yul\":7892:8361   */\n    tag_22:\n        /* \"#utility.yul\":8083:8087   */\n      0x00\n        /* \"#utility.yul\":8121:8123   */\n      0x20\n        /* \"#utility.yul\":8110:8119   */\n      dup3\n        /* \"#utility.yul\":8106:8124   */\n      add\n        /* \"#utility.yul\":8098:8124   */\n      swap1\n      pop\n        /* \"#utility.yul\":8170:8179   */\n      dup2\n        /* \"#utility.yul\":8164:8168   */\n      dup2\n        /* \"#utility.yul\":8160:8180   */\n      sub\n        /* \"#utility.yul\":8156:8157   */\n      0x00\n        /* \"#utility.yul\":8145:8154   */\n      dup4\n        /* \"#utility.yul\":8141:8158   */\n      add\n        /* \"#utility.yul\":8134:8181   */\n      mstore\n        /* \"#utility.yul\":8198:8354   */\n      tag_175\n        /* \"#utility.yul\":8349:8353   */\n      dup2\n        /* \"#utility.yul\":8340:8346   */\n      dup5\n        /* \"#utility.yul\":8198:8354   */\n      tag_79\n      jump\t// in\n    tag_175:\n        /* \"#utility.yul\":8190:8354   */\n      swap1\n      pop\n        /* \"#utility.yul\":7892:8361   */\n      swap3\n      swap2\n      pop\n      pop\n      jump\t// out\n        /* \"#utility.yul\":8367:8547   */\n    tag_32:\n        /* \"#utility.yul\":8415:8492   */\n      0x4e487b7100000000000000000000000000000000000000000000000000000000\n        /* \"#utility.yul\":8412:8413   */\n      0x00\n        /* \"#utility.yul\":8405:8493   */\n      mstore\n        /* \"#utility.yul\":8512:8516   */\n      0x32\n        /* \"#utility.yul\":8509:8510   */\n      0x04\n        /* \"#utility.yul\":8502:8517   */\n      mstore\n        /* \"#utility.yul\":8536:8540   */\n      0x24\n        /* \"#utility.yul\":8533:8534   */\n      0x00\n        /* \"#utility.yul\":8526:8541   */\n      revert\n        /* \"#utility.yul\":8553:8733   */\n    tag_80:\n        /* \"#utility.yul\":8601:8678   */\n      0x4e487b7100000000000000000000000000000000000000000000000000000000\n        /* \"#utility.yul\":8598:8599   */\n      0x00\n        /* \"#utility.yul\":8591:8679   */\n      mstore\n        /* \"#utility.yul\":8698:8702   */\n      0x22\n        /* \"#utility.yul\":8695:8696   */\n      0x04\n        /* \"#utility.yul\":8688:8703   */\n      mstore\n        /* \"#utility.yul\":8722:8726   */\n      0x24\n        /* \"#utility.yul\":8719:8720   */\n      0x00\n        /* \"#utility.yul\":8712:8727   */\n      revert\n        /* \"#utility.yul\":8739:9059   */\n    tag_44:\n        /* \"#utility.yul\":8783:8789   */\n      0x00\n        /* \"#utility.yul\":8820:8821   */\n      0x02\n        /* \"#utility.yul\":8814:8818   */\n      dup3\n        /* \"#utility.yul\":8810:8822   */\n      div\n        /* \"#utility.yul\":8800:8822   */\n      swap1\n      pop\n        /* \"#utility.yul\":8867:8868   */\n      0x01\n        /* \"#utility.yul\":8861:8865   */\n      dup3\n        /* \"#utility.yul\":8857:8869   */\n      and\n        /* \"#utility.yul\":8888:8906   */\n      dup1\n        /* \"#utility.yul\":8878:8959   */\n      tag_179\n      jumpi\n        /* \"#utility.yul\":8944:8948   */\n      0x7f\n        /* \"#utility.yul\":8936:8942   */\n      dup3\n        /* \"#utility.yul\":8932:8949   */\n      and\n        /* \"#utility.yul\":8922:8949   */\n      swap2\n      pop\n        /* \"#utility.yul\":8878:8959   */\n    tag_179:\n        /* \"#utility.yul\":9006:9008   */\n      0x20\n        /* \"#utility.yul\":8998:9004   */\n      dup3\n        /* \"#utility.yul\":8995:9009   */\n      lt\n        /* \"#utility.yul\":8975:8993   */\n      dup2\n        /* \"#utility.yul\":8972:9010   */\n      sub\n        /* \"#utility.yul\":8969:9053   */\n      tag_180\n      jumpi\n        /* \"#utility.yul\":9025:9043   */\n      tag_181\n      tag_80\n      jump\t// in\n    tag_181:\n        /* \"#utility.yul\":8969:9053   */\n    tag_180:\n        /* \"#utility.yul\":8790:9059   */\n      pop\n        /* \"#utility.yul\":8739:9059   */\n      swap2\n      swap1\n      pop\n      jump\t// out\n        /* \"#utility.yul\":9065:9206   */\n    tag_81:\n        /* \"#utility.yul\":9114:9118   */\n      0x00\n        /* \"#utility.yul\":9137:9140   */\n      dup2\n        /* \"#utility.yul\":9129:9140   */\n      swap1\n      pop\n        /* \"#utility.yul\":9160:9163   */\n      dup2\n        /* \"#utility.yul\":9157:9158   */\n      0x00\n        /* \"#utility.yul\":9150:9164   */\n      mstore\n        /* \"#utility.yul\":9194:9198   */\n      0x20\n        /* \"#utility.yul\":9191:9192   */\n      0x00\n        /* \"#utility.yul\":9181:9199   */\n      keccak256\n        /* \"#utility.yul\":9173:9199   */\n      swap1\n      pop\n        /* \"#utility.yul\":9065:9206   */\n      swap2\n      swap1\n      pop\n      jump\t// out\n        /* \"#utility.yul\":9212:9305   */\n    tag_82:\n        /* \"#utility.yul\":9249:9255   */\n      0x00\n        /* \"#utility.yul\":9296:9298   */\n      0x20\n        /* \"#utility.yul\":9291:9293   */\n      0x1f\n        /* \"#utility.yul\":9284:9289   */\n      dup4\n        /* \"#utility.yul\":9280:9294   */\n      add\n        /* \"#utility.yul\":9276:9299   */\n      div\n        /* \"#utility.yul\":9266:9299   */\n      swap1\n      pop\n        /* \"#utility.yul\":9212:9305   */\n      swap2\n      swap1\n      pop\n      jump\t// out\n        /* \"#utility.yul\":9311:9418   */\n    tag_83:\n        /* \"#utility.yul\":9355:9363   */\n      0x00\n        /* \"#utility.yul\":9405:9410   */\n      dup3\n        /* \"#utility.yul\":9399:9403   */\n      dup3\n        /* \"#utility.yul\":9395:9411   */\n      shl\n        /* \"#utility.yul\":9374:9411   */\n      swap1\n      pop\n        /* \"#utility.yul\":9311:9418   */\n      swap3\n      swap2\n      pop\n      pop\n      jump\t// out\n        /* \"#utility.yul\":9424:9817   */\n    tag_84:\n        /* \"#utility.yul\":9493:9499   */\n      0x00\n        /* \"#utility.yul\":9543:9544   */\n      0x08\n        /* \"#utility.yul\":9531:9541   */\n      dup4\n        /* \"#utility.yul\":9527:9545   */\n      mul\n        /* \"#utility.yul\":9566:9663   */\n      tag_186\n        /* \"#utility.yul\":9596:9662   */\n      0xffffffffffffffffffffffffffffffffffffffffffffffffffffffffffffffff\n        /* \"#utility.yul\":9585:9594   */\n      dup3\n        /* \"#utility.yul\":9566:9663   */\n      tag_83\n      jump\t// in\n    tag_186:\n        /* \"#utility.yul\":9684:9723   */\n      tag_187\n        /* \"#utility.yul\":9714:9722   */\n      dup7\n        /* \"#utility.yul\":9703:9712   */\n      dup4\n        /* \"#utility.yul\":9684:9723   */\n      tag_83\n      jump\t// in\n    tag_187:\n        /* \"#utility.yul\":9672:9723   */\n      swap6\n      pop\n        /* \"#utility.yul\":9756:9760   */\n      dup1\n        /* \"#utility.yul\":9752:9761   */\n      not\n        /* \"#utility.yul\":9745:9750   */\n      dup5\n        /* \"#utility.yul\":9741:9762   */\n      and\n        /* \"#utility.yul\":9732:9762   */\n      swap4\n      pop\n        /* \"#utility.yul\":9805:9809   */\n      dup1\n        /* \"#utility.yul\":9795:9803   */\n      dup7\n        /* \"#utility.yul\":9791:9810   */\n      and\n        /* \"#utility.yul\":9784:9789   */\n      dup5\n        /* \"#utility.yul\":9781:9811   */\n      or\n        /* \"#utility.yul\":9771:9811   */\n      swap3\n      pop\n        /* \"#utility.yul\":9500:9817   */\n      pop\n      pop\n        /* \"#utility.yul\":9424:9817   */\n      swap4\n      swap3\n      pop\n      pop\n      pop\n      jump\t// out\n        /* \"#utility.yul\":9823:9883   */\n    tag_85:\n        /* \"#utility.yul\":9851:9854   */\n      0x00\n        /* \"#utility.yul\":9872:9877   */\n      dup2\n        /* \"#utility.yul\":9865:9877   */\n      swap1\n      pop\n        /* \"#utility.yul\":9823:9883   */\n      swap2\n      swap1\n      pop\n      jump\t// out\n        /* \"#utility.yul\":9889:10031   */\n    tag_86:\n        /* \"#utility.yul\":9939:9948   */\n      0x00\n        /* \"#utility.yul\":9972:10025   */\n      tag_190\n        /* \"#utility.yul\":9990:10024   */\n      tag_191\n        /* \"#utility.yul\":9999:10023   */\n      tag_192\n        /* \"#utility.yul\":10017:10022   */\n      dup5\n        /* \"#utility.yul\":9999:10023   */\n      tag_49\n      jump\t// in\n    tag_192:\n        /* \"#utility.yul\":9990:10024   */\n      tag_85\n      jump\t// in\n    tag_191:\n        /* \"#utility.yul\":9972:10025   */\n      tag_49\n      jump\t// in\n    tag_190:\n        /* \"#utility.yul\":9959:10025   */\n      swap1\n      pop\n        /* \"#utility.yul\":9889:10031   */\n      swap2\n      swap1\n      pop\n      jump\t// out\n        /* \"#utility.yul\":10037:10112   */\n    tag_87:\n        /* \"#utility.yul\":10080:10083   */\n      0x00\n        /* \"#utility.yul\":10101:10106   */\n      dup2\n        /* \"#utility.yul\":10094:10106   */\n      swap1\n      pop\n        /* \"#utility.yul\":10037:10112   */\n      swap2\n      swap1\n      pop\n      jump\t// out\n        /* \"#utility.yul\":10118:10387   */\n    tag_88:\n        /* \"#utility.yul\":10228:10267   */\n      tag_195\n        /* \"#utility.yul\":10259:10266   */\n      dup4\n        /* \"#utility.yul\":10228:10267   */\n      tag_86\n      jump\t// in\n    tag_195:\n        /* \"#utility.yul\":10289:10380   */\n      tag_196\n        /* \"#utility.yul\":10338:10379   */\n      tag_197\n        /* \"#utility.yul\":10362:10378   */\n      dup3\n        /* \"#utility.yul\":10338:10379   */\n      tag_87\n      jump\t// in\n    tag_197:\n        /* \"#utility.yul\":10330:10336   */\n      dup5\n        /* \"#utility.yul\":10323:10327   */\n      dup5\n        /* \"#utility.yul\":10317:10328   */\n      sload\n        /* \"#utility.yul\":10289:10380   */\n      tag_84\n      jump\t// in\n    tag_196:\n        /* \"#utility.yul\":10283:10287   */\n      dup3\n        /* \"#utility.yul\":10276:10381   */\n      sstore\n        /* \"#utility.yul\":10194:10387   */\n      pop\n        /* \"#utility.yul\":10118:10387   */\n      pop\n      pop\n      pop\n      jump\t// out\n        /* \"#utility.yul\":10393:10466   */\n    tag_89:\n        /* \"#utility.yul\":10438:10441   */\n      0x00\n        /* \"#utility.yul\":10393:10466   */\n      swap1\n      jump\t// out\n        /* \"#utility.yul\":10472:10661   */\n    tag_90:\n        /* \"#utility.yul\":10549:10581   */\n      tag_200\n      tag_89\n      jump\t// in\n    tag_200:\n        /* \"#utility.yul\":10590:10655   */\n      tag_201\n        /* \"#utility.yul\":10648:10654   */\n      dup2\n        /* \"#utility.yul\":10640:10646   */\n      dup5\n        /* \"#utility.yul\":10634:10638   */\n      dup5\n        /* \"#utility.yul\":10590:10655   */\n      tag_88\n      jump\t// in\n    tag_201:\n        /* \"#utility.yul\":10525:10661   */\n      pop\n        /* \"#utility.yul\":10472:10661   */\n      pop\n      pop\n      jump\t// out\n        /* \"#utility.yul\":10667:10853   */\n    tag_91:\n        /* \"#utility.yul\":10727:10847   */\n    tag_203:\n        /* \"#utility.yul\":10744:10747   */\n      dup2\n        /* \"#utility.yul\":10737:10742   */\n      dup2\n        /* \"#utility.yul\":10734:10748   */\n      lt\n        /* \"#utility.yul\":10727:10847   */\n      iszero\n      tag_205\n      jumpi\n        /* \"#utility.yul\":10798:10837   */\n      tag_206\n        /* \"#utility.yul\":10835:10836   */\n      0x00\n        /* \"#utility.yul\":10828:10833   */\n      dup3\n        /* \"#utility.yul\":10798:10837   */\n      tag_90\n      jump\t// in\n    tag_206:\n        /* \"#utility.yul\":10771:10772   */\n      0x01\n        /* \"#utility.yul\":10764:10769   */\n      dup2\n        /* \"#utility.yul\":10760:10773   */\n      add\n        /* \"#utility.yul\":10751:10773   */\n      swap1\n      pop\n        /* \"#utility.yul\":10727:10847   */\n      jump(tag_203)\n    tag_205:\n        /* \"#utility.yul\":10667:10853   */\n      pop\n      pop\n      jump\t// out\n        /* \"#utility.yul\":10859:11402   */\n    tag_92:\n        /* \"#utility.yul\":10960:10962   */\n      0x1f\n        /* \"#utility.yul\":10955:10958   */\n      dup3\n        /* \"#utility.yul\":10952:10963   */\n      gt\n        /* \"#utility.yul\":10949:11395   */\n      iszero\n      tag_208\n      jumpi\n        /* \"#utility.yul\":10994:11032   */\n      tag_209\n        /* \"#utility.yul\":11026:11031   */\n      dup2\n        /* \"#utility.yul\":10994:11032   */\n      tag_81\n      jump\t// in\n    tag_209:\n        /* \"#utility.yul\":11078:11107   */\n      tag_210\n        /* \"#utility.yul\":11096:11106   */\n      dup5\n        /* \"#utility.yul\":11078:11107   */\n      tag_82\n      jump\t// in\n    tag_210:\n        /* \"#utility.yul\":11068:11076   */\n      dup2\n        /* \"#utility.yul\":11064:11108   */\n      add\n        /* \"#utility.yul\":11261:11263   */\n      0x20\n        /* \"#utility.yul\":11249:11259   */\n      dup6\n        /* \"#utility.yul\":11246:11264   */\n      lt\n        /* \"#utility.yul\":11243:11292   */\n      iszero\n      tag_211\n      jumpi\n        /* \"#utility.yul\":11282:11290   */\n      dup2\n        /* \"#utility.yul\":11267:11290   */\n      swap1\n      pop\n        /* \"#utility.yul\":11243:11292   */\n    tag_211:\n        /* \"#utility.yul\":11305:11385   */\n      tag_212\n        /* \"#utility.yul\":11361:11383   */\n      tag_213\n        /* \"#utility.yul\":11379:11382   */\n      dup6\n        /* \"#utility.yul\":11361:11383   */\n      tag_82\n      jump\t// in\n    tag_213:\n        /* \"#utility.yul\":11351:11359   */\n      dup4\n        /* \"#utility.yul\":11347:11384   */\n      add\n        /* \"#utility.yul\":11334:11345   */\n      dup3\n        /* \"#utility.yul\":11305:11385   */\n      tag_91\n      jump\t// in\n    tag_212:\n        /* \"#utility.yul\":10964:11395   */\n      pop\n      pop\n        /* \"#utility.yul\":10949:11395   */\n    tag_208:\n        /* \"#utility.yul\":10859:11402   */\n      pop\n      pop\n      pop\n      jump\t// out\n        /* \"#utility.yul\":11408:11525   */\n    tag_93:\n        /* \"#utility.yul\":11462:11470   */\n      0x00\n        /* \"#utility.yul\":11512:11517   */\n      dup3\n        /* \"#utility.yul\":11506:11510   */\n      dup3\n        /* \"#utility.yul\":11502:11518   */\n      shr\n        /* \"#utility.yul\":11481:11518   */\n      swap1\n      pop\n        /* \"#utility.yul\":11408:11525   */\n      swap3\n      swap2\n      pop\n      pop\n      jump\t// out\n        /* \"#utility.yul\":11531:11700   */\n    tag_94:\n        /* \"#utility.yul\":11575:11581   */\n      0x00\n        /* \"#utility.yul\":11608:11659   */\n      tag_216\n        /* \"#utility.yul\":11656:11657   */\n      0x00\n        /* \"#utility.yul\":11652:11658   */\n      not\n        /* \"#utility.yul\":11644:11649   */\n      dup5\n        /* \"#utility.yul\":11641:11642   */\n      0x08\n        /* \"#utility.yul\":11637:11650   */\n      mul\n        /* \"#utility.yul\":11608:11659   */\n      tag_93\n      jump\t// in\n    tag_216:\n        /* \"#utility.yul\":11604:11660   */\n      not\n        /* \"#utility.yul\":11689:11693   */\n      dup1\n        /* \"#utility.yul\":11683:11687   */\n      dup4\n        /* \"#utility.yul\":11679:11694   */\n      and\n        /* \"#utility.yul\":11669:11694   */\n      swap2\n      pop\n        /* \"#utility.yul\":11582:11700   */\n      pop\n        /* \"#utility.yul\":11531:11700   */\n      swap3\n      swap2\n      pop\n      pop\n      jump\t// out\n        /* \"#utility.yul\":11705:12000   */\n    tag_95:\n        /* \"#utility.yul\":11781:11785   */\n      0x00\n        /* \"#utility.yul\":11927:11956   */\n      tag_218\n        /* \"#utility.yul\":11952:11955   */\n      dup4\n        /* \"#utility.yul\":11946:11950   */\n      dup4\n        /* \"#utility.yul\":11927:11956   */\n      tag_94\n      jump\t// in\n    tag_218:\n        /* \"#utility.yul\":11919:11956   */\n      swap2\n      pop\n        /* \"#utility.yul\":11989:11992   */\n      dup3\n        /* \"#utility.yul\":11986:11987   */\n      0x02\n        /* \"#utility.yul\":11982:11993   */\n      mul\n        /* \"#utility.yul\":11976:11980   */\n      dup3\n        /* \"#utility.yul\":11973:11994   */\n      or\n        /* \"#utility.yul\":11965:11994   */\n      swap1\n      pop\n        /* \"#utility.yul\":11705:12000   */\n      swap3\n      swap2\n      pop\n      pop\n      jump\t// out\n        /* \"#utility.yul\":12005:13400   */\n    tag_38:\n        /* \"#utility.yul\":12122:12159   */\n      tag_220\n        /* \"#utility.yul\":12155:12158   */\n      dup3\n        /* \"#utility.yul\":12122:12159   */\n      tag_72\n      jump\t// in\n    tag_220:\n        /* \"#utility.yul\":12224:12242   */\n      0xffffffffffffffff\n        /* \"#utility.yul\":12216:12222   */\n      dup2\n        /* \"#utility.yul\":12213:12243   */\n      gt\n        /* \"#utility.yul\":12210:12266   */\n      iszero\n      tag_221\n      jumpi\n        /* \"#utility.yul\":12246:12264   */\n      tag_222\n      tag_61\n      jump\t// in\n    tag_222:\n        /* \"#utility.yul\":12210:12266   */\n    tag_221:\n        /* \"#utility.yul\":12290:12328   */\n      tag_223\n        /* \"#utility.yul\":12322:12326   */\n      dup3\n        /* \"#utility.yul\":12316:12327   */\n      sload\n        /* \"#utility.yul\":12290:12328   */\n      tag_44\n      jump\t// in\n    tag_223:\n        /* \"#utility.yul\":12375:12442   */\n      tag_224\n        /* \"#utility.yul\":12435:12441   */\n      dup3\n        /* \"#utility.yul\":12427:12433   */\n      dup3\n        /* \"#utility.yul\":12421:12425   */\n      dup6\n        /* \"#utility.yul\":12375:12442   */\n      tag_92\n      jump\t// in\n    tag_224:\n        /* \"#utility.yul\":12469:12470   */\n      0x00\n        /* \"#utility.yul\":12493:12497   */\n      0x20\n        /* \"#utility.yul\":12480:12497   */\n      swap1\n      pop\n        /* \"#utility.yul\":12525:12527   */\n      0x1f\n        /* \"#utility.yul\":12517:12523   */\n      dup4\n        /* \"#utility.yul\":12514:12528   */\n      gt\n        /* \"#utility.yul\":12542:12543   */\n      0x01\n        /* \"#utility.yul\":12537:13155   */\n      dup2\n      eq\n      tag_226\n      jumpi\n        /* \"#utility.yul\":13199:13200   */\n      0x00\n        /* \"#utility.yul\":13216:13222   */\n      dup5\n        /* \"#utility.yul\":13213:13290   */\n      iszero\n      tag_227\n      jumpi\n        /* \"#utility.yul\":13265:13274   */\n      dup3\n        /* \"#utility.yul\":13260:13263   */\n      dup8\n        /* \"#utility.yul\":13256:13275   */\n      add\n        /* \"#utility.yul\":13250:13276   */\n      mload\n        /* \"#utility.yul\":13241:13276   */\n      swap1\n      pop\n        /* \"#utility.yul\":13213:13290   */\n    tag_227:\n        /* \"#utility.yul\":13316:13383   */\n      tag_228\n        /* \"#utility.yul\":13376:13382   */\n      dup6\n        /* \"#utility.yul\":13369:13374   */\n      dup3\n        /* \"#utility.yul\":13316:13383   */\n      tag_95\n      jump\t// in\n    tag_228:\n        /* \"#utility.yul\":13310:13314   */\n      dup7\n        /* \"#utility.yul\":13303:13384   */\n      sstore\n        /* \"#utility.yul\":13172:13394   */\n      pop\n        /* \"#utility.yul\":12507:13394   */\n      jump(tag_225)\n        /* \"#utility.yul\":12537:13155   */\n    tag_226:\n        /* \"#utility.yul\":12589:12593   */\n      0x1f\n        /* \"#utility.yul\":12585:12594   */\n      not\n        /* \"#utility.yul\":12577:12583   */\n      dup5\n        /* \"#utility.yul\":12573:12595   */\n      and\n        /* \"#utility.yul\":12623:12660   */\n      tag_229\n        /* \"#utility.yul\":12655:12659   */\n      dup7\n        /* \"#utility.yul\":12623:12660   */\n      tag_81\n      jump\t// in\n    tag_229:\n        /* \"#utility.yul\":12682:12683   */\n      0x00\n        /* \"#utility.yul\":12696:12904   */\n    tag_230:\n        /* \"#utility.yul\":12710:12717   */\n      dup3\n        /* \"#utility.yul\":12707:12708   */\n      dup2\n        /* \"#utility.yul\":12704:12718   */\n      lt\n        /* \"#utility.yul\":12696:12904   */\n      iszero\n      tag_232\n      jumpi\n        /* \"#utility.yul\":12789:12798   */\n      dup5\n        /* \"#utility.yul\":12784:12787   */\n      dup10\n        /* \"#utility.yul\":12780:12799   */\n      add\n        /* \"#utility.yul\":12774:12800   */\n      mload\n        /* \"#utility.yul\":12766:12772   */\n      dup3\n        /* \"#utility.yul\":12759:12801   */\n      sstore\n        /* \"#utility.yul\":12840:12841   */\n      0x01\n        /* \"#utility.yul\":12832:12838   */\n      dup3\n        /* \"#utility.yul\":12828:12842   */\n      add\n        /* \"#utility.yul\":12818:12842   */\n      swap2\n      pop\n        /* \"#utility.yul\":12887:12889   */\n      0x20\n        /* \"#utility.yul\":12876:12885   */\n      dup6\n        /* \"#utility.yul\":12872:12890   */\n      add\n        /* \"#utility.yul\":12859:12890   */\n      swap5\n      pop\n        /* \"#utility.yul\":12733:12737   */\n      0x20\n        /* \"#utility.yul\":12730:12731   */\n      dup2\n        /* \"#utility.yul\":12726:12738   */\n      add\n        /* \"#utility.yul\":12721:12738   */\n      swap1\n      pop\n        /* \"#utility.yul\":12696:12904   */\n      jump(tag_230)\n    tag_232:\n        /* \"#utility.yul\":12932:12938   */\n      dup7\n        /* \"#utility.yul\":12923:12930   */\n      dup4\n        /* \"#utility.yul\":12920:12939   */\n      lt\n        /* \"#utility.yul\":12917:13096   */\n      iszero\n      tag_233\n      jumpi\n        /* \"#utility.yul\":12990:12999   */\n      dup5\n        /* \"#utility.yul\":12985:12988   */\n      dup10\n        /* \"#utility.yul\":12981:13000   */\n      add\n        /* \"#utility.yul\":12975:13001   */\n      mload\n        /* \"#utility.yul\":13033:13081   */\n      tag_234\n        /* \"#utility.yul\":13075:13079   */\n      0x1f\n        /* \"#utility.yul\":13067:13073   */\n      dup10\n        /* \"#utility.yul\":13063:13080   */\n      and\n        /* \"#utility.yul\":13052:13061   */\n      dup3\n        /* \"#utility.yul\":13033:13081   */\n      tag_94\n      jump\t// in\n    tag_234:\n        /* \"#utility.yul\":13025:13031   */\n      dup4\n        /* \"#utility.yul\":13018:13082   */\n      sstore\n        /* \"#utility.yul\":12940:13096   */\n      pop\n        /* \"#utility.yul\":12917:13096   */\n    tag_233:\n        /* \"#utility.yul\":13142:13143   */\n      0x01\n        /* \"#utility.yul\":13138:13139   */\n      0x02\n        /* \"#utility.yul\":13130:13136   */\n      dup9\n        /* \"#utility.yul\":13126:13140   */\n      mul\n        /* \"#utility.yul\":13122:13144   */\n      add\n        /* \"#utility.yul\":13116:13120   */\n      dup9\n        /* \"#utility.yul\":13109:13145   */\n      sstore\n        /* \"#utility.yul\":12544:13155   */\n      pop\n      pop\n      pop\n        /* \"#utility.yul\":12507:13394   */\n    tag_225:\n      pop\n        /* \"#utility.yul\":12097:13400   */\n      pop\n      pop\n      pop\n        /* \"#utility.yul\":12005:13400   */\n      pop\n      pop\n      jump\t// out\n\n    auxdata: 0xa26469706673582212202e834a5be771a679c94173e28516c2a718367b08e7694a107946a4fdaf7b7e8464736f6c634300081a0033\n}\n",
				"bytecode": {
					"linkReferences": {},
					"object": "6080604052348015600e575f80fd5b50335f806101000a81548173ffffffffffffffffffffffffffffffffffffffff021916908373ffffffffffffffffffffffffffffffffffffffff160217905550610a578061005b5f395ff3fe60806040526004361061003e575f3560e01c80632a08deda146100425780636e7301fd1461006c5780638acce97214610076578063e83a1b001461009e575b5f80fd5b34801561004d575f80fd5b506100566100c8565b604051610063919061038d565b60405180910390f35b6100746100cf565b005b348015610081575f80fd5b5061009c6004803603810190610097919061054d565b6100d1565b005b3480156100a9575f80fd5b506100b2610235565b6040516100bf919061070b565b60405180910390f35b5f47905090565b565b5f6001808054905010610175575f5b600180549050811015610173578373ffffffffffffffffffffffffffffffffffffffff16600182815481106101185761011761072b565b5b905f5260205f2090600202015f015f9054906101000a900473ffffffffffffffffffffffffffffffffffffffff1673ffffffffffffffffffffffffffffffffffffffff160361016657600191505b80806001019150506100e0565b505b5f15158115150361023057600160405180604001604052808573ffffffffffffffffffffffffffffffffffffffff16815260200184815250908060018154018082558091505060019003905f5260205f2090600202015f909190919091505f820151815f015f6101000a81548173ffffffffffffffffffffffffffffffffffffffff021916908373ffffffffffffffffffffffffffffffffffffffff160217905550602082015181600101908161022c9190610952565b5050505b505050565b60606001805480602002602001604051908101604052809291908181526020015f905b8282101561036c578382905f5260205f2090600202016040518060400160405290815f82015f9054906101000a900473ffffffffffffffffffffffffffffffffffffffff1673ffffffffffffffffffffffffffffffffffffffff1673ffffffffffffffffffffffffffffffffffffffff1681526020016001820180546102dd90610785565b80601f016020809104026020016040519081016040528092919081815260200182805461030990610785565b80156103545780601f1061032b57610100808354040283529160200191610354565b820191905f5260205f20905b81548152906001019060200180831161033757829003601f168201915b50505050508152505081526020019060010190610258565b50505050905090565b5f819050919050565b61038781610375565b82525050565b5f6020820190506103a05f83018461037e565b92915050565b5f604051905090565b5f80fd5b5f80fd5b5f73ffffffffffffffffffffffffffffffffffffffff82169050919050565b5f6103e0826103b7565b9050919050565b6103f0816103d6565b81146103fa575f80fd5b50565b5f8135905061040b816103e7565b92915050565b5f80fd5b5f80fd5b5f601f19601f8301169050919050565b7f4e487b71000000000000000000000000000000000000000000000000000000005f52604160045260245ffd5b61045f82610419565b810181811067ffffffffffffffff8211171561047e5761047d610429565b5b80604052505050565b5f6104906103a6565b905061049c8282610456565b919050565b5f67ffffffffffffffff8211156104bb576104ba610429565b5b6104c482610419565b9050602081019050919050565b828183375f83830152505050565b5f6104f16104ec846104a1565b610487565b90508281526020810184848401111561050d5761050c610415565b5b6105188482856104d1565b509392505050565b5f82601f83011261053457610533610411565b5b81356105448482602086016104df565b91505092915050565b5f8060408385031215610563576105626103af565b5b5f610570858286016103fd565b925050602083013567ffffffffffffffff811115610591576105906103b3565b5b61059d85828601610520565b9150509250929050565b5f81519050919050565b5f82825260208201905092915050565b5f819050602082019050919050565b6105d9816103d6565b82525050565b5f81519050919050565b5f82825260208201905092915050565b8281835e5f83830152505050565b5f610611826105df565b61061b81856105e9565b935061062b8185602086016105f9565b61063481610419565b840191505092915050565b5f604083015f8301516106545f8601826105d0565b506020830151848203602086015261066c8282610607565b9150508091505092915050565b5f610684838361063f565b905092915050565b5f602082019050919050565b5f6106a2826105a7565b6106ac81856105b1565b9350836020820285016106be856105c1565b805f5b858110156106f957848403895281516106da8582610679565b94506106e58361068c565b925060208a019950506001810190506106c1565b50829750879550505050505092915050565b5f6020820190508181035f8301526107238184610698565b905092915050565b7f4e487b71000000000000000000000000000000000000000000000000000000005f52603260045260245ffd5b7f4e487b71000000000000000000000000000000000000000000000000000000005f52602260045260245ffd5b5f600282049050600182168061079c57607f821691505b6020821081036107af576107ae610758565b5b50919050565b5f819050815f5260205f209050919050565b5f6020601f8301049050919050565b5f82821b905092915050565b5f600883026108117fffffffffffffffffffffffffffffffffffffffffffffffffffffffffffffffff826107d6565b61081b86836107d6565b95508019841693508086168417925050509392505050565b5f819050919050565b5f61085661085161084c84610375565b610833565b610375565b9050919050565b5f819050919050565b61086f8361083c565b61088361087b8261085d565b8484546107e2565b825550505050565b5f90565b61089761088b565b6108a2818484610866565b505050565b5b818110156108c5576108ba5f8261088f565b6001810190506108a8565b5050565b601f82111561090a576108db816107b5565b6108e4846107c7565b810160208510156108f3578190505b6109076108ff856107c7565b8301826108a7565b50505b505050565b5f82821c905092915050565b5f61092a5f198460080261090f565b1980831691505092915050565b5f610942838361091b565b9150826002028217905092915050565b61095b826105df565b67ffffffffffffffff81111561097457610973610429565b5b61097e8254610785565b6109898282856108c9565b5f60209050601f8311600181146109ba575f84156109a8578287015190505b6109b28582610937565b865550610a19565b601f1984166109c8866107b5565b5f5b828110156109ef578489015182556001820191506020850194506020810190506109ca565b86831015610a0c5784890151610a08601f89168261091b565b8355505b6001600288020188555050505b50505050505056fea26469706673582212202e834a5be771a679c94173e28516c2a718367b08e7694a107946a4fdaf7b7e8464736f6c634300081a0033",
					"opcodes": "PUSH1 0x80 PUSH1 0x40 MSTORE CALLVALUE DUP1 ISZERO PUSH1 0xE JUMPI PUSH0 DUP1 REVERT JUMPDEST POP CALLER PUSH0 DUP1 PUSH2 0x100 EXP DUP2 SLOAD DUP2 PUSH20 0xFFFFFFFFFFFFFFFFFFFFFFFFFFFFFFFFFFFFFFFF MUL NOT AND SWAP1 DUP4 PUSH20 0xFFFFFFFFFFFFFFFFFFFFFFFFFFFFFFFFFFFFFFFF AND MUL OR SWAP1 SSTORE POP PUSH2 0xA57 DUP1 PUSH2 0x5B PUSH0 CODECOPY PUSH0 RETURN INVALID PUSH1 0x80 PUSH1 0x40 MSTORE PUSH1 0x4 CALLDATASIZE LT PUSH2 0x3E JUMPI PUSH0 CALLDATALOAD PUSH1 0xE0 SHR DUP1 PUSH4 0x2A08DEDA EQ PUSH2 0x42 JUMPI DUP1 PUSH4 0x6E7301FD EQ PUSH2 0x6C JUMPI DUP1 PUSH4 0x8ACCE972 EQ PUSH2 0x76 JUMPI DUP1 PUSH4 0xE83A1B00 EQ PUSH2 0x9E JUMPI JUMPDEST PUSH0 DUP1 REVERT JUMPDEST CALLVALUE DUP1 ISZERO PUSH2 0x4D JUMPI PUSH0 DUP1 REVERT JUMPDEST POP PUSH2 0x56 PUSH2 0xC8 JUMP JUMPDEST PUSH1 0x40 MLOAD PUSH2 0x63 SWAP2 SWAP1 PUSH2 0x38D JUMP JUMPDEST PUSH1 0x40 MLOAD DUP1 SWAP2 SUB SWAP1 RETURN JUMPDEST PUSH2 0x74 PUSH2 0xCF JUMP JUMPDEST STOP JUMPDEST CALLVALUE DUP1 ISZERO PUSH2 0x81 JUMPI PUSH0 DUP1 REVERT JUMPDEST POP PUSH2 0x9C PUSH1 0x4 DUP1 CALLDATASIZE SUB DUP2 ADD SWAP1 PUSH2 0x97 SWAP2 SWAP1 PUSH2 0x54D JUMP JUMPDEST PUSH2 0xD1 JUMP JUMPDEST STOP JUMPDEST CALLVALUE DUP1 ISZERO PUSH2 0xA9 JUMPI PUSH0 DUP1 REVERT JUMPDEST POP PUSH2 0xB2 PUSH2 0x235 JUMP JUMPDEST PUSH1 0x40 MLOAD PUSH2 0xBF SWAP2 SWAP1 PUSH2 0x70B JUMP JUMPDEST PUSH1 0x40 MLOAD DUP1 SWAP2 SUB SWAP1 RETURN JUMPDEST PUSH0 SELFBALANCE SWAP1 POP SWAP1 JUMP JUMPDEST JUMP JUMPDEST PUSH0 PUSH1 0x1 DUP1 DUP1 SLOAD SWAP1 POP LT PUSH2 0x175 JUMPI PUSH0 JUMPDEST PUSH1 0x1 DUP1 SLOAD SWAP1 POP DUP2 LT ISZERO PUSH2 0x173 JUMPI DUP4 PUSH20 0xFFFFFFFFFFFFFFFFFFFFFFFFFFFFFFFFFFFFFFFF AND PUSH1 0x1 DUP3 DUP2 SLOAD DUP2 LT PUSH2 0x118 JUMPI PUSH2 0x117 PUSH2 0x72B JUMP JUMPDEST JUMPDEST SWAP1 PUSH0 MSTORE PUSH1 0x20 PUSH0 KECCAK256 SWAP1 PUSH1 0x2 MUL ADD PUSH0 ADD PUSH0 SWAP1 SLOAD SWAP1 PUSH2 0x100 EXP SWAP1 DIV PUSH20 0xFFFFFFFFFFFFFFFFFFFFFFFFFFFFFFFFFFFFFFFF AND PUSH20 0xFFFFFFFFFFFFFFFFFFFFFFFFFFFFFFFFFFFFFFFF AND SUB PUSH2 0x166 JUMPI PUSH1 0x1 SWAP2 POP JUMPDEST DUP1 DUP1 PUSH1 0x1 ADD SWAP2 POP POP PUSH2 0xE0 JUMP JUMPDEST POP JUMPDEST PUSH0 ISZERO ISZERO DUP2 ISZERO ISZERO SUB PUSH2 0x230 JUMPI PUSH1 0x1 PUSH1 0x40 MLOAD DUP1 PUSH1 0x40 ADD PUSH1 0x40 MSTORE DUP1 DUP6 PUSH20 0xFFFFFFFFFFFFFFFFFFFFFFFFFFFFFFFFFFFFFFFF AND DUP2 MSTORE PUSH1 0x20 ADD DUP5 DUP2 MSTORE POP SWAP1 DUP1 PUSH1 0x1 DUP2 SLOAD ADD DUP1 DUP3 SSTORE DUP1 SWAP2 POP POP PUSH1 0x1 SWAP1 SUB SWAP1 PUSH0 MSTORE PUSH1 0x20 PUSH0 KECCAK256 SWAP1 PUSH1 0x2 MUL ADD PUSH0 SWAP1 SWAP2 SWAP1 SWAP2 SWAP1 SWAP2 POP PUSH0 DUP3 ADD MLOAD DUP2 PUSH0 ADD PUSH0 PUSH2 0x100 EXP DUP2 SLOAD DUP2 PUSH20 0xFFFFFFFFFFFFFFFFFFFFFFFFFFFFFFFFFFFFFFFF MUL NOT AND SWAP1 DUP4 PUSH20 0xFFFFFFFFFFFFFFFFFFFFFFFFFFFFFFFFFFFFFFFF AND MUL OR SWAP1 SSTORE POP PUSH1 0x20 DUP3 ADD MLOAD DUP2 PUSH1 0x1 ADD SWAP1 DUP2 PUSH2 0x22C SWAP2 SWAP1 PUSH2 0x952 JUMP JUMPDEST POP POP POP JUMPDEST POP POP POP JUMP JUMPDEST PUSH1 0x60 PUSH1 0x1 DUP1 SLOAD DUP1 PUSH1 0x20 MUL PUSH1 0x20 ADD PUSH1 0x40 MLOAD SWAP1 DUP2 ADD PUSH1 0x40 MSTORE DUP1 SWAP3 SWAP2 SWAP1 DUP2 DUP2 MSTORE PUSH1 0x20 ADD PUSH0 SWAP1 JUMPDEST DUP3 DUP3 LT ISZERO PUSH2 0x36C JUMPI DUP4 DUP3 SWAP1 PUSH0 MSTORE PUSH1 0x20 PUSH0 KECCAK256 SWAP1 PUSH1 0x2 MUL ADD PUSH1 0x40 MLOAD DUP1 PUSH1 0x40 ADD PUSH1 0x40 MSTORE SWAP1 DUP2 PUSH0 DUP3 ADD PUSH0 SWAP1 SLOAD SWAP1 PUSH2 0x100 EXP SWAP1 DIV PUSH20 0xFFFFFFFFFFFFFFFFFFFFFFFFFFFFFFFFFFFFFFFF AND PUSH20 0xFFFFFFFFFFFFFFFFFFFFFFFFFFFFFFFFFFFFFFFF AND PUSH20 0xFFFFFFFFFFFFFFFFFFFFFFFFFFFFFFFFFFFFFFFF AND DUP2 MSTORE PUSH1 0x20 ADD PUSH1 0x1 DUP3 ADD DUP1 SLOAD PUSH2 0x2DD SWAP1 PUSH2 0x785 JUMP JUMPDEST DUP1 PUSH1 0x1F ADD PUSH1 0x20 DUP1 SWAP2 DIV MUL PUSH1 0x20 ADD PUSH1 0x40 MLOAD SWAP1 DUP2 ADD PUSH1 0x40 MSTORE DUP1 SWAP3 SWAP2 SWAP1 DUP2 DUP2 MSTORE PUSH1 0x20 ADD DUP3 DUP1 SLOAD PUSH2 0x309 SWAP1 PUSH2 0x785 JUMP JUMPDEST DUP1 ISZERO PUSH2 0x354 JUMPI DUP1 PUSH1 0x1F LT PUSH2 0x32B JUMPI PUSH2 0x100 DUP1 DUP4 SLOAD DIV MUL DUP4 MSTORE SWAP2 PUSH1 0x20 ADD SWAP2 PUSH2 0x354 JUMP JUMPDEST DUP3 ADD SWAP2 SWAP1 PUSH0 MSTORE PUSH1 0x20 PUSH0 KECCAK256 SWAP1 JUMPDEST DUP2 SLOAD DUP2 MSTORE SWAP1 PUSH1 0x1 ADD SWAP1 PUSH1 0x20 ADD DUP1 DUP4 GT PUSH2 0x337 JUMPI DUP3 SWAP1 SUB PUSH1 0x1F AND DUP3 ADD SWAP2 JUMPDEST POP POP POP POP POP DUP2 MSTORE POP POP DUP2 MSTORE PUSH1 0x20 ADD SWAP1 PUSH1 0x1 ADD SWAP1 PUSH2 0x258 JUMP JUMPDEST POP POP POP POP SWAP1 POP SWAP1 JUMP JUMPDEST PUSH0 DUP2 SWAP1 POP SWAP2 SWAP1 POP JUMP JUMPDEST PUSH2 0x387 DUP2 PUSH2 0x375 JUMP JUMPDEST DUP3 MSTORE POP POP JUMP JUMPDEST PUSH0 PUSH1 0x20 DUP3 ADD SWAP1 POP PUSH2 0x3A0 PUSH0 DUP4 ADD DUP5 PUSH2 0x37E JUMP JUMPDEST SWAP3 SWAP2 POP POP JUMP JUMPDEST PUSH0 PUSH1 0x40 MLOAD SWAP1 POP SWAP1 JUMP JUMPDEST PUSH0 DUP1 REVERT JUMPDEST PUSH0 DUP1 REVERT JUMPDEST PUSH0 PUSH20 0xFFFFFFFFFFFFFFFFFFFFFFFFFFFFFFFFFFFFFFFF DUP3 AND SWAP1 POP SWAP2 SWAP1 POP JUMP JUMPDEST PUSH0 PUSH2 0x3E0 DUP3 PUSH2 0x3B7 JUMP JUMPDEST SWAP1 POP SWAP2 SWAP1 POP JUMP JUMPDEST PUSH2 0x3F0 DUP2 PUSH2 0x3D6 JUMP JUMPDEST DUP2 EQ PUSH2 0x3FA JUMPI PUSH0 DUP1 REVERT JUMPDEST POP JUMP JUMPDEST PUSH0 DUP2 CALLDATALOAD SWAP1 POP PUSH2 0x40B DUP2 PUSH2 0x3E7 JUMP JUMPDEST SWAP3 SWAP2 POP POP JUMP JUMPDEST PUSH0 DUP1 REVERT JUMPDEST PUSH0 DUP1 REVERT JUMPDEST PUSH0 PUSH1 0x1F NOT PUSH1 0x1F DUP4 ADD AND SWAP1 POP SWAP2 SWAP1 POP JUMP JUMPDEST PUSH32 0x4E487B7100000000000000000000000000000000000000000000000000000000 PUSH0 MSTORE PUSH1 0x41 PUSH1 0x4 MSTORE PUSH1 0x24 PUSH0 REVERT JUMPDEST PUSH2 0x45F DUP3 PUSH2 0x419 JUMP JUMPDEST DUP2 ADD DUP2 DUP2 LT PUSH8 0xFFFFFFFFFFFFFFFF DUP3 GT OR ISZERO PUSH2 0x47E JUMPI PUSH2 0x47D PUSH2 0x429 JUMP JUMPDEST JUMPDEST DUP1 PUSH1 0x40 MSTORE POP POP POP JUMP JUMPDEST PUSH0 PUSH2 0x490 PUSH2 0x3A6 JUMP JUMPDEST SWAP1 POP PUSH2 0x49C DUP3 DUP3 PUSH2 0x456 JUMP JUMPDEST SWAP2 SWAP1 POP JUMP JUMPDEST PUSH0 PUSH8 0xFFFFFFFFFFFFFFFF DUP3 GT ISZERO PUSH2 0x4BB JUMPI PUSH2 0x4BA PUSH2 0x429 JUMP JUMPDEST JUMPDEST PUSH2 0x4C4 DUP3 PUSH2 0x419 JUMP JUMPDEST SWAP1 POP PUSH1 0x20 DUP2 ADD SWAP1 POP SWAP2 SWAP1 POP JUMP JUMPDEST DUP3 DUP2 DUP4 CALLDATACOPY PUSH0 DUP4 DUP4 ADD MSTORE POP POP POP JUMP JUMPDEST PUSH0 PUSH2 0x4F1 PUSH2 0x4EC DUP5 PUSH2 0x4A1 JUMP JUMPDEST PUSH2 0x487 JUMP JUMPDEST SWAP1 POP DUP3 DUP2 MSTORE PUSH1 0x20 DUP2 ADD DUP5 DUP5 DUP5 ADD GT ISZERO PUSH2 0x50D JUMPI PUSH2 0x50C PUSH2 0x415 JUMP JUMPDEST JUMPDEST PUSH2 0x518 DUP5 DUP3 DUP6 PUSH2 0x4D1 JUMP JUMPDEST POP SWAP4 SWAP3 POP POP POP JUMP JUMPDEST PUSH0 DUP3 PUSH1 0x1F DUP4 ADD SLT PUSH2 0x534 JUMPI PUSH2 0x533 PUSH2 0x411 JUMP JUMPDEST JUMPDEST DUP2 CALLDATALOAD PUSH2 0x544 DUP5 DUP3 PUSH1 0x20 DUP7 ADD PUSH2 0x4DF JUMP JUMPDEST SWAP2 POP POP SWAP3 SWAP2 POP POP JUMP JUMPDEST PUSH0 DUP1 PUSH1 0x40 DUP4 DUP6 SUB SLT ISZERO PUSH2 0x563 JUMPI PUSH2 0x562 PUSH2 0x3AF JUMP JUMPDEST JUMPDEST PUSH0 PUSH2 0x570 DUP6 DUP3 DUP7 ADD PUSH2 0x3FD JUMP JUMPDEST SWAP3 POP POP PUSH1 0x20 DUP4 ADD CALLDATALOAD PUSH8 0xFFFFFFFFFFFFFFFF DUP2 GT ISZERO PUSH2 0x591 JUMPI PUSH2 0x590 PUSH2 0x3B3 JUMP JUMPDEST JUMPDEST PUSH2 0x59D DUP6 DUP3 DUP7 ADD PUSH2 0x520 JUMP JUMPDEST SWAP2 POP POP SWAP3 POP SWAP3 SWAP1 POP JUMP JUMPDEST PUSH0 DUP2 MLOAD SWAP1 POP SWAP2 SWAP1 POP JUMP JUMPDEST PUSH0 DUP3 DUP3 MSTORE PUSH1 0x20 DUP3 ADD SWAP1 POP SWAP3 SWAP2 POP POP JUMP JUMPDEST PUSH0 DUP2 SWAP1 POP PUSH1 0x20 DUP3 ADD SWAP1 POP SWAP2 SWAP1 POP JUMP JUMPDEST PUSH2 0x5D9 DUP2 PUSH2 0x3D6 JUMP JUMPDEST DUP3 MSTORE POP POP JUMP JUMPDEST PUSH0 DUP2 MLOAD SWAP1 POP SWAP2 SWAP1 POP JUMP JUMPDEST PUSH0 DUP3 DUP3 MSTORE PUSH1 0x20 DUP3 ADD SWAP1 POP SWAP3 SWAP2 POP POP JUMP JUMPDEST DUP3 DUP2 DUP4 MCOPY PUSH0 DUP4 DUP4 ADD MSTORE POP POP POP JUMP JUMPDEST PUSH0 PUSH2 0x611 DUP3 PUSH2 0x5DF JUMP JUMPDEST PUSH2 0x61B DUP2 DUP6 PUSH2 0x5E9 JUMP JUMPDEST SWAP4 POP PUSH2 0x62B DUP2 DUP6 PUSH1 0x20 DUP7 ADD PUSH2 0x5F9 JUMP JUMPDEST PUSH2 0x634 DUP2 PUSH2 0x419 JUMP JUMPDEST DUP5 ADD SWAP2 POP POP SWAP3 SWAP2 POP POP JUMP JUMPDEST PUSH0 PUSH1 0x40 DUP4 ADD PUSH0 DUP4 ADD MLOAD PUSH2 0x654 PUSH0 DUP7 ADD DUP3 PUSH2 0x5D0 JUMP JUMPDEST POP PUSH1 0x20 DUP4 ADD MLOAD DUP5 DUP3 SUB PUSH1 0x20 DUP7 ADD MSTORE PUSH2 0x66C DUP3 DUP3 PUSH2 0x607 JUMP JUMPDEST SWAP2 POP POP DUP1 SWAP2 POP POP SWAP3 SWAP2 POP POP JUMP JUMPDEST PUSH0 PUSH2 0x684 DUP4 DUP4 PUSH2 0x63F JUMP JUMPDEST SWAP1 POP SWAP3 SWAP2 POP POP JUMP JUMPDEST PUSH0 PUSH1 0x20 DUP3 ADD SWAP1 POP SWAP2 SWAP1 POP JUMP JUMPDEST PUSH0 PUSH2 0x6A2 DUP3 PUSH2 0x5A7 JUMP JUMPDEST PUSH2 0x6AC DUP2 DUP6 PUSH2 0x5B1 JUMP JUMPDEST SWAP4 POP DUP4 PUSH1 0x20 DUP3 MUL DUP6 ADD PUSH2 0x6BE DUP6 PUSH2 0x5C1 JUMP JUMPDEST DUP1 PUSH0 JUMPDEST DUP6 DUP2 LT ISZERO PUSH2 0x6F9 JUMPI DUP5 DUP5 SUB DUP10 MSTORE DUP2 MLOAD PUSH2 0x6DA DUP6 DUP3 PUSH2 0x679 JUMP JUMPDEST SWAP5 POP PUSH2 0x6E5 DUP4 PUSH2 0x68C JUMP JUMPDEST SWAP3 POP PUSH1 0x20 DUP11 ADD SWAP10 POP POP PUSH1 0x1 DUP2 ADD SWAP1 POP PUSH2 0x6C1 JUMP JUMPDEST POP DUP3 SWAP8 POP DUP8 SWAP6 POP POP POP POP POP POP SWAP3 SWAP2 POP POP JUMP JUMPDEST PUSH0 PUSH1 0x20 DUP3 ADD SWAP1 POP DUP2 DUP2 SUB PUSH0 DUP4 ADD MSTORE PUSH2 0x723 DUP2 DUP5 PUSH2 0x698 JUMP JUMPDEST SWAP1 POP SWAP3 SWAP2 POP POP JUMP JUMPDEST PUSH32 0x4E487B7100000000000000000000000000000000000000000000000000000000 PUSH0 MSTORE PUSH1 0x32 PUSH1 0x4 MSTORE PUSH1 0x24 PUSH0 REVERT JUMPDEST PUSH32 0x4E487B7100000000000000000000000000000000000000000000000000000000 PUSH0 MSTORE PUSH1 0x22 PUSH1 0x4 MSTORE PUSH1 0x24 PUSH0 REVERT JUMPDEST PUSH0 PUSH1 0x2 DUP3 DIV SWAP1 POP PUSH1 0x1 DUP3 AND DUP1 PUSH2 0x79C JUMPI PUSH1 0x7F DUP3 AND SWAP2 POP JUMPDEST PUSH1 0x20 DUP3 LT DUP2 SUB PUSH2 0x7AF JUMPI PUSH2 0x7AE PUSH2 0x758 JUMP JUMPDEST JUMPDEST POP SWAP2 SWAP1 POP JUMP JUMPDEST PUSH0 DUP2 SWAP1 POP DUP2 PUSH0 MSTORE PUSH1 0x20 PUSH0 KECCAK256 SWAP1 POP SWAP2 SWAP1 POP JUMP JUMPDEST PUSH0 PUSH1 0x20 PUSH1 0x1F DUP4 ADD DIV SWAP1 POP SWAP2 SWAP1 POP JUMP JUMPDEST PUSH0 DUP3 DUP3 SHL SWAP1 POP SWAP3 SWAP2 POP POP JUMP JUMPDEST PUSH0 PUSH1 0x8 DUP4 MUL PUSH2 0x811 PUSH32 0xFFFFFFFFFFFFFFFFFFFFFFFFFFFFFFFFFFFFFFFFFFFFFFFFFFFFFFFFFFFFFFFF DUP3 PUSH2 0x7D6 JUMP JUMPDEST PUSH2 0x81B DUP7 DUP4 PUSH2 0x7D6 JUMP JUMPDEST SWAP6 POP DUP1 NOT DUP5 AND SWAP4 POP DUP1 DUP7 AND DUP5 OR SWAP3 POP POP POP SWAP4 SWAP3 POP POP POP JUMP JUMPDEST PUSH0 DUP2 SWAP1 POP SWAP2 SWAP1 POP JUMP JUMPDEST PUSH0 PUSH2 0x856 PUSH2 0x851 PUSH2 0x84C DUP5 PUSH2 0x375 JUMP JUMPDEST PUSH2 0x833 JUMP JUMPDEST PUSH2 0x375 JUMP JUMPDEST SWAP1 POP SWAP2 SWAP1 POP JUMP JUMPDEST PUSH0 DUP2 SWAP1 POP SWAP2 SWAP1 POP JUMP JUMPDEST PUSH2 0x86F DUP4 PUSH2 0x83C JUMP JUMPDEST PUSH2 0x883 PUSH2 0x87B DUP3 PUSH2 0x85D JUMP JUMPDEST DUP5 DUP5 SLOAD PUSH2 0x7E2 JUMP JUMPDEST DUP3 SSTORE POP POP POP POP JUMP JUMPDEST PUSH0 SWAP1 JUMP JUMPDEST PUSH2 0x897 PUSH2 0x88B JUMP JUMPDEST PUSH2 0x8A2 DUP2 DUP5 DUP5 PUSH2 0x866 JUMP JUMPDEST POP POP POP JUMP JUMPDEST JUMPDEST DUP2 DUP2 LT ISZERO PUSH2 0x8C5 JUMPI PUSH2 0x8BA PUSH0 DUP3 PUSH2 0x88F JUMP JUMPDEST PUSH1 0x1 DUP2 ADD SWAP1 POP PUSH2 0x8A8 JUMP JUMPDEST POP POP JUMP JUMPDEST PUSH1 0x1F DUP3 GT ISZERO PUSH2 0x90A JUMPI PUSH2 0x8DB DUP2 PUSH2 0x7B5 JUMP JUMPDEST PUSH2 0x8E4 DUP5 PUSH2 0x7C7 JUMP JUMPDEST DUP2 ADD PUSH1 0x20 DUP6 LT ISZERO PUSH2 0x8F3 JUMPI DUP2 SWAP1 POP JUMPDEST PUSH2 0x907 PUSH2 0x8FF DUP6 PUSH2 0x7C7 JUMP JUMPDEST DUP4 ADD DUP3 PUSH2 0x8A7 JUMP JUMPDEST POP POP JUMPDEST POP POP POP JUMP JUMPDEST PUSH0 DUP3 DUP3 SHR SWAP1 POP SWAP3 SWAP2 POP POP JUMP JUMPDEST PUSH0 PUSH2 0x92A PUSH0 NOT DUP5 PUSH1 0x8 MUL PUSH2 0x90F JUMP JUMPDEST NOT DUP1 DUP4 AND SWAP2 POP POP SWAP3 SWAP2 POP POP JUMP JUMPDEST PUSH0 PUSH2 0x942 DUP4 DUP4 PUSH2 0x91B JUMP JUMPDEST SWAP2 POP DUP3 PUSH1 0x2 MUL DUP3 OR SWAP1 POP SWAP3 SWAP2 POP POP JUMP JUMPDEST PUSH2 0x95B DUP3 PUSH2 0x5DF JUMP JUMPDEST PUSH8 0xFFFFFFFFFFFFFFFF DUP2 GT ISZERO PUSH2 0x974 JUMPI PUSH2 0x973 PUSH2 0x429 JUMP JUMPDEST JUMPDEST PUSH2 0x97E DUP3 SLOAD PUSH2 0x785 JUMP JUMPDEST PUSH2 0x989 DUP3 DUP3 DUP6 PUSH2 0x8C9 JUMP JUMPDEST PUSH0 PUSH1 0x20 SWAP1 POP PUSH1 0x1F DUP4 GT PUSH1 0x1 DUP2 EQ PUSH2 0x9BA JUMPI PUSH0 DUP5 ISZERO PUSH2 0x9A8 JUMPI DUP3 DUP8 ADD MLOAD SWAP1 POP JUMPDEST PUSH2 0x9B2 DUP6 DUP3 PUSH2 0x937 JUMP JUMPDEST DUP7 SSTORE POP PUSH2 0xA19 JUMP JUMPDEST PUSH1 0x1F NOT DUP5 AND PUSH2 0x9C8 DUP7 PUSH2 0x7B5 JUMP JUMPDEST PUSH0 JUMPDEST DUP3 DUP2 LT ISZERO PUSH2 0x9EF JUMPI DUP5 DUP10 ADD MLOAD DUP3 SSTORE PUSH1 0x1 DUP3 ADD SWAP2 POP PUSH1 0x20 DUP6 ADD SWAP5 POP PUSH1 0x20 DUP2 ADD SWAP1 POP PUSH2 0x9CA JUMP JUMPDEST DUP7 DUP4 LT ISZERO PUSH2 0xA0C JUMPI DUP5 DUP10 ADD MLOAD PUSH2 0xA08 PUSH1 0x1F DUP10 AND DUP3 PUSH2 0x91B JUMP JUMPDEST DUP4 SSTORE POP JUMPDEST PUSH1 0x1 PUSH1 0x2 DUP9 MUL ADD DUP9 SSTORE POP POP POP JUMPDEST POP POP POP POP POP POP JUMP INVALID LOG2 PUSH5 0x6970667358 0x22 SLT KECCAK256 0x2E DUP4 BLOBBASEFEE JUMPDEST 0xE7 PUSH18 0xA679C94173E28516C2A718367B08E7694A10 PUSH26 0x46A4FDAF7B7E8464736F6C634300081A00330000000000000000 "
				},
				"gasEstimates": {
					"creation": {
						"codeDepositCost": "529400",
						"executionCost": "24825",
						"totalCost": "554225"
					},
					"external": {
						"addtips()": "119",
						"addwaitress(address,string)": "infinite",
						"viewWaitress()": "infinite",
						"viewtips()": "312"
					}
				},
				"methodIdentifiers": {
					"addtips()": "6e7301fd",
					"addwaitress(address,string)": "8acce972",
					"viewWaitress()": "e83a1b00",
					"viewtips()": "2a08deda"
				}
			},
			"storageLayout": {
				"storage": [
					{
						"astId": 3,
						"contract": "tips.sol:tips",
						"label": "owner",
						"offset": 0,
						"slot": "0",
						"type": "t_address"
					},
					{
						"astId": 7,
						"contract": "tips.sol:tips",
						"label": "waitress",
						"offset": 0,
						"slot": "1",
						"type": "t_array(t_struct(Waitress)37_storage)dyn_storage"
					}
				],
				"types": {
					"t_address": {
						"encoding": "inplace",
						"label": "address",
						"numberOfBytes": "20"
					},
					"t_address_payable": {
						"encoding": "inplace",
						"label": "address payable",
						"numberOfBytes": "20"
					},
					"t_array(t_struct(Waitress)37_storage)dyn_storage": {
						"base": "t_struct(Waitress)37_storage",
						"encoding": "dynamic_array",
						"label": "struct tips.Waitress[]",
						"numberOfBytes": "32"
					},
					"t_string_storage": {
						"encoding": "bytes",
						"label": "string",
						"numberOfBytes": "32"
					},
					"t_struct(Waitress)37_storage": {
						"encoding": "inplace",
						"label": "struct tips.Waitress",
						"members": [
							{
								"astId": 34,
								"contract": "tips.sol:tips",
								"label": "walletAddress",
								"offset": 0,
								"slot": "0",
								"type": "t_address_payable"
							},
							{
								"astId": 36,
								"contract": "tips.sol:tips",
								"label": "name",
								"offset": 0,
								"slot": "1",
								"type": "t_string_storage"
							}
						],
						"numberOfBytes": "64"
					}
				}
			},
			"userdoc": {
				"kind": "user",
				"methods": {},
				"version": 1
			}
		}
	}
}