{
	"Project/Project.sol": {
		"inheritance": {
			"abi": [
				{
					"inputs": [],
					"stateMutability": "nonpayable",
					"type": "constructor"
				},
				{
					"inputs": [
						{
							"internalType": "address payable",
							"name": "inheritorAddress",
							"type": "address"
						},
						{
							"internalType": "string",
							"name": "name",
							"type": "string"
						}
					],
					"name": "addInheritor",
					"outputs": [],
					"stateMutability": "nonpayable",
					"type": "function"
				},
				{
					"inputs": [],
					"name": "addtips",
					"outputs": [],
					"stateMutability": "payable",
					"type": "function"
				},
				{
					"inputs": [],
					"name": "distrubiteInheritor",
					"outputs": [],
					"stateMutability": "nonpayable",
					"type": "function"
				},
				{
					"inputs": [
						{
							"internalType": "address payable",
							"name": "inheritorAddress",
							"type": "address"
						}
					],
					"name": "removeInheritor",
					"outputs": [],
					"stateMutability": "nonpayable",
					"type": "function"
				},
				{
					"inputs": [],
					"name": "viewInheritor",
					"outputs": [
						{
							"components": [
								{
									"internalType": "address payable",
									"name": "inheritorAddress",
									"type": "address"
								},
								{
									"internalType": "string",
									"name": "name",
									"type": "string"
								}
							],
							"internalType": "struct inheritance.Inheritor[]",
							"name": "",
							"type": "tuple[]"
						}
					],
					"stateMutability": "view",
					"type": "function"
				},
				{
					"inputs": [],
					"name": "viewtips",
					"outputs": [
						{
							"internalType": "uint256",
							"name": "",
							"type": "uint256"
						}
					],
					"stateMutability": "view",
					"type": "function"
				}
			],
			"devdoc": {
				"kind": "dev",
				"methods": {},
				"version": 1
			},
			"evm": {
				"assembly": "    /* \"Project/Project.sol\":60:2463  contract inheritance { //ชื่อ... */\n  mstore(0x40, 0x80)\n    /* \"Project/Project.sol\":211:300  constructor(){ //วิ่งครั้งแรก... */\n  callvalue\n  dup1\n  iszero\n  tag_1\n  jumpi\n  0x00\n  dup1\n  revert\ntag_1:\n  pop\n    /* \"Project/Project.sol\":282:292  msg.sender */\n  caller\n    /* \"Project/Project.sol\":274:279  owner */\n  0x00\n  dup1\n    /* \"Project/Project.sol\":274:292  owner = msg.sender */\n  0x0100\n  exp\n  dup2\n  sload\n  dup2\n  0xffffffffffffffffffffffffffffffffffffffff\n  mul\n  not\n  and\n  swap1\n  dup4\n  0xffffffffffffffffffffffffffffffffffffffff\n  and\n  mul\n  or\n  swap1\n  sstore\n  pop\n    /* \"Project/Project.sol\":60:2463  contract inheritance { //ชื่อ... */\n  dataSize(sub_0)\n  dup1\n  dataOffset(sub_0)\n  0x00\n  codecopy\n  0x00\n  return\nstop\n\nsub_0: assembly {\n        /* \"Project/Project.sol\":60:2463  contract inheritance { //ชื่อ... */\n      mstore(0x40, 0x80)\n      jumpi(tag_1, lt(calldatasize, 0x04))\n      shr(0xe0, calldataload(0x00))\n      dup1\n      0x2a08deda\n      eq\n      tag_2\n      jumpi\n      dup1\n      0x5a0d854f\n      eq\n      tag_3\n      jumpi\n      dup1\n      0x69c68311\n      eq\n      tag_4\n      jumpi\n      dup1\n      0x6e7301fd\n      eq\n      tag_5\n      jumpi\n      dup1\n      0x9e36d493\n      eq\n      tag_6\n      jumpi\n      dup1\n      0xcf701f31\n      eq\n      tag_7\n      jumpi\n    tag_1:\n      0x00\n      dup1\n      revert\n        /* \"Project/Project.sol\":419:514  function viewtips() public view returns(uint){... */\n    tag_2:\n      callvalue\n      dup1\n      iszero\n      tag_8\n      jumpi\n      0x00\n      dup1\n      revert\n    tag_8:\n      pop\n      tag_9\n      tag_10\n      jump\t// in\n    tag_9:\n      mload(0x40)\n      tag_11\n      swap2\n      swap1\n      tag_12\n      jump\t// in\n    tag_11:\n      mload(0x40)\n      dup1\n      swap2\n      sub\n      swap1\n      return\n        /* \"Project/Project.sol\":1787:1886  function viewInheritor() public view returns(Inheritor[] memory) {... */\n    tag_3:\n      callvalue\n      dup1\n      iszero\n      tag_13\n      jumpi\n      0x00\n      dup1\n      revert\n    tag_13:\n      pop\n      tag_14\n      tag_15\n      jump\t// in\n    tag_14:\n      mload(0x40)\n      tag_16\n      swap2\n      swap1\n      tag_17\n      jump\t// in\n    tag_16:\n      mload(0x40)\n      dup1\n      swap2\n      sub\n      swap1\n      return\n        /* \"Project/Project.sol\":679:1228  function addInheritor(address payable inheritorAddress,string memory name) public {... */\n    tag_4:\n      callvalue\n      dup1\n      iszero\n      tag_18\n      jumpi\n      0x00\n      dup1\n      revert\n    tag_18:\n      pop\n      tag_19\n      0x04\n      dup1\n      calldatasize\n      sub\n      dup2\n      add\n      swap1\n      tag_20\n      swap2\n      swap1\n      tag_21\n      jump\t// in\n    tag_20:\n      tag_22\n      jump\t// in\n    tag_19:\n      stop\n        /* \"Project/Project.sol\":342:386  function addtips() payable public {... */\n    tag_5:\n      tag_23\n      tag_24\n      jump\t// in\n    tag_23:\n      stop\n        /* \"Project/Project.sol\":1926:2306  function distrubiteInheritor() public{... */\n    tag_6:\n      callvalue\n      dup1\n      iszero\n      tag_25\n      jumpi\n      0x00\n      dup1\n      revert\n    tag_25:\n      pop\n      tag_26\n      tag_27\n      jump\t// in\n    tag_26:\n      stop\n        /* \"Project/Project.sol\":1258:1754  function removeInheritor(address payable inheritorAddress) public{... */\n    tag_7:\n      callvalue\n      dup1\n      iszero\n      tag_28\n      jumpi\n      0x00\n      dup1\n      revert\n    tag_28:\n      pop\n      tag_29\n      0x04\n      dup1\n      calldatasize\n      sub\n      dup2\n      add\n      swap1\n      tag_30\n      swap2\n      swap1\n      tag_31\n      jump\t// in\n    tag_30:\n      tag_32\n      jump\t// in\n    tag_29:\n      stop\n        /* \"Project/Project.sol\":419:514  function viewtips() public view returns(uint){... */\n    tag_10:\n        /* \"Project/Project.sol\":459:463  uint */\n      0x00\n        /* \"Project/Project.sol\":482:503  address(this).balance */\n      selfbalance\n        /* \"Project/Project.sol\":475:503  return address(this).balance */\n      swap1\n      pop\n        /* \"Project/Project.sol\":419:514  function viewtips() public view returns(uint){... */\n      swap1\n      jump\t// out\n        /* \"Project/Project.sol\":1787:1886  function viewInheritor() public view returns(Inheritor[] memory) {... */\n    tag_15:\n        /* \"Project/Project.sol\":1832:1850  Inheritor[] memory */\n      0x60\n        /* \"Project/Project.sol\":1869:1878  inheritor */\n      0x01\n        /* \"Project/Project.sol\":1862:1878  return inheritor */\n      dup1\n      sload\n      dup1\n      0x20\n      mul\n      0x20\n      add\n      mload(0x40)\n      swap1\n      dup2\n      add\n      0x40\n      mstore\n      dup1\n      swap3\n      swap2\n      swap1\n      dup2\n      dup2\n      mstore\n      0x20\n      add\n      0x00\n      swap1\n    tag_35:\n      dup3\n      dup3\n      lt\n      iszero\n      tag_36\n      jumpi\n      dup4\n      dup3\n      swap1\n      0x00\n      mstore\n      keccak256(0x00, 0x20)\n      swap1\n      0x02\n      mul\n      add\n      mload(0x40)\n      dup1\n      0x40\n      add\n      0x40\n      mstore\n      swap1\n      dup2\n      0x00\n      dup3\n      add\n      0x00\n      swap1\n      sload\n      swap1\n      0x0100\n      exp\n      swap1\n      div\n      0xffffffffffffffffffffffffffffffffffffffff\n      and\n      0xffffffffffffffffffffffffffffffffffffffff\n      and\n      0xffffffffffffffffffffffffffffffffffffffff\n      and\n      dup2\n      mstore\n      0x20\n      add\n      0x01\n      dup3\n      add\n      dup1\n      sload\n      tag_38\n      swap1\n      tag_39\n      jump\t// in\n    tag_38:\n      dup1\n      0x1f\n      add\n      0x20\n      dup1\n      swap2\n      div\n      mul\n      0x20\n      add\n      mload(0x40)\n      swap1\n      dup2\n      add\n      0x40\n      mstore\n      dup1\n      swap3\n      swap2\n      swap1\n      dup2\n      dup2\n      mstore\n      0x20\n      add\n      dup3\n      dup1\n      sload\n      tag_40\n      swap1\n      tag_39\n      jump\t// in\n    tag_40:\n      dup1\n      iszero\n      tag_41\n      jumpi\n      dup1\n      0x1f\n      lt\n      tag_42\n      jumpi\n      0x0100\n      dup1\n      dup4\n      sload\n      div\n      mul\n      dup4\n      mstore\n      swap2\n      0x20\n      add\n      swap2\n      jump(tag_41)\n    tag_42:\n      dup3\n      add\n      swap2\n      swap1\n      0x00\n      mstore\n      keccak256(0x00, 0x20)\n      swap1\n    tag_43:\n      dup2\n      sload\n      dup2\n      mstore\n      swap1\n      0x01\n      add\n      swap1\n      0x20\n      add\n      dup1\n      dup4\n      gt\n      tag_43\n      jumpi\n      dup3\n      swap1\n      sub\n      0x1f\n      and\n      dup3\n      add\n      swap2\n    tag_41:\n      pop\n      pop\n      pop\n      pop\n      pop\n      dup2\n      mstore\n      pop\n      pop\n      dup2\n      mstore\n      0x20\n      add\n      swap1\n      0x01\n      add\n      swap1\n      jump(tag_35)\n    tag_36:\n      pop\n      pop\n      pop\n      pop\n      swap1\n      pop\n        /* \"Project/Project.sol\":1787:1886  function viewInheritor() public view returns(Inheritor[] memory) {... */\n      swap1\n      jump\t// out\n        /* \"Project/Project.sol\":679:1228  function addInheritor(address payable inheritorAddress,string memory name) public {... */\n    tag_22:\n        /* \"Project/Project.sol\":794:799  owner */\n      0x00\n      dup1\n      sload\n      swap1\n      0x0100\n      exp\n      swap1\n      div\n      0xffffffffffffffffffffffffffffffffffffffff\n      and\n        /* \"Project/Project.sol\":780:799  msg.sender == owner */\n      0xffffffffffffffffffffffffffffffffffffffff\n      and\n        /* \"Project/Project.sol\":780:790  msg.sender */\n      caller\n        /* \"Project/Project.sol\":780:799  msg.sender == owner */\n      0xffffffffffffffffffffffffffffffffffffffff\n      and\n      eq\n        /* \"Project/Project.sol\":772:841  require(msg.sender == owner, \"Only the owner can call this function\") */\n      tag_45\n      jumpi\n      mload(0x40)\n      0x08c379a000000000000000000000000000000000000000000000000000000000\n      dup2\n      mstore\n      0x04\n      add\n      tag_46\n      swap1\n      tag_47\n      jump\t// in\n    tag_46:\n      mload(0x40)\n      dup1\n      swap2\n      sub\n      swap1\n      revert\n    tag_45:\n        /* \"Project/Project.sol\":852:871  bool inheritorExist */\n      0x00\n        /* \"Project/Project.sol\":914:915  1 */\n      0x01\n        /* \"Project/Project.sol\":895:904  inheritor */\n      dup1\n        /* \"Project/Project.sol\":895:911  inheritor.length */\n      dup1\n      sload\n      swap1\n      pop\n        /* \"Project/Project.sol\":895:915  inheritor.length >=1 */\n      lt\n        /* \"Project/Project.sol\":892:1110  if(inheritor.length >=1){... */\n      tag_48\n      jumpi\n        /* \"Project/Project.sol\":932:938  uint i */\n      0x00\n        /* \"Project/Project.sol\":927:1098  for (uint i=0; i<inheritor.length; i++) {... */\n    tag_49:\n        /* \"Project/Project.sol\":944:953  inheritor */\n      0x01\n        /* \"Project/Project.sol\":944:960  inheritor.length */\n      dup1\n      sload\n      swap1\n      pop\n        /* \"Project/Project.sol\":942:943  i */\n      dup2\n        /* \"Project/Project.sol\":942:960  i<inheritor.length */\n      lt\n        /* \"Project/Project.sol\":927:1098  for (uint i=0; i<inheritor.length; i++) {... */\n      iszero\n      tag_50\n      jumpi\n        /* \"Project/Project.sol\":1017:1033  inheritorAddress */\n      dup4\n        /* \"Project/Project.sol\":984:1033  inheritor[i].inheritorAddress == inheritorAddress */\n      0xffffffffffffffffffffffffffffffffffffffff\n      and\n        /* \"Project/Project.sol\":984:993  inheritor */\n      0x01\n        /* \"Project/Project.sol\":994:995  i */\n      dup3\n        /* \"Project/Project.sol\":984:996  inheritor[i] */\n      dup2\n      sload\n      dup2\n      lt\n      tag_52\n      jumpi\n      tag_53\n      tag_54\n      jump\t// in\n    tag_53:\n    tag_52:\n      swap1\n      0x00\n      mstore\n      keccak256(0x00, 0x20)\n      swap1\n      0x02\n      mul\n      add\n        /* \"Project/Project.sol\":984:1013  inheritor[i].inheritorAddress */\n      0x00\n      add\n      0x00\n      swap1\n      sload\n      swap1\n      0x0100\n      exp\n      swap1\n      div\n      0xffffffffffffffffffffffffffffffffffffffff\n      and\n        /* \"Project/Project.sol\":984:1033  inheritor[i].inheritorAddress == inheritorAddress */\n      0xffffffffffffffffffffffffffffffffffffffff\n      and\n      sub\n        /* \"Project/Project.sol\":981:1085  if(inheritor[i].inheritorAddress == inheritorAddress){... */\n      tag_56\n      jumpi\n        /* \"Project/Project.sol\":1066:1070  true */\n      0x01\n        /* \"Project/Project.sol\":1049:1070  inheritorExist = true */\n      swap2\n      pop\n        /* \"Project/Project.sol\":981:1085  if(inheritor[i].inheritorAddress == inheritorAddress){... */\n    tag_56:\n        /* \"Project/Project.sol\":962:965  i++ */\n      dup1\n      dup1\n      0x01\n      add\n      swap2\n      pop\n      pop\n        /* \"Project/Project.sol\":927:1098  for (uint i=0; i<inheritor.length; i++) {... */\n      jump(tag_49)\n    tag_50:\n      pop\n        /* \"Project/Project.sol\":892:1110  if(inheritor.length >=1){... */\n    tag_48:\n        /* \"Project/Project.sol\":1139:1144  false */\n      0x00\n        /* \"Project/Project.sol\":1123:1144  inheritorExist==false */\n      iszero\n      iszero\n        /* \"Project/Project.sol\":1123:1137  inheritorExist */\n      dup2\n        /* \"Project/Project.sol\":1123:1144  inheritorExist==false */\n      iszero\n      iszero\n      sub\n        /* \"Project/Project.sol\":1120:1221  if(inheritorExist==false){... */\n      tag_57\n      jumpi\n        /* \"Project/Project.sol\":1159:1168  inheritor */\n      0x01\n        /* \"Project/Project.sol\":1174:1206  Inheritor(inheritorAddress,name) */\n      mload(0x40)\n      dup1\n      0x40\n      add\n      0x40\n      mstore\n      dup1\n        /* \"Project/Project.sol\":1184:1200  inheritorAddress */\n      dup6\n        /* \"Project/Project.sol\":1174:1206  Inheritor(inheritorAddress,name) */\n      0xffffffffffffffffffffffffffffffffffffffff\n      and\n      dup2\n      mstore\n      0x20\n      add\n        /* \"Project/Project.sol\":1201:1205  name */\n      dup5\n        /* \"Project/Project.sol\":1174:1206  Inheritor(inheritorAddress,name) */\n      dup2\n      mstore\n      pop\n        /* \"Project/Project.sol\":1159:1207  inheritor.push(Inheritor(inheritorAddress,name)) */\n      swap1\n      dup1\n      0x01\n      dup2\n      sload\n      add\n      dup1\n      dup3\n      sstore\n      dup1\n      swap2\n      pop\n      pop\n      0x01\n      swap1\n      sub\n      swap1\n      0x00\n      mstore\n      keccak256(0x00, 0x20)\n      swap1\n      0x02\n      mul\n      add\n      0x00\n      swap1\n      swap2\n      swap1\n      swap2\n      swap1\n      swap2\n      pop\n      0x00\n      dup3\n      add\n      mload\n      dup2\n      0x00\n      add\n      exp(0x0100, 0x00)\n      dup2\n      sload\n      dup2\n      0xffffffffffffffffffffffffffffffffffffffff\n      mul\n      not\n      and\n      swap1\n      dup4\n      0xffffffffffffffffffffffffffffffffffffffff\n      and\n      mul\n      or\n      swap1\n      sstore\n      pop\n      0x20\n      dup3\n      add\n      mload\n      dup2\n      0x01\n      add\n      swap1\n      dup2\n      tag_59\n      swap2\n      swap1\n      tag_60\n      jump\t// in\n    tag_59:\n      pop\n      pop\n      pop\n        /* \"Project/Project.sol\":1120:1221  if(inheritorExist==false){... */\n    tag_57:\n        /* \"Project/Project.sol\":761:1228  {... */\n      pop\n        /* \"Project/Project.sol\":679:1228  function addInheritor(address payable inheritorAddress,string memory name) public {... */\n      pop\n      pop\n      jump\t// out\n        /* \"Project/Project.sol\":342:386  function addtips() payable public {... */\n    tag_24:\n      jump\t// out\n        /* \"Project/Project.sol\":1926:2306  function distrubiteInheritor() public{... */\n    tag_27:\n        /* \"Project/Project.sol\":2006:2007  0 */\n      0x00\n        /* \"Project/Project.sol\":1982:2003  address(this).balance */\n      selfbalance\n        /* \"Project/Project.sol\":1982:2007  address(this).balance > 0 */\n      gt\n        /* \"Project/Project.sol\":1974:2048  require(address(this).balance > 0, \"Insufficient balance in the contract\") */\n      tag_63\n      jumpi\n      mload(0x40)\n      0x08c379a000000000000000000000000000000000000000000000000000000000\n      dup2\n      mstore\n      0x04\n      add\n      tag_64\n      swap1\n      tag_65\n      jump\t// in\n    tag_64:\n      mload(0x40)\n      dup1\n      swap2\n      sub\n      swap1\n      revert\n    tag_63:\n        /* \"Project/Project.sol\":2080:2081  1 */\n      0x01\n        /* \"Project/Project.sol\":2062:2071  inheritor */\n      dup1\n        /* \"Project/Project.sol\":2062:2078  inheritor.length */\n      dup1\n      sload\n      swap1\n      pop\n        /* \"Project/Project.sol\":2062:2081  inheritor.length>=1 */\n      lt\n        /* \"Project/Project.sol\":2059:2299  if(inheritor.length>=1){... */\n      tag_66\n      jumpi\n        /* \"Project/Project.sol\":2097:2108  uint amount */\n      0x00\n        /* \"Project/Project.sol\":2135:2144  inheritor */\n      0x01\n        /* \"Project/Project.sol\":2135:2151  inheritor.length */\n      dup1\n      sload\n      swap1\n      pop\n        /* \"Project/Project.sol\":2111:2132  address(this).balance */\n      selfbalance\n        /* \"Project/Project.sol\":2111:2151  address(this).balance / inheritor.length */\n      tag_67\n      swap2\n      swap1\n      tag_68\n      jump\t// in\n    tag_67:\n        /* \"Project/Project.sol\":2097:2151  uint amount = address(this).balance / inheritor.length */\n      swap1\n      pop\n        /* \"Project/Project.sol\":2171:2177  uint i */\n      0x00\n        /* \"Project/Project.sol\":2166:2286  for (uint i=0; i<inheritor.length; i++){... */\n    tag_69:\n        /* \"Project/Project.sol\":2183:2192  inheritor */\n      0x01\n        /* \"Project/Project.sol\":2183:2199  inheritor.length */\n      dup1\n      sload\n      swap1\n      pop\n        /* \"Project/Project.sol\":2181:2182  i */\n      dup2\n        /* \"Project/Project.sol\":2181:2199  i<inheritor.length */\n      lt\n        /* \"Project/Project.sol\":2166:2286  for (uint i=0; i<inheritor.length; i++){... */\n      iszero\n      tag_70\n      jumpi\n        /* \"Project/Project.sol\":2224:2270  transfer(inheritor[i].inheritorAddress,amount) */\n      tag_72\n        /* \"Project/Project.sol\":2233:2242  inheritor */\n      0x01\n        /* \"Project/Project.sol\":2243:2244  i */\n      dup3\n        /* \"Project/Project.sol\":2233:2245  inheritor[i] */\n      dup2\n      sload\n      dup2\n      lt\n      tag_73\n      jumpi\n      tag_74\n      tag_54\n      jump\t// in\n    tag_74:\n    tag_73:\n      swap1\n      0x00\n      mstore\n      keccak256(0x00, 0x20)\n      swap1\n      0x02\n      mul\n      add\n        /* \"Project/Project.sol\":2233:2262  inheritor[i].inheritorAddress */\n      0x00\n      add\n      0x00\n      swap1\n      sload\n      swap1\n      0x0100\n      exp\n      swap1\n      div\n      0xffffffffffffffffffffffffffffffffffffffff\n      and\n        /* \"Project/Project.sol\":2263:2269  amount */\n      dup4\n        /* \"Project/Project.sol\":2224:2232  transfer */\n      tag_76\n        /* \"Project/Project.sol\":2224:2270  transfer(inheritor[i].inheritorAddress,amount) */\n      jump\t// in\n    tag_72:\n        /* \"Project/Project.sol\":2201:2204  i++ */\n      dup1\n      dup1\n      0x01\n      add\n      swap2\n      pop\n      pop\n        /* \"Project/Project.sol\":2166:2286  for (uint i=0; i<inheritor.length; i++){... */\n      jump(tag_69)\n    tag_70:\n      pop\n        /* \"Project/Project.sol\":2082:2299  {... */\n      pop\n        /* \"Project/Project.sol\":2059:2299  if(inheritor.length>=1){... */\n    tag_66:\n        /* \"Project/Project.sol\":1926:2306  function distrubiteInheritor() public{... */\n      jump\t// out\n        /* \"Project/Project.sol\":1258:1754  function removeInheritor(address payable inheritorAddress) public{... */\n    tag_32:\n        /* \"Project/Project.sol\":1355:1356  1 */\n      0x01\n        /* \"Project/Project.sol\":1337:1346  inheritor */\n      dup1\n        /* \"Project/Project.sol\":1337:1353  inheritor.length */\n      dup1\n      sload\n      swap1\n      pop\n        /* \"Project/Project.sol\":1337:1356  inheritor.length>=1 */\n      lt\n        /* \"Project/Project.sol\":1334:1747  if(inheritor.length>=1){... */\n      tag_78\n      jumpi\n        /* \"Project/Project.sol\":1376:1382  uint i */\n      0x00\n        /* \"Project/Project.sol\":1372:1722  for(uint i=0; i<inheritor.length; i++){... */\n    tag_79:\n        /* \"Project/Project.sol\":1388:1397  inheritor */\n      0x01\n        /* \"Project/Project.sol\":1388:1404  inheritor.length */\n      dup1\n      sload\n      swap1\n      pop\n        /* \"Project/Project.sol\":1386:1387  i */\n      dup2\n        /* \"Project/Project.sol\":1386:1404  i<inheritor.length */\n      lt\n        /* \"Project/Project.sol\":1372:1722  for(uint i=0; i<inheritor.length; i++){... */\n      iszero\n      tag_80\n      jumpi\n        /* \"Project/Project.sol\":1463:1479  inheritorAddress */\n      dup2\n        /* \"Project/Project.sol\":1432:1479  inheritor[i].inheritorAddress==inheritorAddress */\n      0xffffffffffffffffffffffffffffffffffffffff\n      and\n        /* \"Project/Project.sol\":1432:1441  inheritor */\n      0x01\n        /* \"Project/Project.sol\":1442:1443  i */\n      dup3\n        /* \"Project/Project.sol\":1432:1444  inheritor[i] */\n      dup2\n      sload\n      dup2\n      lt\n      tag_82\n      jumpi\n      tag_83\n      tag_54\n      jump\t// in\n    tag_83:\n    tag_82:\n      swap1\n      0x00\n      mstore\n      keccak256(0x00, 0x20)\n      swap1\n      0x02\n      mul\n      add\n        /* \"Project/Project.sol\":1432:1461  inheritor[i].inheritorAddress */\n      0x00\n      add\n      0x00\n      swap1\n      sload\n      swap1\n      0x0100\n      exp\n      swap1\n      div\n      0xffffffffffffffffffffffffffffffffffffffff\n      and\n        /* \"Project/Project.sol\":1432:1479  inheritor[i].inheritorAddress==inheritorAddress */\n      0xffffffffffffffffffffffffffffffffffffffff\n      and\n      sub\n        /* \"Project/Project.sol\":1429:1705  if(inheritor[i].inheritorAddress==inheritorAddress){... */\n      tag_85\n      jumpi\n        /* \"Project/Project.sol\":1507:1513  uint j */\n      0x00\n        /* \"Project/Project.sol\":1514:1515  i */\n      dup2\n        /* \"Project/Project.sol\":1507:1515  uint j=i */\n      swap1\n      pop\n        /* \"Project/Project.sol\":1503:1621  for(uint j=i; j<inheritor.length-1; j++){... */\n    tag_86:\n        /* \"Project/Project.sol\":1536:1537  1 */\n      0x01\n        /* \"Project/Project.sol\":1519:1528  inheritor */\n      dup1\n        /* \"Project/Project.sol\":1519:1535  inheritor.length */\n      dup1\n      sload\n      swap1\n      pop\n        /* \"Project/Project.sol\":1519:1537  inheritor.length-1 */\n      tag_89\n      swap2\n      swap1\n      tag_90\n      jump\t// in\n    tag_89:\n        /* \"Project/Project.sol\":1517:1518  j */\n      dup2\n        /* \"Project/Project.sol\":1517:1537  j<inheritor.length-1 */\n      lt\n        /* \"Project/Project.sol\":1503:1621  for(uint j=i; j<inheritor.length-1; j++){... */\n      iszero\n      tag_87\n      jumpi\n        /* \"Project/Project.sol\":1583:1592  inheritor */\n      0x01\n        /* \"Project/Project.sol\":1595:1596  1 */\n      dup1\n        /* \"Project/Project.sol\":1593:1594  j */\n      dup3\n        /* \"Project/Project.sol\":1593:1596  j+1 */\n      tag_91\n      swap2\n      swap1\n      tag_92\n      jump\t// in\n    tag_91:\n        /* \"Project/Project.sol\":1583:1597  inheritor[j+1] */\n      dup2\n      sload\n      dup2\n      lt\n      tag_93\n      jumpi\n      tag_94\n      tag_54\n      jump\t// in\n    tag_94:\n    tag_93:\n      swap1\n      0x00\n      mstore\n      keccak256(0x00, 0x20)\n      swap1\n      0x02\n      mul\n      add\n        /* \"Project/Project.sol\":1570:1579  inheritor */\n      0x01\n        /* \"Project/Project.sol\":1580:1581  j */\n      dup3\n        /* \"Project/Project.sol\":1570:1582  inheritor[j] */\n      dup2\n      sload\n      dup2\n      lt\n      tag_96\n      jumpi\n      tag_97\n      tag_54\n      jump\t// in\n    tag_97:\n    tag_96:\n      swap1\n      0x00\n      mstore\n      keccak256(0x00, 0x20)\n      swap1\n      0x02\n      mul\n      add\n        /* \"Project/Project.sol\":1570:1597  inheritor[j]=inheritor[j+1] */\n      0x00\n      dup3\n      add\n      0x00\n      swap1\n      sload\n      swap1\n      0x0100\n      exp\n      swap1\n      div\n      0xffffffffffffffffffffffffffffffffffffffff\n      and\n      dup2\n      0x00\n      add\n      exp(0x0100, 0x00)\n      dup2\n      sload\n      dup2\n      0xffffffffffffffffffffffffffffffffffffffff\n      mul\n      not\n      and\n      swap1\n      dup4\n      0xffffffffffffffffffffffffffffffffffffffff\n      and\n      mul\n      or\n      swap1\n      sstore\n      pop\n      0x01\n      dup3\n      add\n      dup2\n      0x01\n      add\n      swap1\n      dup2\n      tag_99\n      swap2\n      swap1\n      tag_100\n      jump\t// in\n    tag_99:\n      pop\n      swap1\n      pop\n      pop\n        /* \"Project/Project.sol\":1539:1542  j++ */\n      dup1\n      dup1\n      0x01\n      add\n      swap2\n      pop\n      pop\n        /* \"Project/Project.sol\":1503:1621  for(uint j=i; j<inheritor.length-1; j++){... */\n      jump(tag_86)\n    tag_87:\n      pop\n        /* \"Project/Project.sol\":1642:1651  inheritor */\n      0x01\n        /* \"Project/Project.sol\":1642:1657  inheritor.pop() */\n      dup1\n      sload\n      dup1\n      tag_101\n      jumpi\n      tag_102\n      tag_103\n      jump\t// in\n    tag_102:\n    tag_101:\n      0x01\n      swap1\n      sub\n      dup2\n      dup2\n      swap1\n      0x00\n      mstore\n      keccak256(0x00, 0x20)\n      swap1\n      0x02\n      mul\n      add\n      0x00\n      dup1\n      dup3\n      add\n      exp(0x0100, 0x00)\n      dup2\n      sload\n      swap1\n      0xffffffffffffffffffffffffffffffffffffffff\n      mul\n      not\n      and\n      swap1\n      sstore\n      0x01\n      dup3\n      add\n      0x00\n      tag_105\n      swap2\n      swap1\n      tag_106\n      jump\t// in\n    tag_105:\n      pop\n      pop\n      swap1\n      sstore\n        /* \"Project/Project.sol\":1680:1685  break */\n      jump(tag_80)\n        /* \"Project/Project.sol\":1429:1705  if(inheritor[i].inheritorAddress==inheritorAddress){... */\n    tag_85:\n        /* \"Project/Project.sol\":1406:1409  i++ */\n      dup1\n      dup1\n      0x01\n      add\n      swap2\n      pop\n      pop\n        /* \"Project/Project.sol\":1372:1722  for(uint i=0; i<inheritor.length; i++){... */\n      jump(tag_79)\n    tag_80:\n      pop\n        /* \"Project/Project.sol\":1334:1747  if(inheritor.length>=1){... */\n    tag_78:\n        /* \"Project/Project.sol\":1258:1754  function removeInheritor(address payable inheritorAddress) public{... */\n      pop\n      jump\t// out\n        /* \"Project/Project.sol\":2334:2458  function transfer(address payable inheritorAddress,uint amount) internal{... */\n    tag_76:\n        /* \"Project/Project.sol\":2417:2433  inheritorAddress */\n      dup2\n        /* \"Project/Project.sol\":2417:2442  inheritorAddress.transfer */\n      0xffffffffffffffffffffffffffffffffffffffff\n      and\n        /* \"Project/Project.sol\":2417:2450  inheritorAddress.transfer(amount) */\n      0x08fc\n        /* \"Project/Project.sol\":2443:2449  amount */\n      dup3\n        /* \"Project/Project.sol\":2417:2450  inheritorAddress.transfer(amount) */\n      swap1\n      dup2\n      iszero\n      mul\n      swap1\n      mload(0x40)\n      0x00\n      mload(0x40)\n      dup1\n      dup4\n      sub\n      dup2\n      dup6\n      dup9\n      dup9\n      call\n      swap4\n      pop\n      pop\n      pop\n      pop\n      iszero\n      dup1\n      iszero\n      tag_109\n      jumpi\n      returndatasize\n      0x00\n      dup1\n      returndatacopy\n      revert(0x00, returndatasize)\n    tag_109:\n      pop\n        /* \"Project/Project.sol\":2334:2458  function transfer(address payable inheritorAddress,uint amount) internal{... */\n      pop\n      pop\n      jump\t// out\n    tag_106:\n      pop\n      dup1\n      sload\n      tag_110\n      swap1\n      tag_39\n      jump\t// in\n    tag_110:\n      0x00\n      dup3\n      sstore\n      dup1\n      0x1f\n      lt\n      tag_112\n      jumpi\n      pop\n      jump(tag_111)\n    tag_112:\n      0x1f\n      add\n      0x20\n      swap1\n      div\n      swap1\n      0x00\n      mstore\n      keccak256(0x00, 0x20)\n      swap1\n      dup2\n      add\n      swap1\n      tag_113\n      swap2\n      swap1\n      tag_114\n      jump\t// in\n    tag_113:\n    tag_111:\n      pop\n      jump\t// out\n    tag_114:\n    tag_115:\n      dup1\n      dup3\n      gt\n      iszero\n      tag_116\n      jumpi\n      0x00\n      dup2\n      0x00\n      swap1\n      sstore\n      pop\n      0x01\n      add\n      jump(tag_115)\n    tag_116:\n      pop\n      swap1\n      jump\t// out\n        /* \"#utility.yul\":7:84   */\n    tag_117:\n        /* \"#utility.yul\":44:51   */\n      0x00\n        /* \"#utility.yul\":73:78   */\n      dup2\n        /* \"#utility.yul\":62:78   */\n      swap1\n      pop\n        /* \"#utility.yul\":7:84   */\n      swap2\n      swap1\n      pop\n      jump\t// out\n        /* \"#utility.yul\":90:208   */\n    tag_118:\n        /* \"#utility.yul\":177:201   */\n      tag_175\n        /* \"#utility.yul\":195:200   */\n      dup2\n        /* \"#utility.yul\":177:201   */\n      tag_117\n      jump\t// in\n    tag_175:\n        /* \"#utility.yul\":172:175   */\n      dup3\n        /* \"#utility.yul\":165:202   */\n      mstore\n        /* \"#utility.yul\":90:208   */\n      pop\n      pop\n      jump\t// out\n        /* \"#utility.yul\":214:436   */\n    tag_12:\n        /* \"#utility.yul\":307:311   */\n      0x00\n        /* \"#utility.yul\":345:347   */\n      0x20\n        /* \"#utility.yul\":334:343   */\n      dup3\n        /* \"#utility.yul\":330:348   */\n      add\n        /* \"#utility.yul\":322:348   */\n      swap1\n      pop\n        /* \"#utility.yul\":358:429   */\n      tag_177\n        /* \"#utility.yul\":426:427   */\n      0x00\n        /* \"#utility.yul\":415:424   */\n      dup4\n        /* \"#utility.yul\":411:428   */\n      add\n        /* \"#utility.yul\":402:408   */\n      dup5\n        /* \"#utility.yul\":358:429   */\n      tag_118\n      jump\t// in\n    tag_177:\n        /* \"#utility.yul\":214:436   */\n      swap3\n      swap2\n      pop\n      pop\n      jump\t// out\n        /* \"#utility.yul\":442:581   */\n    tag_119:\n        /* \"#utility.yul\":534:540   */\n      0x00\n        /* \"#utility.yul\":568:573   */\n      dup2\n        /* \"#utility.yul\":562:574   */\n      mload\n        /* \"#utility.yul\":552:574   */\n      swap1\n      pop\n        /* \"#utility.yul\":442:581   */\n      swap2\n      swap1\n      pop\n      jump\t// out\n        /* \"#utility.yul\":587:796   */\n    tag_120:\n        /* \"#utility.yul\":711:722   */\n      0x00\n        /* \"#utility.yul\":745:751   */\n      dup3\n        /* \"#utility.yul\":740:743   */\n      dup3\n        /* \"#utility.yul\":733:752   */\n      mstore\n        /* \"#utility.yul\":785:789   */\n      0x20\n        /* \"#utility.yul\":780:783   */\n      dup3\n        /* \"#utility.yul\":776:790   */\n      add\n        /* \"#utility.yul\":761:790   */\n      swap1\n      pop\n        /* \"#utility.yul\":587:796   */\n      swap3\n      swap2\n      pop\n      pop\n      jump\t// out\n        /* \"#utility.yul\":802:959   */\n    tag_121:\n        /* \"#utility.yul\":894:898   */\n      0x00\n        /* \"#utility.yul\":917:920   */\n      dup2\n        /* \"#utility.yul\":909:920   */\n      swap1\n      pop\n        /* \"#utility.yul\":947:951   */\n      0x20\n        /* \"#utility.yul\":942:945   */\n      dup3\n        /* \"#utility.yul\":938:952   */\n      add\n        /* \"#utility.yul\":930:952   */\n      swap1\n      pop\n        /* \"#utility.yul\":802:959   */\n      swap2\n      swap1\n      pop\n      jump\t// out\n        /* \"#utility.yul\":965:1091   */\n    tag_122:\n        /* \"#utility.yul\":1002:1009   */\n      0x00\n        /* \"#utility.yul\":1042:1084   */\n      0xffffffffffffffffffffffffffffffffffffffff\n        /* \"#utility.yul\":1035:1040   */\n      dup3\n        /* \"#utility.yul\":1031:1085   */\n      and\n        /* \"#utility.yul\":1020:1085   */\n      swap1\n      pop\n        /* \"#utility.yul\":965:1091   */\n      swap2\n      swap1\n      pop\n      jump\t// out\n        /* \"#utility.yul\":1097:1201   */\n    tag_123:\n        /* \"#utility.yul\":1142:1149   */\n      0x00\n        /* \"#utility.yul\":1171:1195   */\n      tag_183\n        /* \"#utility.yul\":1189:1194   */\n      dup3\n        /* \"#utility.yul\":1171:1195   */\n      tag_122\n      jump\t// in\n    tag_183:\n        /* \"#utility.yul\":1160:1195   */\n      swap1\n      pop\n        /* \"#utility.yul\":1097:1201   */\n      swap2\n      swap1\n      pop\n      jump\t// out\n        /* \"#utility.yul\":1207:1339   */\n    tag_124:\n        /* \"#utility.yul\":1300:1332   */\n      tag_185\n        /* \"#utility.yul\":1326:1331   */\n      dup2\n        /* \"#utility.yul\":1300:1332   */\n      tag_123\n      jump\t// in\n    tag_185:\n        /* \"#utility.yul\":1295:1298   */\n      dup3\n        /* \"#utility.yul\":1288:1333   */\n      mstore\n        /* \"#utility.yul\":1207:1339   */\n      pop\n      pop\n      jump\t// out\n        /* \"#utility.yul\":1345:1444   */\n    tag_125:\n        /* \"#utility.yul\":1397:1403   */\n      0x00\n        /* \"#utility.yul\":1431:1436   */\n      dup2\n        /* \"#utility.yul\":1425:1437   */\n      mload\n        /* \"#utility.yul\":1415:1437   */\n      swap1\n      pop\n        /* \"#utility.yul\":1345:1444   */\n      swap2\n      swap1\n      pop\n      jump\t// out\n        /* \"#utility.yul\":1450:1609   */\n    tag_126:\n        /* \"#utility.yul\":1524:1535   */\n      0x00\n        /* \"#utility.yul\":1558:1564   */\n      dup3\n        /* \"#utility.yul\":1553:1556   */\n      dup3\n        /* \"#utility.yul\":1546:1565   */\n      mstore\n        /* \"#utility.yul\":1598:1602   */\n      0x20\n        /* \"#utility.yul\":1593:1596   */\n      dup3\n        /* \"#utility.yul\":1589:1603   */\n      add\n        /* \"#utility.yul\":1574:1603   */\n      swap1\n      pop\n        /* \"#utility.yul\":1450:1609   */\n      swap3\n      swap2\n      pop\n      pop\n      jump\t// out\n        /* \"#utility.yul\":1615:1754   */\n    tag_127:\n        /* \"#utility.yul\":1704:1710   */\n      dup3\n        /* \"#utility.yul\":1699:1702   */\n      dup2\n        /* \"#utility.yul\":1694:1697   */\n      dup4\n        /* \"#utility.yul\":1688:1711   */\n      mcopy\n        /* \"#utility.yul\":1745:1746   */\n      0x00\n        /* \"#utility.yul\":1736:1742   */\n      dup4\n        /* \"#utility.yul\":1731:1734   */\n      dup4\n        /* \"#utility.yul\":1727:1743   */\n      add\n        /* \"#utility.yul\":1720:1747   */\n      mstore\n        /* \"#utility.yul\":1615:1754   */\n      pop\n      pop\n      pop\n      jump\t// out\n        /* \"#utility.yul\":1760:1862   */\n    tag_128:\n        /* \"#utility.yul\":1801:1807   */\n      0x00\n        /* \"#utility.yul\":1852:1854   */\n      0x1f\n        /* \"#utility.yul\":1848:1855   */\n      not\n        /* \"#utility.yul\":1843:1845   */\n      0x1f\n        /* \"#utility.yul\":1836:1841   */\n      dup4\n        /* \"#utility.yul\":1832:1846   */\n      add\n        /* \"#utility.yul\":1828:1856   */\n      and\n        /* \"#utility.yul\":1818:1856   */\n      swap1\n      pop\n        /* \"#utility.yul\":1760:1862   */\n      swap2\n      swap1\n      pop\n      jump\t// out\n        /* \"#utility.yul\":1868:2225   */\n    tag_129:\n        /* \"#utility.yul\":1946:1949   */\n      0x00\n        /* \"#utility.yul\":1974:2013   */\n      tag_191\n        /* \"#utility.yul\":2007:2012   */\n      dup3\n        /* \"#utility.yul\":1974:2013   */\n      tag_125\n      jump\t// in\n    tag_191:\n        /* \"#utility.yul\":2029:2090   */\n      tag_192\n        /* \"#utility.yul\":2083:2089   */\n      dup2\n        /* \"#utility.yul\":2078:2081   */\n      dup6\n        /* \"#utility.yul\":2029:2090   */\n      tag_126\n      jump\t// in\n    tag_192:\n        /* \"#utility.yul\":2022:2090   */\n      swap4\n      pop\n        /* \"#utility.yul\":2099:2164   */\n      tag_193\n        /* \"#utility.yul\":2157:2163   */\n      dup2\n        /* \"#utility.yul\":2152:2155   */\n      dup6\n        /* \"#utility.yul\":2145:2149   */\n      0x20\n        /* \"#utility.yul\":2138:2143   */\n      dup7\n        /* \"#utility.yul\":2134:2150   */\n      add\n        /* \"#utility.yul\":2099:2164   */\n      tag_127\n      jump\t// in\n    tag_193:\n        /* \"#utility.yul\":2189:2218   */\n      tag_194\n        /* \"#utility.yul\":2211:2217   */\n      dup2\n        /* \"#utility.yul\":2189:2218   */\n      tag_128\n      jump\t// in\n    tag_194:\n        /* \"#utility.yul\":2184:2187   */\n      dup5\n        /* \"#utility.yul\":2180:2219   */\n      add\n        /* \"#utility.yul\":2173:2219   */\n      swap2\n      pop\n        /* \"#utility.yul\":1950:2225   */\n      pop\n        /* \"#utility.yul\":1868:2225   */\n      swap3\n      swap2\n      pop\n      pop\n      jump\t// out\n        /* \"#utility.yul\":2299:2923   */\n    tag_130:\n        /* \"#utility.yul\":2408:2411   */\n      0x00\n        /* \"#utility.yul\":2444:2448   */\n      0x40\n        /* \"#utility.yul\":2439:2442   */\n      dup4\n        /* \"#utility.yul\":2435:2449   */\n      add\n        /* \"#utility.yul\":2543:2547   */\n      0x00\n        /* \"#utility.yul\":2536:2541   */\n      dup4\n        /* \"#utility.yul\":2532:2548   */\n      add\n        /* \"#utility.yul\":2526:2549   */\n      mload\n        /* \"#utility.yul\":2562:2641   */\n      tag_196\n        /* \"#utility.yul\":2635:2639   */\n      0x00\n        /* \"#utility.yul\":2630:2633   */\n      dup7\n        /* \"#utility.yul\":2626:2640   */\n      add\n        /* \"#utility.yul\":2612:2624   */\n      dup3\n        /* \"#utility.yul\":2562:2641   */\n      tag_124\n      jump\t// in\n    tag_196:\n        /* \"#utility.yul\":2459:2651   */\n      pop\n        /* \"#utility.yul\":2733:2737   */\n      0x20\n        /* \"#utility.yul\":2726:2731   */\n      dup4\n        /* \"#utility.yul\":2722:2738   */\n      add\n        /* \"#utility.yul\":2716:2739   */\n      mload\n        /* \"#utility.yul\":2786:2789   */\n      dup5\n        /* \"#utility.yul\":2780:2784   */\n      dup3\n        /* \"#utility.yul\":2776:2790   */\n      sub\n        /* \"#utility.yul\":2769:2773   */\n      0x20\n        /* \"#utility.yul\":2764:2767   */\n      dup7\n        /* \"#utility.yul\":2760:2774   */\n      add\n        /* \"#utility.yul\":2753:2791   */\n      mstore\n        /* \"#utility.yul\":2812:2885   */\n      tag_197\n        /* \"#utility.yul\":2880:2884   */\n      dup3\n        /* \"#utility.yul\":2866:2878   */\n      dup3\n        /* \"#utility.yul\":2812:2885   */\n      tag_129\n      jump\t// in\n    tag_197:\n        /* \"#utility.yul\":2804:2885   */\n      swap2\n      pop\n        /* \"#utility.yul\":2661:2896   */\n      pop\n        /* \"#utility.yul\":2913:2917   */\n      dup1\n        /* \"#utility.yul\":2906:2917   */\n      swap2\n      pop\n        /* \"#utility.yul\":2413:2923   */\n      pop\n        /* \"#utility.yul\":2299:2923   */\n      swap3\n      swap2\n      pop\n      pop\n      jump\t// out\n        /* \"#utility.yul\":2929:3185   */\n    tag_131:\n        /* \"#utility.yul\":3048:3058   */\n      0x00\n        /* \"#utility.yul\":3083:3179   */\n      tag_199\n        /* \"#utility.yul\":3175:3178   */\n      dup4\n        /* \"#utility.yul\":3167:3173   */\n      dup4\n        /* \"#utility.yul\":3083:3179   */\n      tag_130\n      jump\t// in\n    tag_199:\n        /* \"#utility.yul\":3069:3179   */\n      swap1\n      pop\n        /* \"#utility.yul\":2929:3185   */\n      swap3\n      swap2\n      pop\n      pop\n      jump\t// out\n        /* \"#utility.yul\":3191:3329   */\n    tag_132:\n        /* \"#utility.yul\":3286:3290   */\n      0x00\n        /* \"#utility.yul\":3318:3322   */\n      0x20\n        /* \"#utility.yul\":3313:3316   */\n      dup3\n        /* \"#utility.yul\":3309:3323   */\n      add\n        /* \"#utility.yul\":3301:3323   */\n      swap1\n      pop\n        /* \"#utility.yul\":3191:3329   */\n      swap2\n      swap1\n      pop\n      jump\t// out\n        /* \"#utility.yul\":3407:4518   */\n    tag_133:\n        /* \"#utility.yul\":3576:3579   */\n      0x00\n        /* \"#utility.yul\":3605:3684   */\n      tag_202\n        /* \"#utility.yul\":3678:3683   */\n      dup3\n        /* \"#utility.yul\":3605:3684   */\n      tag_119\n      jump\t// in\n    tag_202:\n        /* \"#utility.yul\":3700:3811   */\n      tag_203\n        /* \"#utility.yul\":3804:3810   */\n      dup2\n        /* \"#utility.yul\":3799:3802   */\n      dup6\n        /* \"#utility.yul\":3700:3811   */\n      tag_120\n      jump\t// in\n    tag_203:\n        /* \"#utility.yul\":3693:3811   */\n      swap4\n      pop\n        /* \"#utility.yul\":3837:3840   */\n      dup4\n        /* \"#utility.yul\":3882:3886   */\n      0x20\n        /* \"#utility.yul\":3874:3880   */\n      dup3\n        /* \"#utility.yul\":3870:3887   */\n      mul\n        /* \"#utility.yul\":3865:3868   */\n      dup6\n        /* \"#utility.yul\":3861:3888   */\n      add\n        /* \"#utility.yul\":3912:3993   */\n      tag_204\n        /* \"#utility.yul\":3987:3992   */\n      dup6\n        /* \"#utility.yul\":3912:3993   */\n      tag_121\n      jump\t// in\n    tag_204:\n        /* \"#utility.yul\":4016:4023   */\n      dup1\n        /* \"#utility.yul\":4047:4048   */\n      0x00\n        /* \"#utility.yul\":4032:4473   */\n    tag_205:\n        /* \"#utility.yul\":4057:4063   */\n      dup6\n        /* \"#utility.yul\":4054:4055   */\n      dup2\n        /* \"#utility.yul\":4051:4064   */\n      lt\n        /* \"#utility.yul\":4032:4473   */\n      iszero\n      tag_207\n      jumpi\n        /* \"#utility.yul\":4128:4137   */\n      dup5\n        /* \"#utility.yul\":4122:4126   */\n      dup5\n        /* \"#utility.yul\":4118:4138   */\n      sub\n        /* \"#utility.yul\":4113:4116   */\n      dup10\n        /* \"#utility.yul\":4106:4139   */\n      mstore\n        /* \"#utility.yul\":4179:4185   */\n      dup2\n        /* \"#utility.yul\":4173:4186   */\n      mload\n        /* \"#utility.yul\":4207:4321   */\n      tag_208\n        /* \"#utility.yul\":4316:4320   */\n      dup6\n        /* \"#utility.yul\":4301:4314   */\n      dup3\n        /* \"#utility.yul\":4207:4321   */\n      tag_131\n      jump\t// in\n    tag_208:\n        /* \"#utility.yul\":4199:4321   */\n      swap5\n      pop\n        /* \"#utility.yul\":4344:4429   */\n      tag_209\n        /* \"#utility.yul\":4422:4428   */\n      dup4\n        /* \"#utility.yul\":4344:4429   */\n      tag_132\n      jump\t// in\n    tag_209:\n        /* \"#utility.yul\":4334:4429   */\n      swap3\n      pop\n        /* \"#utility.yul\":4458:4462   */\n      0x20\n        /* \"#utility.yul\":4453:4456   */\n      dup11\n        /* \"#utility.yul\":4449:4463   */\n      add\n        /* \"#utility.yul\":4442:4463   */\n      swap10\n      pop\n        /* \"#utility.yul\":4092:4473   */\n      pop\n        /* \"#utility.yul\":4079:4080   */\n      0x01\n        /* \"#utility.yul\":4076:4077   */\n      dup2\n        /* \"#utility.yul\":4072:4081   */\n      add\n        /* \"#utility.yul\":4067:4081   */\n      swap1\n      pop\n        /* \"#utility.yul\":4032:4473   */\n      jump(tag_205)\n    tag_207:\n        /* \"#utility.yul\":4036:4050   */\n      pop\n        /* \"#utility.yul\":4489:4493   */\n      dup3\n        /* \"#utility.yul\":4482:4493   */\n      swap8\n      pop\n        /* \"#utility.yul\":4509:4512   */\n      dup8\n        /* \"#utility.yul\":4502:4512   */\n      swap6\n      pop\n        /* \"#utility.yul\":3581:4518   */\n      pop\n      pop\n      pop\n      pop\n      pop\n        /* \"#utility.yul\":3407:4518   */\n      swap3\n      swap2\n      pop\n      pop\n      jump\t// out\n        /* \"#utility.yul\":4524:4997   */\n    tag_17:\n        /* \"#utility.yul\":4717:4721   */\n      0x00\n        /* \"#utility.yul\":4755:4757   */\n      0x20\n        /* \"#utility.yul\":4744:4753   */\n      dup3\n        /* \"#utility.yul\":4740:4758   */\n      add\n        /* \"#utility.yul\":4732:4758   */\n      swap1\n      pop\n        /* \"#utility.yul\":4804:4813   */\n      dup2\n        /* \"#utility.yul\":4798:4802   */\n      dup2\n        /* \"#utility.yul\":4794:4814   */\n      sub\n        /* \"#utility.yul\":4790:4791   */\n      0x00\n        /* \"#utility.yul\":4779:4788   */\n      dup4\n        /* \"#utility.yul\":4775:4792   */\n      add\n        /* \"#utility.yul\":4768:4815   */\n      mstore\n        /* \"#utility.yul\":4832:4990   */\n      tag_211\n        /* \"#utility.yul\":4985:4989   */\n      dup2\n        /* \"#utility.yul\":4976:4982   */\n      dup5\n        /* \"#utility.yul\":4832:4990   */\n      tag_133\n      jump\t// in\n    tag_211:\n        /* \"#utility.yul\":4824:4990   */\n      swap1\n      pop\n        /* \"#utility.yul\":4524:4997   */\n      swap3\n      swap2\n      pop\n      pop\n      jump\t// out\n        /* \"#utility.yul\":5003:5078   */\n    tag_134:\n        /* \"#utility.yul\":5036:5042   */\n      0x00\n        /* \"#utility.yul\":5069:5071   */\n      0x40\n        /* \"#utility.yul\":5063:5072   */\n      mload\n        /* \"#utility.yul\":5053:5072   */\n      swap1\n      pop\n        /* \"#utility.yul\":5003:5078   */\n      swap1\n      jump\t// out\n        /* \"#utility.yul\":5084:5201   */\n    tag_135:\n        /* \"#utility.yul\":5193:5194   */\n      0x00\n        /* \"#utility.yul\":5190:5191   */\n      dup1\n        /* \"#utility.yul\":5183:5195   */\n      revert\n        /* \"#utility.yul\":5207:5324   */\n    tag_136:\n        /* \"#utility.yul\":5316:5317   */\n      0x00\n        /* \"#utility.yul\":5313:5314   */\n      dup1\n        /* \"#utility.yul\":5306:5318   */\n      revert\n        /* \"#utility.yul\":5330:5468   */\n    tag_137:\n        /* \"#utility.yul\":5411:5443   */\n      tag_216\n        /* \"#utility.yul\":5437:5442   */\n      dup2\n        /* \"#utility.yul\":5411:5443   */\n      tag_123\n      jump\t// in\n    tag_216:\n        /* \"#utility.yul\":5404:5409   */\n      dup2\n        /* \"#utility.yul\":5401:5444   */\n      eq\n        /* \"#utility.yul\":5391:5462   */\n      tag_217\n      jumpi\n        /* \"#utility.yul\":5458:5459   */\n      0x00\n        /* \"#utility.yul\":5455:5456   */\n      dup1\n        /* \"#utility.yul\":5448:5460   */\n      revert\n        /* \"#utility.yul\":5391:5462   */\n    tag_217:\n        /* \"#utility.yul\":5330:5468   */\n      pop\n      jump\t// out\n        /* \"#utility.yul\":5474:5629   */\n    tag_138:\n        /* \"#utility.yul\":5528:5533   */\n      0x00\n        /* \"#utility.yul\":5566:5572   */\n      dup2\n        /* \"#utility.yul\":5553:5573   */\n      calldataload\n        /* \"#utility.yul\":5544:5573   */\n      swap1\n      pop\n        /* \"#utility.yul\":5582:5623   */\n      tag_219\n        /* \"#utility.yul\":5617:5622   */\n      dup2\n        /* \"#utility.yul\":5582:5623   */\n      tag_137\n      jump\t// in\n    tag_219:\n        /* \"#utility.yul\":5474:5629   */\n      swap3\n      swap2\n      pop\n      pop\n      jump\t// out\n        /* \"#utility.yul\":5635:5752   */\n    tag_139:\n        /* \"#utility.yul\":5744:5745   */\n      0x00\n        /* \"#utility.yul\":5741:5742   */\n      dup1\n        /* \"#utility.yul\":5734:5746   */\n      revert\n        /* \"#utility.yul\":5758:5875   */\n    tag_140:\n        /* \"#utility.yul\":5867:5868   */\n      0x00\n        /* \"#utility.yul\":5864:5865   */\n      dup1\n        /* \"#utility.yul\":5857:5869   */\n      revert\n        /* \"#utility.yul\":5881:6061   */\n    tag_141:\n        /* \"#utility.yul\":5929:6006   */\n      0x4e487b7100000000000000000000000000000000000000000000000000000000\n        /* \"#utility.yul\":5926:5927   */\n      0x00\n        /* \"#utility.yul\":5919:6007   */\n      mstore\n        /* \"#utility.yul\":6026:6030   */\n      0x41\n        /* \"#utility.yul\":6023:6024   */\n      0x04\n        /* \"#utility.yul\":6016:6031   */\n      mstore\n        /* \"#utility.yul\":6050:6054   */\n      0x24\n        /* \"#utility.yul\":6047:6048   */\n      0x00\n        /* \"#utility.yul\":6040:6055   */\n      revert\n        /* \"#utility.yul\":6067:6348   */\n    tag_142:\n        /* \"#utility.yul\":6150:6177   */\n      tag_224\n        /* \"#utility.yul\":6172:6176   */\n      dup3\n        /* \"#utility.yul\":6150:6177   */\n      tag_128\n      jump\t// in\n    tag_224:\n        /* \"#utility.yul\":6142:6148   */\n      dup2\n        /* \"#utility.yul\":6138:6178   */\n      add\n        /* \"#utility.yul\":6280:6286   */\n      dup2\n        /* \"#utility.yul\":6268:6278   */\n      dup2\n        /* \"#utility.yul\":6265:6287   */\n      lt\n        /* \"#utility.yul\":6244:6262   */\n      0xffffffffffffffff\n        /* \"#utility.yul\":6232:6242   */\n      dup3\n        /* \"#utility.yul\":6229:6263   */\n      gt\n        /* \"#utility.yul\":6226:6288   */\n      or\n        /* \"#utility.yul\":6223:6311   */\n      iszero\n      tag_225\n      jumpi\n        /* \"#utility.yul\":6291:6309   */\n      tag_226\n      tag_141\n      jump\t// in\n    tag_226:\n        /* \"#utility.yul\":6223:6311   */\n    tag_225:\n        /* \"#utility.yul\":6331:6341   */\n      dup1\n        /* \"#utility.yul\":6327:6329   */\n      0x40\n        /* \"#utility.yul\":6320:6342   */\n      mstore\n        /* \"#utility.yul\":6110:6348   */\n      pop\n        /* \"#utility.yul\":6067:6348   */\n      pop\n      pop\n      jump\t// out\n        /* \"#utility.yul\":6354:6483   */\n    tag_143:\n        /* \"#utility.yul\":6388:6394   */\n      0x00\n        /* \"#utility.yul\":6415:6435   */\n      tag_228\n      tag_134\n      jump\t// in\n    tag_228:\n        /* \"#utility.yul\":6405:6435   */\n      swap1\n      pop\n        /* \"#utility.yul\":6444:6477   */\n      tag_229\n        /* \"#utility.yul\":6472:6476   */\n      dup3\n        /* \"#utility.yul\":6464:6470   */\n      dup3\n        /* \"#utility.yul\":6444:6477   */\n      tag_142\n      jump\t// in\n    tag_229:\n        /* \"#utility.yul\":6354:6483   */\n      swap2\n      swap1\n      pop\n      jump\t// out\n        /* \"#utility.yul\":6489:6797   */\n    tag_144:\n        /* \"#utility.yul\":6551:6555   */\n      0x00\n        /* \"#utility.yul\":6641:6659   */\n      0xffffffffffffffff\n        /* \"#utility.yul\":6633:6639   */\n      dup3\n        /* \"#utility.yul\":6630:6660   */\n      gt\n        /* \"#utility.yul\":6627:6683   */\n      iszero\n      tag_231\n      jumpi\n        /* \"#utility.yul\":6663:6681   */\n      tag_232\n      tag_141\n      jump\t// in\n    tag_232:\n        /* \"#utility.yul\":6627:6683   */\n    tag_231:\n        /* \"#utility.yul\":6701:6730   */\n      tag_233\n        /* \"#utility.yul\":6723:6729   */\n      dup3\n        /* \"#utility.yul\":6701:6730   */\n      tag_128\n      jump\t// in\n    tag_233:\n        /* \"#utility.yul\":6693:6730   */\n      swap1\n      pop\n        /* \"#utility.yul\":6785:6789   */\n      0x20\n        /* \"#utility.yul\":6779:6783   */\n      dup2\n        /* \"#utility.yul\":6775:6790   */\n      add\n        /* \"#utility.yul\":6767:6790   */\n      swap1\n      pop\n        /* \"#utility.yul\":6489:6797   */\n      swap2\n      swap1\n      pop\n      jump\t// out\n        /* \"#utility.yul\":6803:6951   */\n    tag_145:\n        /* \"#utility.yul\":6901:6907   */\n      dup3\n        /* \"#utility.yul\":6896:6899   */\n      dup2\n        /* \"#utility.yul\":6891:6894   */\n      dup4\n        /* \"#utility.yul\":6878:6908   */\n      calldatacopy\n        /* \"#utility.yul\":6942:6943   */\n      0x00\n        /* \"#utility.yul\":6933:6939   */\n      dup4\n        /* \"#utility.yul\":6928:6931   */\n      dup4\n        /* \"#utility.yul\":6924:6940   */\n      add\n        /* \"#utility.yul\":6917:6944   */\n      mstore\n        /* \"#utility.yul\":6803:6951   */\n      pop\n      pop\n      pop\n      jump\t// out\n        /* \"#utility.yul\":6957:7382   */\n    tag_146:\n        /* \"#utility.yul\":7035:7040   */\n      0x00\n        /* \"#utility.yul\":7060:7126   */\n      tag_236\n        /* \"#utility.yul\":7076:7125   */\n      tag_237\n        /* \"#utility.yul\":7118:7124   */\n      dup5\n        /* \"#utility.yul\":7076:7125   */\n      tag_144\n      jump\t// in\n    tag_237:\n        /* \"#utility.yul\":7060:7126   */\n      tag_143\n      jump\t// in\n    tag_236:\n        /* \"#utility.yul\":7051:7126   */\n      swap1\n      pop\n        /* \"#utility.yul\":7149:7155   */\n      dup3\n        /* \"#utility.yul\":7142:7147   */\n      dup2\n        /* \"#utility.yul\":7135:7156   */\n      mstore\n        /* \"#utility.yul\":7187:7191   */\n      0x20\n        /* \"#utility.yul\":7180:7185   */\n      dup2\n        /* \"#utility.yul\":7176:7192   */\n      add\n        /* \"#utility.yul\":7225:7228   */\n      dup5\n        /* \"#utility.yul\":7216:7222   */\n      dup5\n        /* \"#utility.yul\":7211:7214   */\n      dup5\n        /* \"#utility.yul\":7207:7223   */\n      add\n        /* \"#utility.yul\":7204:7229   */\n      gt\n        /* \"#utility.yul\":7201:7313   */\n      iszero\n      tag_238\n      jumpi\n        /* \"#utility.yul\":7232:7311   */\n      tag_239\n      tag_140\n      jump\t// in\n    tag_239:\n        /* \"#utility.yul\":7201:7313   */\n    tag_238:\n        /* \"#utility.yul\":7322:7376   */\n      tag_240\n        /* \"#utility.yul\":7369:7375   */\n      dup5\n        /* \"#utility.yul\":7364:7367   */\n      dup3\n        /* \"#utility.yul\":7359:7362   */\n      dup6\n        /* \"#utility.yul\":7322:7376   */\n      tag_145\n      jump\t// in\n    tag_240:\n        /* \"#utility.yul\":7041:7382   */\n      pop\n        /* \"#utility.yul\":6957:7382   */\n      swap4\n      swap3\n      pop\n      pop\n      pop\n      jump\t// out\n        /* \"#utility.yul\":7402:7742   */\n    tag_147:\n        /* \"#utility.yul\":7458:7463   */\n      0x00\n        /* \"#utility.yul\":7507:7510   */\n      dup3\n        /* \"#utility.yul\":7500:7504   */\n      0x1f\n        /* \"#utility.yul\":7492:7498   */\n      dup4\n        /* \"#utility.yul\":7488:7505   */\n      add\n        /* \"#utility.yul\":7484:7511   */\n      slt\n        /* \"#utility.yul\":7474:7596   */\n      tag_242\n      jumpi\n        /* \"#utility.yul\":7515:7594   */\n      tag_243\n      tag_139\n      jump\t// in\n    tag_243:\n        /* \"#utility.yul\":7474:7596   */\n    tag_242:\n        /* \"#utility.yul\":7632:7638   */\n      dup2\n        /* \"#utility.yul\":7619:7639   */\n      calldataload\n        /* \"#utility.yul\":7657:7736   */\n      tag_244\n        /* \"#utility.yul\":7732:7735   */\n      dup5\n        /* \"#utility.yul\":7724:7730   */\n      dup3\n        /* \"#utility.yul\":7717:7721   */\n      0x20\n        /* \"#utility.yul\":7709:7715   */\n      dup7\n        /* \"#utility.yul\":7705:7722   */\n      add\n        /* \"#utility.yul\":7657:7736   */\n      tag_146\n      jump\t// in\n    tag_244:\n        /* \"#utility.yul\":7648:7736   */\n      swap2\n      pop\n        /* \"#utility.yul\":7464:7742   */\n      pop\n        /* \"#utility.yul\":7402:7742   */\n      swap3\n      swap2\n      pop\n      pop\n      jump\t// out\n        /* \"#utility.yul\":7748:8418   */\n    tag_21:\n        /* \"#utility.yul\":7834:7840   */\n      0x00\n        /* \"#utility.yul\":7842:7848   */\n      dup1\n        /* \"#utility.yul\":7891:7893   */\n      0x40\n        /* \"#utility.yul\":7879:7888   */\n      dup4\n        /* \"#utility.yul\":7870:7877   */\n      dup6\n        /* \"#utility.yul\":7866:7889   */\n      sub\n        /* \"#utility.yul\":7862:7894   */\n      slt\n        /* \"#utility.yul\":7859:7978   */\n      iszero\n      tag_246\n      jumpi\n        /* \"#utility.yul\":7897:7976   */\n      tag_247\n      tag_135\n      jump\t// in\n    tag_247:\n        /* \"#utility.yul\":7859:7978   */\n    tag_246:\n        /* \"#utility.yul\":8017:8018   */\n      0x00\n        /* \"#utility.yul\":8042:8103   */\n      tag_248\n        /* \"#utility.yul\":8095:8102   */\n      dup6\n        /* \"#utility.yul\":8086:8092   */\n      dup3\n        /* \"#utility.yul\":8075:8084   */\n      dup7\n        /* \"#utility.yul\":8071:8093   */\n      add\n        /* \"#utility.yul\":8042:8103   */\n      tag_138\n      jump\t// in\n    tag_248:\n        /* \"#utility.yul\":8032:8103   */\n      swap3\n      pop\n        /* \"#utility.yul\":7988:8113   */\n      pop\n        /* \"#utility.yul\":8180:8182   */\n      0x20\n        /* \"#utility.yul\":8169:8178   */\n      dup4\n        /* \"#utility.yul\":8165:8183   */\n      add\n        /* \"#utility.yul\":8152:8184   */\n      calldataload\n        /* \"#utility.yul\":8211:8229   */\n      0xffffffffffffffff\n        /* \"#utility.yul\":8203:8209   */\n      dup2\n        /* \"#utility.yul\":8200:8230   */\n      gt\n        /* \"#utility.yul\":8197:8314   */\n      iszero\n      tag_249\n      jumpi\n        /* \"#utility.yul\":8233:8312   */\n      tag_250\n      tag_136\n      jump\t// in\n    tag_250:\n        /* \"#utility.yul\":8197:8314   */\n    tag_249:\n        /* \"#utility.yul\":8338:8401   */\n      tag_251\n        /* \"#utility.yul\":8393:8400   */\n      dup6\n        /* \"#utility.yul\":8384:8390   */\n      dup3\n        /* \"#utility.yul\":8373:8382   */\n      dup7\n        /* \"#utility.yul\":8369:8391   */\n      add\n        /* \"#utility.yul\":8338:8401   */\n      tag_147\n      jump\t// in\n    tag_251:\n        /* \"#utility.yul\":8328:8401   */\n      swap2\n      pop\n        /* \"#utility.yul\":8123:8411   */\n      pop\n        /* \"#utility.yul\":7748:8418   */\n      swap3\n      pop\n      swap3\n      swap1\n      pop\n      jump\t// out\n        /* \"#utility.yul\":8424:8769   */\n    tag_31:\n        /* \"#utility.yul\":8491:8497   */\n      0x00\n        /* \"#utility.yul\":8540:8542   */\n      0x20\n        /* \"#utility.yul\":8528:8537   */\n      dup3\n        /* \"#utility.yul\":8519:8526   */\n      dup5\n        /* \"#utility.yul\":8515:8538   */\n      sub\n        /* \"#utility.yul\":8511:8543   */\n      slt\n        /* \"#utility.yul\":8508:8627   */\n      iszero\n      tag_253\n      jumpi\n        /* \"#utility.yul\":8546:8625   */\n      tag_254\n      tag_135\n      jump\t// in\n    tag_254:\n        /* \"#utility.yul\":8508:8627   */\n    tag_253:\n        /* \"#utility.yul\":8666:8667   */\n      0x00\n        /* \"#utility.yul\":8691:8752   */\n      tag_255\n        /* \"#utility.yul\":8744:8751   */\n      dup5\n        /* \"#utility.yul\":8735:8741   */\n      dup3\n        /* \"#utility.yul\":8724:8733   */\n      dup6\n        /* \"#utility.yul\":8720:8742   */\n      add\n        /* \"#utility.yul\":8691:8752   */\n      tag_138\n      jump\t// in\n    tag_255:\n        /* \"#utility.yul\":8681:8752   */\n      swap2\n      pop\n        /* \"#utility.yul\":8637:8762   */\n      pop\n        /* \"#utility.yul\":8424:8769   */\n      swap3\n      swap2\n      pop\n      pop\n      jump\t// out\n        /* \"#utility.yul\":8775:8955   */\n    tag_148:\n        /* \"#utility.yul\":8823:8900   */\n      0x4e487b7100000000000000000000000000000000000000000000000000000000\n        /* \"#utility.yul\":8820:8821   */\n      0x00\n        /* \"#utility.yul\":8813:8901   */\n      mstore\n        /* \"#utility.yul\":8920:8924   */\n      0x22\n        /* \"#utility.yul\":8917:8918   */\n      0x04\n        /* \"#utility.yul\":8910:8925   */\n      mstore\n        /* \"#utility.yul\":8944:8948   */\n      0x24\n        /* \"#utility.yul\":8941:8942   */\n      0x00\n        /* \"#utility.yul\":8934:8949   */\n      revert\n        /* \"#utility.yul\":8961:9281   */\n    tag_39:\n        /* \"#utility.yul\":9005:9011   */\n      0x00\n        /* \"#utility.yul\":9042:9043   */\n      0x02\n        /* \"#utility.yul\":9036:9040   */\n      dup3\n        /* \"#utility.yul\":9032:9044   */\n      div\n        /* \"#utility.yul\":9022:9044   */\n      swap1\n      pop\n        /* \"#utility.yul\":9089:9090   */\n      0x01\n        /* \"#utility.yul\":9083:9087   */\n      dup3\n        /* \"#utility.yul\":9079:9091   */\n      and\n        /* \"#utility.yul\":9110:9128   */\n      dup1\n        /* \"#utility.yul\":9100:9181   */\n      tag_258\n      jumpi\n        /* \"#utility.yul\":9166:9170   */\n      0x7f\n        /* \"#utility.yul\":9158:9164   */\n      dup3\n        /* \"#utility.yul\":9154:9171   */\n      and\n        /* \"#utility.yul\":9144:9171   */\n      swap2\n      pop\n        /* \"#utility.yul\":9100:9181   */\n    tag_258:\n        /* \"#utility.yul\":9228:9230   */\n      0x20\n        /* \"#utility.yul\":9220:9226   */\n      dup3\n        /* \"#utility.yul\":9217:9231   */\n      lt\n        /* \"#utility.yul\":9197:9215   */\n      dup2\n        /* \"#utility.yul\":9194:9232   */\n      sub\n        /* \"#utility.yul\":9191:9275   */\n      tag_259\n      jumpi\n        /* \"#utility.yul\":9247:9265   */\n      tag_260\n      tag_148\n      jump\t// in\n    tag_260:\n        /* \"#utility.yul\":9191:9275   */\n    tag_259:\n        /* \"#utility.yul\":9012:9281   */\n      pop\n        /* \"#utility.yul\":8961:9281   */\n      swap2\n      swap1\n      pop\n      jump\t// out\n        /* \"#utility.yul\":9287:9456   */\n    tag_149:\n        /* \"#utility.yul\":9371:9382   */\n      0x00\n        /* \"#utility.yul\":9405:9411   */\n      dup3\n        /* \"#utility.yul\":9400:9403   */\n      dup3\n        /* \"#utility.yul\":9393:9412   */\n      mstore\n        /* \"#utility.yul\":9445:9449   */\n      0x20\n        /* \"#utility.yul\":9440:9443   */\n      dup3\n        /* \"#utility.yul\":9436:9450   */\n      add\n        /* \"#utility.yul\":9421:9450   */\n      swap1\n      pop\n        /* \"#utility.yul\":9287:9456   */\n      swap3\n      swap2\n      pop\n      pop\n      jump\t// out\n        /* \"#utility.yul\":9462:9686   */\n    tag_150:\n        /* \"#utility.yul\":9602:9636   */\n      0x4f6e6c7920746865206f776e65722063616e2063616c6c20746869732066756e\n        /* \"#utility.yul\":9598:9599   */\n      0x00\n        /* \"#utility.yul\":9590:9596   */\n      dup3\n        /* \"#utility.yul\":9586:9600   */\n      add\n        /* \"#utility.yul\":9579:9637   */\n      mstore\n        /* \"#utility.yul\":9671:9678   */\n      0x6374696f6e000000000000000000000000000000000000000000000000000000\n        /* \"#utility.yul\":9666:9668   */\n      0x20\n        /* \"#utility.yul\":9658:9664   */\n      dup3\n        /* \"#utility.yul\":9654:9669   */\n      add\n        /* \"#utility.yul\":9647:9679   */\n      mstore\n        /* \"#utility.yul\":9462:9686   */\n      pop\n      jump\t// out\n        /* \"#utility.yul\":9692:10058   */\n    tag_151:\n        /* \"#utility.yul\":9834:9837   */\n      0x00\n        /* \"#utility.yul\":9855:9922   */\n      tag_264\n        /* \"#utility.yul\":9919:9921   */\n      0x25\n        /* \"#utility.yul\":9914:9917   */\n      dup4\n        /* \"#utility.yul\":9855:9922   */\n      tag_149\n      jump\t// in\n    tag_264:\n        /* \"#utility.yul\":9848:9922   */\n      swap2\n      pop\n        /* \"#utility.yul\":9931:10024   */\n      tag_265\n        /* \"#utility.yul\":10020:10023   */\n      dup3\n        /* \"#utility.yul\":9931:10024   */\n      tag_150\n      jump\t// in\n    tag_265:\n        /* \"#utility.yul\":10049:10051   */\n      0x40\n        /* \"#utility.yul\":10044:10047   */\n      dup3\n        /* \"#utility.yul\":10040:10052   */\n      add\n        /* \"#utility.yul\":10033:10052   */\n      swap1\n      pop\n        /* \"#utility.yul\":9692:10058   */\n      swap2\n      swap1\n      pop\n      jump\t// out\n        /* \"#utility.yul\":10064:10483   */\n    tag_47:\n        /* \"#utility.yul\":10230:10234   */\n      0x00\n        /* \"#utility.yul\":10268:10270   */\n      0x20\n        /* \"#utility.yul\":10257:10266   */\n      dup3\n        /* \"#utility.yul\":10253:10271   */\n      add\n        /* \"#utility.yul\":10245:10271   */\n      swap1\n      pop\n        /* \"#utility.yul\":10317:10326   */\n      dup2\n        /* \"#utility.yul\":10311:10315   */\n      dup2\n        /* \"#utility.yul\":10307:10327   */\n      sub\n        /* \"#utility.yul\":10303:10304   */\n      0x00\n        /* \"#utility.yul\":10292:10301   */\n      dup4\n        /* \"#utility.yul\":10288:10305   */\n      add\n        /* \"#utility.yul\":10281:10328   */\n      mstore\n        /* \"#utility.yul\":10345:10476   */\n      tag_267\n        /* \"#utility.yul\":10471:10475   */\n      dup2\n        /* \"#utility.yul\":10345:10476   */\n      tag_151\n      jump\t// in\n    tag_267:\n        /* \"#utility.yul\":10337:10476   */\n      swap1\n      pop\n        /* \"#utility.yul\":10064:10483   */\n      swap2\n      swap1\n      pop\n      jump\t// out\n        /* \"#utility.yul\":10489:10669   */\n    tag_54:\n        /* \"#utility.yul\":10537:10614   */\n      0x4e487b7100000000000000000000000000000000000000000000000000000000\n        /* \"#utility.yul\":10534:10535   */\n      0x00\n        /* \"#utility.yul\":10527:10615   */\n      mstore\n        /* \"#utility.yul\":10634:10638   */\n      0x32\n        /* \"#utility.yul\":10631:10632   */\n      0x04\n        /* \"#utility.yul\":10624:10639   */\n      mstore\n        /* \"#utility.yul\":10658:10662   */\n      0x24\n        /* \"#utility.yul\":10655:10656   */\n      0x00\n        /* \"#utility.yul\":10648:10663   */\n      revert\n        /* \"#utility.yul\":10675:10816   */\n    tag_152:\n        /* \"#utility.yul\":10724:10728   */\n      0x00\n        /* \"#utility.yul\":10747:10750   */\n      dup2\n        /* \"#utility.yul\":10739:10750   */\n      swap1\n      pop\n        /* \"#utility.yul\":10770:10773   */\n      dup2\n        /* \"#utility.yul\":10767:10768   */\n      0x00\n        /* \"#utility.yul\":10760:10774   */\n      mstore\n        /* \"#utility.yul\":10804:10808   */\n      0x20\n        /* \"#utility.yul\":10801:10802   */\n      0x00\n        /* \"#utility.yul\":10791:10809   */\n      keccak256\n        /* \"#utility.yul\":10783:10809   */\n      swap1\n      pop\n        /* \"#utility.yul\":10675:10816   */\n      swap2\n      swap1\n      pop\n      jump\t// out\n        /* \"#utility.yul\":10822:10915   */\n    tag_153:\n        /* \"#utility.yul\":10859:10865   */\n      0x00\n        /* \"#utility.yul\":10906:10908   */\n      0x20\n        /* \"#utility.yul\":10901:10903   */\n      0x1f\n        /* \"#utility.yul\":10894:10899   */\n      dup4\n        /* \"#utility.yul\":10890:10904   */\n      add\n        /* \"#utility.yul\":10886:10909   */\n      div\n        /* \"#utility.yul\":10876:10909   */\n      swap1\n      pop\n        /* \"#utility.yul\":10822:10915   */\n      swap2\n      swap1\n      pop\n      jump\t// out\n        /* \"#utility.yul\":10921:11028   */\n    tag_154:\n        /* \"#utility.yul\":10965:10973   */\n      0x00\n        /* \"#utility.yul\":11015:11020   */\n      dup3\n        /* \"#utility.yul\":11009:11013   */\n      dup3\n        /* \"#utility.yul\":11005:11021   */\n      shl\n        /* \"#utility.yul\":10984:11021   */\n      swap1\n      pop\n        /* \"#utility.yul\":10921:11028   */\n      swap3\n      swap2\n      pop\n      pop\n      jump\t// out\n        /* \"#utility.yul\":11034:11427   */\n    tag_155:\n        /* \"#utility.yul\":11103:11109   */\n      0x00\n        /* \"#utility.yul\":11153:11154   */\n      0x08\n        /* \"#utility.yul\":11141:11151   */\n      dup4\n        /* \"#utility.yul\":11137:11155   */\n      mul\n        /* \"#utility.yul\":11176:11273   */\n      tag_273\n        /* \"#utility.yul\":11206:11272   */\n      0xffffffffffffffffffffffffffffffffffffffffffffffffffffffffffffffff\n        /* \"#utility.yul\":11195:11204   */\n      dup3\n        /* \"#utility.yul\":11176:11273   */\n      tag_154\n      jump\t// in\n    tag_273:\n        /* \"#utility.yul\":11294:11333   */\n      tag_274\n        /* \"#utility.yul\":11324:11332   */\n      dup7\n        /* \"#utility.yul\":11313:11322   */\n      dup4\n        /* \"#utility.yul\":11294:11333   */\n      tag_154\n      jump\t// in\n    tag_274:\n        /* \"#utility.yul\":11282:11333   */\n      swap6\n      pop\n        /* \"#utility.yul\":11366:11370   */\n      dup1\n        /* \"#utility.yul\":11362:11371   */\n      not\n        /* \"#utility.yul\":11355:11360   */\n      dup5\n        /* \"#utility.yul\":11351:11372   */\n      and\n        /* \"#utility.yul\":11342:11372   */\n      swap4\n      pop\n        /* \"#utility.yul\":11415:11419   */\n      dup1\n        /* \"#utility.yul\":11405:11413   */\n      dup7\n        /* \"#utility.yul\":11401:11420   */\n      and\n        /* \"#utility.yul\":11394:11399   */\n      dup5\n        /* \"#utility.yul\":11391:11421   */\n      or\n        /* \"#utility.yul\":11381:11421   */\n      swap3\n      pop\n        /* \"#utility.yul\":11110:11427   */\n      pop\n      pop\n        /* \"#utility.yul\":11034:11427   */\n      swap4\n      swap3\n      pop\n      pop\n      pop\n      jump\t// out\n        /* \"#utility.yul\":11433:11493   */\n    tag_156:\n        /* \"#utility.yul\":11461:11464   */\n      0x00\n        /* \"#utility.yul\":11482:11487   */\n      dup2\n        /* \"#utility.yul\":11475:11487   */\n      swap1\n      pop\n        /* \"#utility.yul\":11433:11493   */\n      swap2\n      swap1\n      pop\n      jump\t// out\n        /* \"#utility.yul\":11499:11641   */\n    tag_157:\n        /* \"#utility.yul\":11549:11558   */\n      0x00\n        /* \"#utility.yul\":11582:11635   */\n      tag_277\n        /* \"#utility.yul\":11600:11634   */\n      tag_278\n        /* \"#utility.yul\":11609:11633   */\n      tag_279\n        /* \"#utility.yul\":11627:11632   */\n      dup5\n        /* \"#utility.yul\":11609:11633   */\n      tag_117\n      jump\t// in\n    tag_279:\n        /* \"#utility.yul\":11600:11634   */\n      tag_156\n      jump\t// in\n    tag_278:\n        /* \"#utility.yul\":11582:11635   */\n      tag_117\n      jump\t// in\n    tag_277:\n        /* \"#utility.yul\":11569:11635   */\n      swap1\n      pop\n        /* \"#utility.yul\":11499:11641   */\n      swap2\n      swap1\n      pop\n      jump\t// out\n        /* \"#utility.yul\":11647:11722   */\n    tag_158:\n        /* \"#utility.yul\":11690:11693   */\n      0x00\n        /* \"#utility.yul\":11711:11716   */\n      dup2\n        /* \"#utility.yul\":11704:11716   */\n      swap1\n      pop\n        /* \"#utility.yul\":11647:11722   */\n      swap2\n      swap1\n      pop\n      jump\t// out\n        /* \"#utility.yul\":11728:11997   */\n    tag_159:\n        /* \"#utility.yul\":11838:11877   */\n      tag_282\n        /* \"#utility.yul\":11869:11876   */\n      dup4\n        /* \"#utility.yul\":11838:11877   */\n      tag_157\n      jump\t// in\n    tag_282:\n        /* \"#utility.yul\":11899:11990   */\n      tag_283\n        /* \"#utility.yul\":11948:11989   */\n      tag_284\n        /* \"#utility.yul\":11972:11988   */\n      dup3\n        /* \"#utility.yul\":11948:11989   */\n      tag_158\n      jump\t// in\n    tag_284:\n        /* \"#utility.yul\":11940:11946   */\n      dup5\n        /* \"#utility.yul\":11933:11937   */\n      dup5\n        /* \"#utility.yul\":11927:11938   */\n      sload\n        /* \"#utility.yul\":11899:11990   */\n      tag_155\n      jump\t// in\n    tag_283:\n        /* \"#utility.yul\":11893:11897   */\n      dup3\n        /* \"#utility.yul\":11886:11991   */\n      sstore\n        /* \"#utility.yul\":11804:11997   */\n      pop\n        /* \"#utility.yul\":11728:11997   */\n      pop\n      pop\n      pop\n      jump\t// out\n        /* \"#utility.yul\":12003:12076   */\n    tag_160:\n        /* \"#utility.yul\":12048:12051   */\n      0x00\n        /* \"#utility.yul\":12003:12076   */\n      swap1\n      jump\t// out\n        /* \"#utility.yul\":12082:12271   */\n    tag_161:\n        /* \"#utility.yul\":12159:12191   */\n      tag_287\n      tag_160\n      jump\t// in\n    tag_287:\n        /* \"#utility.yul\":12200:12265   */\n      tag_288\n        /* \"#utility.yul\":12258:12264   */\n      dup2\n        /* \"#utility.yul\":12250:12256   */\n      dup5\n        /* \"#utility.yul\":12244:12248   */\n      dup5\n        /* \"#utility.yul\":12200:12265   */\n      tag_159\n      jump\t// in\n    tag_288:\n        /* \"#utility.yul\":12135:12271   */\n      pop\n        /* \"#utility.yul\":12082:12271   */\n      pop\n      pop\n      jump\t// out\n        /* \"#utility.yul\":12277:12463   */\n    tag_162:\n        /* \"#utility.yul\":12337:12457   */\n    tag_290:\n        /* \"#utility.yul\":12354:12357   */\n      dup2\n        /* \"#utility.yul\":12347:12352   */\n      dup2\n        /* \"#utility.yul\":12344:12358   */\n      lt\n        /* \"#utility.yul\":12337:12457   */\n      iszero\n      tag_292\n      jumpi\n        /* \"#utility.yul\":12408:12447   */\n      tag_293\n        /* \"#utility.yul\":12445:12446   */\n      0x00\n        /* \"#utility.yul\":12438:12443   */\n      dup3\n        /* \"#utility.yul\":12408:12447   */\n      tag_161\n      jump\t// in\n    tag_293:\n        /* \"#utility.yul\":12381:12382   */\n      0x01\n        /* \"#utility.yul\":12374:12379   */\n      dup2\n        /* \"#utility.yul\":12370:12383   */\n      add\n        /* \"#utility.yul\":12361:12383   */\n      swap1\n      pop\n        /* \"#utility.yul\":12337:12457   */\n      jump(tag_290)\n    tag_292:\n        /* \"#utility.yul\":12277:12463   */\n      pop\n      pop\n      jump\t// out\n        /* \"#utility.yul\":12469:13012   */\n    tag_163:\n        /* \"#utility.yul\":12570:12572   */\n      0x1f\n        /* \"#utility.yul\":12565:12568   */\n      dup3\n        /* \"#utility.yul\":12562:12573   */\n      gt\n        /* \"#utility.yul\":12559:13005   */\n      iszero\n      tag_295\n      jumpi\n        /* \"#utility.yul\":12604:12642   */\n      tag_296\n        /* \"#utility.yul\":12636:12641   */\n      dup2\n        /* \"#utility.yul\":12604:12642   */\n      tag_152\n      jump\t// in\n    tag_296:\n        /* \"#utility.yul\":12688:12717   */\n      tag_297\n        /* \"#utility.yul\":12706:12716   */\n      dup5\n        /* \"#utility.yul\":12688:12717   */\n      tag_153\n      jump\t// in\n    tag_297:\n        /* \"#utility.yul\":12678:12686   */\n      dup2\n        /* \"#utility.yul\":12674:12718   */\n      add\n        /* \"#utility.yul\":12871:12873   */\n      0x20\n        /* \"#utility.yul\":12859:12869   */\n      dup6\n        /* \"#utility.yul\":12856:12874   */\n      lt\n        /* \"#utility.yul\":12853:12902   */\n      iszero\n      tag_298\n      jumpi\n        /* \"#utility.yul\":12892:12900   */\n      dup2\n        /* \"#utility.yul\":12877:12900   */\n      swap1\n      pop\n        /* \"#utility.yul\":12853:12902   */\n    tag_298:\n        /* \"#utility.yul\":12915:12995   */\n      tag_299\n        /* \"#utility.yul\":12971:12993   */\n      tag_300\n        /* \"#utility.yul\":12989:12992   */\n      dup6\n        /* \"#utility.yul\":12971:12993   */\n      tag_153\n      jump\t// in\n    tag_300:\n        /* \"#utility.yul\":12961:12969   */\n      dup4\n        /* \"#utility.yul\":12957:12994   */\n      add\n        /* \"#utility.yul\":12944:12955   */\n      dup3\n        /* \"#utility.yul\":12915:12995   */\n      tag_162\n      jump\t// in\n    tag_299:\n        /* \"#utility.yul\":12574:13005   */\n      pop\n      pop\n        /* \"#utility.yul\":12559:13005   */\n    tag_295:\n        /* \"#utility.yul\":12469:13012   */\n      pop\n      pop\n      pop\n      jump\t// out\n        /* \"#utility.yul\":13018:13135   */\n    tag_164:\n        /* \"#utility.yul\":13072:13080   */\n      0x00\n        /* \"#utility.yul\":13122:13127   */\n      dup3\n        /* \"#utility.yul\":13116:13120   */\n      dup3\n        /* \"#utility.yul\":13112:13128   */\n      shr\n        /* \"#utility.yul\":13091:13128   */\n      swap1\n      pop\n        /* \"#utility.yul\":13018:13135   */\n      swap3\n      swap2\n      pop\n      pop\n      jump\t// out\n        /* \"#utility.yul\":13141:13310   */\n    tag_165:\n        /* \"#utility.yul\":13185:13191   */\n      0x00\n        /* \"#utility.yul\":13218:13269   */\n      tag_303\n        /* \"#utility.yul\":13266:13267   */\n      0x00\n        /* \"#utility.yul\":13262:13268   */\n      not\n        /* \"#utility.yul\":13254:13259   */\n      dup5\n        /* \"#utility.yul\":13251:13252   */\n      0x08\n        /* \"#utility.yul\":13247:13260   */\n      mul\n        /* \"#utility.yul\":13218:13269   */\n      tag_164\n      jump\t// in\n    tag_303:\n        /* \"#utility.yul\":13214:13270   */\n      not\n        /* \"#utility.yul\":13299:13303   */\n      dup1\n        /* \"#utility.yul\":13293:13297   */\n      dup4\n        /* \"#utility.yul\":13289:13304   */\n      and\n        /* \"#utility.yul\":13279:13304   */\n      swap2\n      pop\n        /* \"#utility.yul\":13192:13310   */\n      pop\n        /* \"#utility.yul\":13141:13310   */\n      swap3\n      swap2\n      pop\n      pop\n      jump\t// out\n        /* \"#utility.yul\":13315:13610   */\n    tag_166:\n        /* \"#utility.yul\":13391:13395   */\n      0x00\n        /* \"#utility.yul\":13537:13566   */\n      tag_305\n        /* \"#utility.yul\":13562:13565   */\n      dup4\n        /* \"#utility.yul\":13556:13560   */\n      dup4\n        /* \"#utility.yul\":13537:13566   */\n      tag_165\n      jump\t// in\n    tag_305:\n        /* \"#utility.yul\":13529:13566   */\n      swap2\n      pop\n        /* \"#utility.yul\":13599:13602   */\n      dup3\n        /* \"#utility.yul\":13596:13597   */\n      0x02\n        /* \"#utility.yul\":13592:13603   */\n      mul\n        /* \"#utility.yul\":13586:13590   */\n      dup3\n        /* \"#utility.yul\":13583:13604   */\n      or\n        /* \"#utility.yul\":13575:13604   */\n      swap1\n      pop\n        /* \"#utility.yul\":13315:13610   */\n      swap3\n      swap2\n      pop\n      pop\n      jump\t// out\n        /* \"#utility.yul\":13615:15010   */\n    tag_60:\n        /* \"#utility.yul\":13732:13769   */\n      tag_307\n        /* \"#utility.yul\":13765:13768   */\n      dup3\n        /* \"#utility.yul\":13732:13769   */\n      tag_125\n      jump\t// in\n    tag_307:\n        /* \"#utility.yul\":13834:13852   */\n      0xffffffffffffffff\n        /* \"#utility.yul\":13826:13832   */\n      dup2\n        /* \"#utility.yul\":13823:13853   */\n      gt\n        /* \"#utility.yul\":13820:13876   */\n      iszero\n      tag_308\n      jumpi\n        /* \"#utility.yul\":13856:13874   */\n      tag_309\n      tag_141\n      jump\t// in\n    tag_309:\n        /* \"#utility.yul\":13820:13876   */\n    tag_308:\n        /* \"#utility.yul\":13900:13938   */\n      tag_310\n        /* \"#utility.yul\":13932:13936   */\n      dup3\n        /* \"#utility.yul\":13926:13937   */\n      sload\n        /* \"#utility.yul\":13900:13938   */\n      tag_39\n      jump\t// in\n    tag_310:\n        /* \"#utility.yul\":13985:14052   */\n      tag_311\n        /* \"#utility.yul\":14045:14051   */\n      dup3\n        /* \"#utility.yul\":14037:14043   */\n      dup3\n        /* \"#utility.yul\":14031:14035   */\n      dup6\n        /* \"#utility.yul\":13985:14052   */\n      tag_163\n      jump\t// in\n    tag_311:\n        /* \"#utility.yul\":14079:14080   */\n      0x00\n        /* \"#utility.yul\":14103:14107   */\n      0x20\n        /* \"#utility.yul\":14090:14107   */\n      swap1\n      pop\n        /* \"#utility.yul\":14135:14137   */\n      0x1f\n        /* \"#utility.yul\":14127:14133   */\n      dup4\n        /* \"#utility.yul\":14124:14138   */\n      gt\n        /* \"#utility.yul\":14152:14153   */\n      0x01\n        /* \"#utility.yul\":14147:14765   */\n      dup2\n      eq\n      tag_313\n      jumpi\n        /* \"#utility.yul\":14809:14810   */\n      0x00\n        /* \"#utility.yul\":14826:14832   */\n      dup5\n        /* \"#utility.yul\":14823:14900   */\n      iszero\n      tag_314\n      jumpi\n        /* \"#utility.yul\":14875:14884   */\n      dup3\n        /* \"#utility.yul\":14870:14873   */\n      dup8\n        /* \"#utility.yul\":14866:14885   */\n      add\n        /* \"#utility.yul\":14860:14886   */\n      mload\n        /* \"#utility.yul\":14851:14886   */\n      swap1\n      pop\n        /* \"#utility.yul\":14823:14900   */\n    tag_314:\n        /* \"#utility.yul\":14926:14993   */\n      tag_315\n        /* \"#utility.yul\":14986:14992   */\n      dup6\n        /* \"#utility.yul\":14979:14984   */\n      dup3\n        /* \"#utility.yul\":14926:14993   */\n      tag_166\n      jump\t// in\n    tag_315:\n        /* \"#utility.yul\":14920:14924   */\n      dup7\n        /* \"#utility.yul\":14913:14994   */\n      sstore\n        /* \"#utility.yul\":14782:15004   */\n      pop\n        /* \"#utility.yul\":14117:15004   */\n      jump(tag_312)\n        /* \"#utility.yul\":14147:14765   */\n    tag_313:\n        /* \"#utility.yul\":14199:14203   */\n      0x1f\n        /* \"#utility.yul\":14195:14204   */\n      not\n        /* \"#utility.yul\":14187:14193   */\n      dup5\n        /* \"#utility.yul\":14183:14205   */\n      and\n        /* \"#utility.yul\":14233:14270   */\n      tag_316\n        /* \"#utility.yul\":14265:14269   */\n      dup7\n        /* \"#utility.yul\":14233:14270   */\n      tag_152\n      jump\t// in\n    tag_316:\n        /* \"#utility.yul\":14292:14293   */\n      0x00\n        /* \"#utility.yul\":14306:14514   */\n    tag_317:\n        /* \"#utility.yul\":14320:14327   */\n      dup3\n        /* \"#utility.yul\":14317:14318   */\n      dup2\n        /* \"#utility.yul\":14314:14328   */\n      lt\n        /* \"#utility.yul\":14306:14514   */\n      iszero\n      tag_319\n      jumpi\n        /* \"#utility.yul\":14399:14408   */\n      dup5\n        /* \"#utility.yul\":14394:14397   */\n      dup10\n        /* \"#utility.yul\":14390:14409   */\n      add\n        /* \"#utility.yul\":14384:14410   */\n      mload\n        /* \"#utility.yul\":14376:14382   */\n      dup3\n        /* \"#utility.yul\":14369:14411   */\n      sstore\n        /* \"#utility.yul\":14450:14451   */\n      0x01\n        /* \"#utility.yul\":14442:14448   */\n      dup3\n        /* \"#utility.yul\":14438:14452   */\n      add\n        /* \"#utility.yul\":14428:14452   */\n      swap2\n      pop\n        /* \"#utility.yul\":14497:14499   */\n      0x20\n        /* \"#utility.yul\":14486:14495   */\n      dup6\n        /* \"#utility.yul\":14482:14500   */\n      add\n        /* \"#utility.yul\":14469:14500   */\n      swap5\n      pop\n        /* \"#utility.yul\":14343:14347   */\n      0x20\n        /* \"#utility.yul\":14340:14341   */\n      dup2\n        /* \"#utility.yul\":14336:14348   */\n      add\n        /* \"#utility.yul\":14331:14348   */\n      swap1\n      pop\n        /* \"#utility.yul\":14306:14514   */\n      jump(tag_317)\n    tag_319:\n        /* \"#utility.yul\":14542:14548   */\n      dup7\n        /* \"#utility.yul\":14533:14540   */\n      dup4\n        /* \"#utility.yul\":14530:14549   */\n      lt\n        /* \"#utility.yul\":14527:14706   */\n      iszero\n      tag_320\n      jumpi\n        /* \"#utility.yul\":14600:14609   */\n      dup5\n        /* \"#utility.yul\":14595:14598   */\n      dup10\n        /* \"#utility.yul\":14591:14610   */\n      add\n        /* \"#utility.yul\":14585:14611   */\n      mload\n        /* \"#utility.yul\":14643:14691   */\n      tag_321\n        /* \"#utility.yul\":14685:14689   */\n      0x1f\n        /* \"#utility.yul\":14677:14683   */\n      dup10\n        /* \"#utility.yul\":14673:14690   */\n      and\n        /* \"#utility.yul\":14662:14671   */\n      dup3\n        /* \"#utility.yul\":14643:14691   */\n      tag_165\n      jump\t// in\n    tag_321:\n        /* \"#utility.yul\":14635:14641   */\n      dup4\n        /* \"#utility.yul\":14628:14692   */\n      sstore\n        /* \"#utility.yul\":14550:14706   */\n      pop\n        /* \"#utility.yul\":14527:14706   */\n    tag_320:\n        /* \"#utility.yul\":14752:14753   */\n      0x01\n        /* \"#utility.yul\":14748:14749   */\n      0x02\n        /* \"#utility.yul\":14740:14746   */\n      dup9\n        /* \"#utility.yul\":14736:14750   */\n      mul\n        /* \"#utility.yul\":14732:14754   */\n      add\n        /* \"#utility.yul\":14726:14730   */\n      dup9\n        /* \"#utility.yul\":14719:14755   */\n      sstore\n        /* \"#utility.yul\":14154:14765   */\n      pop\n      pop\n      pop\n        /* \"#utility.yul\":14117:15004   */\n    tag_312:\n      pop\n        /* \"#utility.yul\":13707:15010   */\n      pop\n      pop\n      pop\n        /* \"#utility.yul\":13615:15010   */\n      pop\n      pop\n      jump\t// out\n        /* \"#utility.yul\":15016:15239   */\n    tag_167:\n        /* \"#utility.yul\":15156:15190   */\n      0x496e73756666696369656e742062616c616e636520696e2074686520636f6e74\n        /* \"#utility.yul\":15152:15153   */\n      0x00\n        /* \"#utility.yul\":15144:15150   */\n      dup3\n        /* \"#utility.yul\":15140:15154   */\n      add\n        /* \"#utility.yul\":15133:15191   */\n      mstore\n        /* \"#utility.yul\":15225:15231   */\n      0x7261637400000000000000000000000000000000000000000000000000000000\n        /* \"#utility.yul\":15220:15222   */\n      0x20\n        /* \"#utility.yul\":15212:15218   */\n      dup3\n        /* \"#utility.yul\":15208:15223   */\n      add\n        /* \"#utility.yul\":15201:15232   */\n      mstore\n        /* \"#utility.yul\":15016:15239   */\n      pop\n      jump\t// out\n        /* \"#utility.yul\":15245:15611   */\n    tag_168:\n        /* \"#utility.yul\":15387:15390   */\n      0x00\n        /* \"#utility.yul\":15408:15475   */\n      tag_324\n        /* \"#utility.yul\":15472:15474   */\n      0x24\n        /* \"#utility.yul\":15467:15470   */\n      dup4\n        /* \"#utility.yul\":15408:15475   */\n      tag_149\n      jump\t// in\n    tag_324:\n        /* \"#utility.yul\":15401:15475   */\n      swap2\n      pop\n        /* \"#utility.yul\":15484:15577   */\n      tag_325\n        /* \"#utility.yul\":15573:15576   */\n      dup3\n        /* \"#utility.yul\":15484:15577   */\n      tag_167\n      jump\t// in\n    tag_325:\n        /* \"#utility.yul\":15602:15604   */\n      0x40\n        /* \"#utility.yul\":15597:15600   */\n      dup3\n        /* \"#utility.yul\":15593:15605   */\n      add\n        /* \"#utility.yul\":15586:15605   */\n      swap1\n      pop\n        /* \"#utility.yul\":15245:15611   */\n      swap2\n      swap1\n      pop\n      jump\t// out\n        /* \"#utility.yul\":15617:16036   */\n    tag_65:\n        /* \"#utility.yul\":15783:15787   */\n      0x00\n        /* \"#utility.yul\":15821:15823   */\n      0x20\n        /* \"#utility.yul\":15810:15819   */\n      dup3\n        /* \"#utility.yul\":15806:15824   */\n      add\n        /* \"#utility.yul\":15798:15824   */\n      swap1\n      pop\n        /* \"#utility.yul\":15870:15879   */\n      dup2\n        /* \"#utility.yul\":15864:15868   */\n      dup2\n        /* \"#utility.yul\":15860:15880   */\n      sub\n        /* \"#utility.yul\":15856:15857   */\n      0x00\n        /* \"#utility.yul\":15845:15854   */\n      dup4\n        /* \"#utility.yul\":15841:15858   */\n      add\n        /* \"#utility.yul\":15834:15881   */\n      mstore\n        /* \"#utility.yul\":15898:16029   */\n      tag_327\n        /* \"#utility.yul\":16024:16028   */\n      dup2\n        /* \"#utility.yul\":15898:16029   */\n      tag_168\n      jump\t// in\n    tag_327:\n        /* \"#utility.yul\":15890:16029   */\n      swap1\n      pop\n        /* \"#utility.yul\":15617:16036   */\n      swap2\n      swap1\n      pop\n      jump\t// out\n        /* \"#utility.yul\":16042:16222   */\n    tag_169:\n        /* \"#utility.yul\":16090:16167   */\n      0x4e487b7100000000000000000000000000000000000000000000000000000000\n        /* \"#utility.yul\":16087:16088   */\n      0x00\n        /* \"#utility.yul\":16080:16168   */\n      mstore\n        /* \"#utility.yul\":16187:16191   */\n      0x12\n        /* \"#utility.yul\":16184:16185   */\n      0x04\n        /* \"#utility.yul\":16177:16192   */\n      mstore\n        /* \"#utility.yul\":16211:16215   */\n      0x24\n        /* \"#utility.yul\":16208:16209   */\n      0x00\n        /* \"#utility.yul\":16201:16216   */\n      revert\n        /* \"#utility.yul\":16228:16408   */\n    tag_170:\n        /* \"#utility.yul\":16276:16353   */\n      0x4e487b7100000000000000000000000000000000000000000000000000000000\n        /* \"#utility.yul\":16273:16274   */\n      0x00\n        /* \"#utility.yul\":16266:16354   */\n      mstore\n        /* \"#utility.yul\":16373:16377   */\n      0x11\n        /* \"#utility.yul\":16370:16371   */\n      0x04\n        /* \"#utility.yul\":16363:16378   */\n      mstore\n        /* \"#utility.yul\":16397:16401   */\n      0x24\n        /* \"#utility.yul\":16394:16395   */\n      0x00\n        /* \"#utility.yul\":16387:16402   */\n      revert\n        /* \"#utility.yul\":16414:16599   */\n    tag_68:\n        /* \"#utility.yul\":16454:16455   */\n      0x00\n        /* \"#utility.yul\":16471:16491   */\n      tag_331\n        /* \"#utility.yul\":16489:16490   */\n      dup3\n        /* \"#utility.yul\":16471:16491   */\n      tag_117\n      jump\t// in\n    tag_331:\n        /* \"#utility.yul\":16466:16491   */\n      swap2\n      pop\n        /* \"#utility.yul\":16505:16525   */\n      tag_332\n        /* \"#utility.yul\":16523:16524   */\n      dup4\n        /* \"#utility.yul\":16505:16525   */\n      tag_117\n      jump\t// in\n    tag_332:\n        /* \"#utility.yul\":16500:16525   */\n      swap3\n      pop\n        /* \"#utility.yul\":16544:16545   */\n      dup3\n        /* \"#utility.yul\":16534:16569   */\n      tag_333\n      jumpi\n        /* \"#utility.yul\":16549:16567   */\n      tag_334\n      tag_169\n      jump\t// in\n    tag_334:\n        /* \"#utility.yul\":16534:16569   */\n    tag_333:\n        /* \"#utility.yul\":16591:16592   */\n      dup3\n        /* \"#utility.yul\":16588:16589   */\n      dup3\n        /* \"#utility.yul\":16584:16593   */\n      div\n        /* \"#utility.yul\":16579:16593   */\n      swap1\n      pop\n        /* \"#utility.yul\":16414:16599   */\n      swap3\n      swap2\n      pop\n      pop\n      jump\t// out\n        /* \"#utility.yul\":16605:16799   */\n    tag_90:\n        /* \"#utility.yul\":16645:16649   */\n      0x00\n        /* \"#utility.yul\":16665:16685   */\n      tag_336\n        /* \"#utility.yul\":16683:16684   */\n      dup3\n        /* \"#utility.yul\":16665:16685   */\n      tag_117\n      jump\t// in\n    tag_336:\n        /* \"#utility.yul\":16660:16685   */\n      swap2\n      pop\n        /* \"#utility.yul\":16699:16719   */\n      tag_337\n        /* \"#utility.yul\":16717:16718   */\n      dup4\n        /* \"#utility.yul\":16699:16719   */\n      tag_117\n      jump\t// in\n    tag_337:\n        /* \"#utility.yul\":16694:16719   */\n      swap3\n      pop\n        /* \"#utility.yul\":16743:16744   */\n      dup3\n        /* \"#utility.yul\":16740:16741   */\n      dup3\n        /* \"#utility.yul\":16736:16745   */\n      sub\n        /* \"#utility.yul\":16728:16745   */\n      swap1\n      pop\n        /* \"#utility.yul\":16767:16768   */\n      dup2\n        /* \"#utility.yul\":16761:16765   */\n      dup2\n        /* \"#utility.yul\":16758:16769   */\n      gt\n        /* \"#utility.yul\":16755:16792   */\n      iszero\n      tag_338\n      jumpi\n        /* \"#utility.yul\":16772:16790   */\n      tag_339\n      tag_170\n      jump\t// in\n    tag_339:\n        /* \"#utility.yul\":16755:16792   */\n    tag_338:\n        /* \"#utility.yul\":16605:16799   */\n      swap3\n      swap2\n      pop\n      pop\n      jump\t// out\n        /* \"#utility.yul\":16805:16996   */\n    tag_92:\n        /* \"#utility.yul\":16845:16848   */\n      0x00\n        /* \"#utility.yul\":16864:16884   */\n      tag_341\n        /* \"#utility.yul\":16882:16883   */\n      dup3\n        /* \"#utility.yul\":16864:16884   */\n      tag_117\n      jump\t// in\n    tag_341:\n        /* \"#utility.yul\":16859:16884   */\n      swap2\n      pop\n        /* \"#utility.yul\":16898:16918   */\n      tag_342\n        /* \"#utility.yul\":16916:16917   */\n      dup4\n        /* \"#utility.yul\":16898:16918   */\n      tag_117\n      jump\t// in\n    tag_342:\n        /* \"#utility.yul\":16893:16918   */\n      swap3\n      pop\n        /* \"#utility.yul\":16941:16942   */\n      dup3\n        /* \"#utility.yul\":16938:16939   */\n      dup3\n        /* \"#utility.yul\":16934:16943   */\n      add\n        /* \"#utility.yul\":16927:16943   */\n      swap1\n      pop\n        /* \"#utility.yul\":16962:16965   */\n      dup1\n        /* \"#utility.yul\":16959:16960   */\n      dup3\n        /* \"#utility.yul\":16956:16966   */\n      gt\n        /* \"#utility.yul\":16953:16989   */\n      iszero\n      tag_343\n      jumpi\n        /* \"#utility.yul\":16969:16987   */\n      tag_344\n      tag_170\n      jump\t// in\n    tag_344:\n        /* \"#utility.yul\":16953:16989   */\n    tag_343:\n        /* \"#utility.yul\":16805:16996   */\n      swap3\n      swap2\n      pop\n      pop\n      jump\t// out\n        /* \"#utility.yul\":17002:17151   */\n    tag_171:\n        /* \"#utility.yul\":17051:17057   */\n      0x00\n        /* \"#utility.yul\":17085:17090   */\n      dup2\n        /* \"#utility.yul\":17079:17091   */\n      sload\n        /* \"#utility.yul\":17069:17091   */\n      swap1\n      pop\n        /* \"#utility.yul\":17111:17144   */\n      tag_346\n        /* \"#utility.yul\":17137:17143   */\n      dup2\n        /* \"#utility.yul\":17111:17144   */\n      tag_39\n      jump\t// in\n    tag_346:\n        /* \"#utility.yul\":17101:17144   */\n      swap1\n      pop\n        /* \"#utility.yul\":17002:17151   */\n      swap2\n      swap1\n      pop\n      jump\t// out\n        /* \"#utility.yul\":17157:18608   */\n    tag_100:\n        /* \"#utility.yul\":17268:17271   */\n      dup2\n        /* \"#utility.yul\":17262:17266   */\n      dup2\n        /* \"#utility.yul\":17259:17272   */\n      sub\n        /* \"#utility.yul\":17256:17282   */\n      tag_348\n      jumpi\n        /* \"#utility.yul\":17275:17280   */\n      pop\n      pop\n      jump(tag_347)\n        /* \"#utility.yul\":17256:17282   */\n    tag_348:\n        /* \"#utility.yul\":17306:17340   */\n      tag_349\n        /* \"#utility.yul\":17336:17339   */\n      dup3\n        /* \"#utility.yul\":17306:17340   */\n      tag_171\n      jump\t// in\n    tag_349:\n        /* \"#utility.yul\":17405:17423   */\n      0xffffffffffffffff\n        /* \"#utility.yul\":17397:17403   */\n      dup2\n        /* \"#utility.yul\":17394:17424   */\n      gt\n        /* \"#utility.yul\":17391:17447   */\n      iszero\n      tag_350\n      jumpi\n        /* \"#utility.yul\":17427:17445   */\n      tag_351\n      tag_141\n      jump\t// in\n    tag_351:\n        /* \"#utility.yul\":17391:17447   */\n    tag_350:\n        /* \"#utility.yul\":17471:17509   */\n      tag_352\n        /* \"#utility.yul\":17503:17507   */\n      dup3\n        /* \"#utility.yul\":17497:17508   */\n      sload\n        /* \"#utility.yul\":17471:17509   */\n      tag_39\n      jump\t// in\n    tag_352:\n        /* \"#utility.yul\":17556:17623   */\n      tag_353\n        /* \"#utility.yul\":17616:17622   */\n      dup3\n        /* \"#utility.yul\":17608:17614   */\n      dup3\n        /* \"#utility.yul\":17602:17606   */\n      dup6\n        /* \"#utility.yul\":17556:17623   */\n      tag_163\n      jump\t// in\n    tag_353:\n        /* \"#utility.yul\":17650:17651   */\n      0x00\n        /* \"#utility.yul\":17679:17681   */\n      0x1f\n        /* \"#utility.yul\":17671:17677   */\n      dup4\n        /* \"#utility.yul\":17668:17682   */\n      gt\n        /* \"#utility.yul\":17696:17697   */\n      0x01\n        /* \"#utility.yul\":17691:18363   */\n      dup2\n      eq\n      tag_355\n      jumpi\n        /* \"#utility.yul\":18407:18408   */\n      0x00\n        /* \"#utility.yul\":18424:18430   */\n      dup5\n        /* \"#utility.yul\":18421:18498   */\n      iszero\n      tag_356\n      jumpi\n        /* \"#utility.yul\":18473:18482   */\n      dup3\n        /* \"#utility.yul\":18468:18471   */\n      dup8\n        /* \"#utility.yul\":18464:18483   */\n      add\n        /* \"#utility.yul\":18458:18484   */\n      sload\n        /* \"#utility.yul\":18449:18484   */\n      swap1\n      pop\n        /* \"#utility.yul\":18421:18498   */\n    tag_356:\n        /* \"#utility.yul\":18524:18591   */\n      tag_357\n        /* \"#utility.yul\":18584:18590   */\n      dup6\n        /* \"#utility.yul\":18577:18582   */\n      dup3\n        /* \"#utility.yul\":18524:18591   */\n      tag_166\n      jump\t// in\n    tag_357:\n        /* \"#utility.yul\":18518:18522   */\n      dup7\n        /* \"#utility.yul\":18511:18592   */\n      sstore\n        /* \"#utility.yul\":18380:18602   */\n      pop\n        /* \"#utility.yul\":17661:18602   */\n      jump(tag_354)\n        /* \"#utility.yul\":17691:18363   */\n    tag_355:\n        /* \"#utility.yul\":17743:17747   */\n      0x1f\n        /* \"#utility.yul\":17739:17748   */\n      not\n        /* \"#utility.yul\":17731:17737   */\n      dup5\n        /* \"#utility.yul\":17727:17749   */\n      and\n        /* \"#utility.yul\":17769:17805   */\n      tag_358\n        /* \"#utility.yul\":17801:17804   */\n      dup8\n        /* \"#utility.yul\":17769:17805   */\n      tag_152\n      jump\t// in\n    tag_358:\n        /* \"#utility.yul\":17762:17805   */\n      swap7\n      pop\n        /* \"#utility.yul\":17832:17869   */\n      tag_359\n        /* \"#utility.yul\":17864:17868   */\n      dup7\n        /* \"#utility.yul\":17832:17869   */\n      tag_152\n      jump\t// in\n    tag_359:\n        /* \"#utility.yul\":17891:17892   */\n      0x00\n        /* \"#utility.yul\":17905:18112   */\n    tag_360:\n        /* \"#utility.yul\":17919:17926   */\n      dup3\n        /* \"#utility.yul\":17916:17917   */\n      dup2\n        /* \"#utility.yul\":17913:17927   */\n      lt\n        /* \"#utility.yul\":17905:18112   */\n      iszero\n      tag_362\n      jumpi\n        /* \"#utility.yul\":17998:18007   */\n      dup5\n        /* \"#utility.yul\":17993:17996   */\n      dup10\n        /* \"#utility.yul\":17989:18008   */\n      add\n        /* \"#utility.yul\":17983:18009   */\n      sload\n        /* \"#utility.yul\":17975:17981   */\n      dup3\n        /* \"#utility.yul\":17968:18010   */\n      sstore\n        /* \"#utility.yul\":18049:18050   */\n      0x01\n        /* \"#utility.yul\":18041:18047   */\n      dup3\n        /* \"#utility.yul\":18037:18051   */\n      add\n        /* \"#utility.yul\":18027:18051   */\n      swap2\n      pop\n        /* \"#utility.yul\":18096:18097   */\n      0x01\n        /* \"#utility.yul\":18085:18094   */\n      dup6\n        /* \"#utility.yul\":18081:18098   */\n      add\n        /* \"#utility.yul\":18068:18098   */\n      swap5\n      pop\n        /* \"#utility.yul\":17942:17946   */\n      0x20\n        /* \"#utility.yul\":17939:17940   */\n      dup2\n        /* \"#utility.yul\":17935:17947   */\n      add\n        /* \"#utility.yul\":17930:17947   */\n      swap1\n      pop\n        /* \"#utility.yul\":17905:18112   */\n      jump(tag_360)\n    tag_362:\n        /* \"#utility.yul\":18140:18146   */\n      dup7\n        /* \"#utility.yul\":18131:18138   */\n      dup4\n        /* \"#utility.yul\":18128:18147   */\n      lt\n        /* \"#utility.yul\":18125:18304   */\n      iszero\n      tag_363\n      jumpi\n        /* \"#utility.yul\":18198:18207   */\n      dup5\n        /* \"#utility.yul\":18193:18196   */\n      dup10\n        /* \"#utility.yul\":18189:18208   */\n      add\n        /* \"#utility.yul\":18183:18209   */\n      sload\n        /* \"#utility.yul\":18241:18289   */\n      tag_364\n        /* \"#utility.yul\":18283:18287   */\n      0x1f\n        /* \"#utility.yul\":18275:18281   */\n      dup10\n        /* \"#utility.yul\":18271:18288   */\n      and\n        /* \"#utility.yul\":18260:18269   */\n      dup3\n        /* \"#utility.yul\":18241:18289   */\n      tag_165\n      jump\t// in\n    tag_364:\n        /* \"#utility.yul\":18233:18239   */\n      dup4\n        /* \"#utility.yul\":18226:18290   */\n      sstore\n        /* \"#utility.yul\":18148:18304   */\n      pop\n        /* \"#utility.yul\":18125:18304   */\n    tag_363:\n        /* \"#utility.yul\":18350:18351   */\n      0x01\n        /* \"#utility.yul\":18346:18347   */\n      0x02\n        /* \"#utility.yul\":18338:18344   */\n      dup9\n        /* \"#utility.yul\":18334:18348   */\n      mul\n        /* \"#utility.yul\":18330:18352   */\n      add\n        /* \"#utility.yul\":18324:18328   */\n      dup9\n        /* \"#utility.yul\":18317:18353   */\n      sstore\n        /* \"#utility.yul\":17698:18363   */\n      pop\n      pop\n      pop\n        /* \"#utility.yul\":17661:18602   */\n    tag_354:\n      pop\n        /* \"#utility.yul\":17246:18608   */\n      pop\n      pop\n      pop\n        /* \"#utility.yul\":17157:18608   */\n      pop\n      pop\n    tag_347:\n      jump\t// out\n        /* \"#utility.yul\":18614:18794   */\n    tag_103:\n        /* \"#utility.yul\":18662:18739   */\n      0x4e487b7100000000000000000000000000000000000000000000000000000000\n        /* \"#utility.yul\":18659:18660   */\n      0x00\n        /* \"#utility.yul\":18652:18740   */\n      mstore\n        /* \"#utility.yul\":18759:18763   */\n      0x31\n        /* \"#utility.yul\":18756:18757   */\n      0x04\n        /* \"#utility.yul\":18749:18764   */\n      mstore\n        /* \"#utility.yul\":18783:18787   */\n      0x24\n        /* \"#utility.yul\":18780:18781   */\n      0x00\n        /* \"#utility.yul\":18773:18788   */\n      revert\n\n    auxdata: 0xa264697066735822122075548de2bae9ec2a5b7b032da95fd61924e5f43e7daeb7a32e4d47fe8289507664736f6c634300081a0033\n}\n",
				"bytecode": {
					"linkReferences": {},
					"object": "6080604052348015600e575f80fd5b50335f806101000a81548173ffffffffffffffffffffffffffffffffffffffff021916908373ffffffffffffffffffffffffffffffffffffffff1602179055506112088061005b5f395ff3fe608060405260043610610054575f3560e01c80632a08deda146100585780635a0d854f1461008257806369c68311146100ac5780636e7301fd146100d45780639e36d493146100de578063cf701f31146100f4575b5f80fd5b348015610063575f80fd5b5061006c61011c565b60405161007991906107d0565b60405180910390f35b34801561008d575f80fd5b50610096610123565b6040516100a3919061098d565b60405180910390f35b3480156100b7575f80fd5b506100d260048036038101906100cd9190610b14565b610263565b005b6100dc610454565b005b3480156100e9575f80fd5b506100f2610456565b005b3480156100ff575f80fd5b5061011a60048036038101906101159190610b6e565b610524565b005b5f47905090565b60606001805480602002602001604051908101604052809291908181526020015f905b8282101561025a578382905f5260205f2090600202016040518060400160405290815f82015f9054906101000a900473ffffffffffffffffffffffffffffffffffffffff1673ffffffffffffffffffffffffffffffffffffffff1673ffffffffffffffffffffffffffffffffffffffff1681526020016001820180546101cb90610bc6565b80601f01602080910402602001604051908101604052809291908181526020018280546101f790610bc6565b80156102425780601f1061021957610100808354040283529160200191610242565b820191905f5260205f20905b81548152906001019060200180831161022557829003601f168201915b50505050508152505081526020019060010190610146565b50505050905090565b5f8054906101000a900473ffffffffffffffffffffffffffffffffffffffff1673ffffffffffffffffffffffffffffffffffffffff163373ffffffffffffffffffffffffffffffffffffffff16146102f0576040517f08c379a00000000000000000000000000000000000000000000000000000000081526004016102e790610c76565b60405180910390fd5b5f6001808054905010610394575f5b600180549050811015610392578373ffffffffffffffffffffffffffffffffffffffff166001828154811061033757610336610c94565b5b905f5260205f2090600202015f015f9054906101000a900473ffffffffffffffffffffffffffffffffffffffff1673ffffffffffffffffffffffffffffffffffffffff160361038557600191505b80806001019150506102ff565b505b5f15158115150361044f57600160405180604001604052808573ffffffffffffffffffffffffffffffffffffffff16815260200184815250908060018154018082558091505060019003905f5260205f2090600202015f909190919091505f820151815f015f6101000a81548173ffffffffffffffffffffffffffffffffffffffff021916908373ffffffffffffffffffffffffffffffffffffffff160217905550602082015181600101908161044b9190610e5e565b5050505b505050565b565b5f4711610498576040517f08c379a000000000000000000000000000000000000000000000000000000000815260040161048f90610f9d565b60405180910390fd5b6001808054905010610522575f600180549050476104b69190611015565b90505f5b60018054905081101561051f57610512600182815481106104de576104dd610c94565b5b905f5260205f2090600202015f015f9054906101000a900473ffffffffffffffffffffffffffffffffffffffff1683610718565b80806001019150506104ba565b50505b565b6001808054905010610715575f5b600180549050811015610713578173ffffffffffffffffffffffffffffffffffffffff166001828154811061056a57610569610c94565b5b905f5260205f2090600202015f015f9054906101000a900473ffffffffffffffffffffffffffffffffffffffff1673ffffffffffffffffffffffffffffffffffffffff1603610706575f8190505b600180805490506105c99190611045565b8110156106a357600180826105de9190611078565b815481106105ef576105ee610c94565b5b905f5260205f2090600202016001828154811061060f5761060e610c94565b5b905f5260205f2090600202015f82015f9054906101000a900473ffffffffffffffffffffffffffffffffffffffff16815f015f6101000a81548173ffffffffffffffffffffffffffffffffffffffff021916908373ffffffffffffffffffffffffffffffffffffffff1602179055506001820181600101908161069291906110c0565b5090505080806001019150506105b8565b5060018054806106b6576106b56111a5565b5b600190038181905f5260205f2090600202015f8082015f6101000a81549073ffffffffffffffffffffffffffffffffffffffff0219169055600182015f6106fd9190610760565b50509055610713565b8080600101915050610532565b505b50565b8173ffffffffffffffffffffffffffffffffffffffff166108fc8290811502906040515f60405180830381858888f1935050505015801561075b573d5f803e3d5ffd5b505050565b50805461076c90610bc6565b5f825580601f1061077d575061079a565b601f0160209004905f5260205f2090810190610799919061079d565b5b50565b5b808211156107b4575f815f90555060010161079e565b5090565b5f819050919050565b6107ca816107b8565b82525050565b5f6020820190506107e35f8301846107c1565b92915050565b5f81519050919050565b5f82825260208201905092915050565b5f819050602082019050919050565b5f73ffffffffffffffffffffffffffffffffffffffff82169050919050565b5f61083b82610812565b9050919050565b61084b81610831565b82525050565b5f81519050919050565b5f82825260208201905092915050565b8281835e5f83830152505050565b5f601f19601f8301169050919050565b5f61089382610851565b61089d818561085b565b93506108ad81856020860161086b565b6108b681610879565b840191505092915050565b5f604083015f8301516108d65f860182610842565b50602083015184820360208601526108ee8282610889565b9150508091505092915050565b5f61090683836108c1565b905092915050565b5f602082019050919050565b5f610924826107e9565b61092e81856107f3565b93508360208202850161094085610803565b805f5b8581101561097b578484038952815161095c85826108fb565b94506109678361090e565b925060208a01995050600181019050610943565b50829750879550505050505092915050565b5f6020820190508181035f8301526109a5818461091a565b905092915050565b5f604051905090565b5f80fd5b5f80fd5b6109c781610831565b81146109d1575f80fd5b50565b5f813590506109e2816109be565b92915050565b5f80fd5b5f80fd5b7f4e487b71000000000000000000000000000000000000000000000000000000005f52604160045260245ffd5b610a2682610879565b810181811067ffffffffffffffff82111715610a4557610a446109f0565b5b80604052505050565b5f610a576109ad565b9050610a638282610a1d565b919050565b5f67ffffffffffffffff821115610a8257610a816109f0565b5b610a8b82610879565b9050602081019050919050565b828183375f83830152505050565b5f610ab8610ab384610a68565b610a4e565b905082815260208101848484011115610ad457610ad36109ec565b5b610adf848285610a98565b509392505050565b5f82601f830112610afb57610afa6109e8565b5b8135610b0b848260208601610aa6565b91505092915050565b5f8060408385031215610b2a57610b296109b6565b5b5f610b37858286016109d4565b925050602083013567ffffffffffffffff811115610b5857610b576109ba565b5b610b6485828601610ae7565b9150509250929050565b5f60208284031215610b8357610b826109b6565b5b5f610b90848285016109d4565b91505092915050565b7f4e487b71000000000000000000000000000000000000000000000000000000005f52602260045260245ffd5b5f6002820490506001821680610bdd57607f821691505b602082108103610bf057610bef610b99565b5b50919050565b5f82825260208201905092915050565b7f4f6e6c7920746865206f776e65722063616e2063616c6c20746869732066756e5f8201527f6374696f6e000000000000000000000000000000000000000000000000000000602082015250565b5f610c60602583610bf6565b9150610c6b82610c06565b604082019050919050565b5f6020820190508181035f830152610c8d81610c54565b9050919050565b7f4e487b71000000000000000000000000000000000000000000000000000000005f52603260045260245ffd5b5f819050815f5260205f209050919050565b5f6020601f8301049050919050565b5f82821b905092915050565b5f60088302610d1d7fffffffffffffffffffffffffffffffffffffffffffffffffffffffffffffffff82610ce2565b610d278683610ce2565b95508019841693508086168417925050509392505050565b5f819050919050565b5f610d62610d5d610d58846107b8565b610d3f565b6107b8565b9050919050565b5f819050919050565b610d7b83610d48565b610d8f610d8782610d69565b848454610cee565b825550505050565b5f90565b610da3610d97565b610dae818484610d72565b505050565b5b81811015610dd157610dc65f82610d9b565b600181019050610db4565b5050565b601f821115610e1657610de781610cc1565b610df084610cd3565b81016020851015610dff578190505b610e13610e0b85610cd3565b830182610db3565b50505b505050565b5f82821c905092915050565b5f610e365f1984600802610e1b565b1980831691505092915050565b5f610e4e8383610e27565b9150826002028217905092915050565b610e6782610851565b67ffffffffffffffff811115610e8057610e7f6109f0565b5b610e8a8254610bc6565b610e95828285610dd5565b5f60209050601f831160018114610ec6575f8415610eb4578287015190505b610ebe8582610e43565b865550610f25565b601f198416610ed486610cc1565b5f5b82811015610efb57848901518255600182019150602085019450602081019050610ed6565b86831015610f185784890151610f14601f891682610e27565b8355505b6001600288020188555050505b505050505050565b7f496e73756666696369656e742062616c616e636520696e2074686520636f6e745f8201527f7261637400000000000000000000000000000000000000000000000000000000602082015250565b5f610f87602483610bf6565b9150610f9282610f2d565b604082019050919050565b5f6020820190508181035f830152610fb481610f7b565b9050919050565b7f4e487b71000000000000000000000000000000000000000000000000000000005f52601260045260245ffd5b7f4e487b71000000000000000000000000000000000000000000000000000000005f52601160045260245ffd5b5f61101f826107b8565b915061102a836107b8565b92508261103a57611039610fbb565b5b828204905092915050565b5f61104f826107b8565b915061105a836107b8565b925082820390508181111561107257611071610fe8565b5b92915050565b5f611082826107b8565b915061108d836107b8565b92508282019050808211156110a5576110a4610fe8565b5b92915050565b5f815490506110b981610bc6565b9050919050565b8181036110ce5750506111a3565b6110d7826110ab565b67ffffffffffffffff8111156110f0576110ef6109f0565b5b6110fa8254610bc6565b611105828285610dd5565b5f601f831160018114611132575f8415611120578287015490505b61112a8582610e43565b86555061119c565b601f19841661114087610cc1565b965061114b86610cc1565b5f5b828110156111725784890154825560018201915060018501945060208101905061114d565b8683101561118f578489015461118b601f891682610e27565b8355505b6001600288020188555050505b5050505050505b565b7f4e487b71000000000000000000000000000000000000000000000000000000005f52603160045260245ffdfea264697066735822122075548de2bae9ec2a5b7b032da95fd61924e5f43e7daeb7a32e4d47fe8289507664736f6c634300081a0033",
					"opcodes": "PUSH1 0x80 PUSH1 0x40 MSTORE CALLVALUE DUP1 ISZERO PUSH1 0xE JUMPI PUSH0 DUP1 REVERT JUMPDEST POP CALLER PUSH0 DUP1 PUSH2 0x100 EXP DUP2 SLOAD DUP2 PUSH20 0xFFFFFFFFFFFFFFFFFFFFFFFFFFFFFFFFFFFFFFFF MUL NOT AND SWAP1 DUP4 PUSH20 0xFFFFFFFFFFFFFFFFFFFFFFFFFFFFFFFFFFFFFFFF AND MUL OR SWAP1 SSTORE POP PUSH2 0x1208 DUP1 PUSH2 0x5B PUSH0 CODECOPY PUSH0 RETURN INVALID PUSH1 0x80 PUSH1 0x40 MSTORE PUSH1 0x4 CALLDATASIZE LT PUSH2 0x54 JUMPI PUSH0 CALLDATALOAD PUSH1 0xE0 SHR DUP1 PUSH4 0x2A08DEDA EQ PUSH2 0x58 JUMPI DUP1 PUSH4 0x5A0D854F EQ PUSH2 0x82 JUMPI DUP1 PUSH4 0x69C68311 EQ PUSH2 0xAC JUMPI DUP1 PUSH4 0x6E7301FD EQ PUSH2 0xD4 JUMPI DUP1 PUSH4 0x9E36D493 EQ PUSH2 0xDE JUMPI DUP1 PUSH4 0xCF701F31 EQ PUSH2 0xF4 JUMPI JUMPDEST PUSH0 DUP1 REVERT JUMPDEST CALLVALUE DUP1 ISZERO PUSH2 0x63 JUMPI PUSH0 DUP1 REVERT JUMPDEST POP PUSH2 0x6C PUSH2 0x11C JUMP JUMPDEST PUSH1 0x40 MLOAD PUSH2 0x79 SWAP2 SWAP1 PUSH2 0x7D0 JUMP JUMPDEST PUSH1 0x40 MLOAD DUP1 SWAP2 SUB SWAP1 RETURN JUMPDEST CALLVALUE DUP1 ISZERO PUSH2 0x8D JUMPI PUSH0 DUP1 REVERT JUMPDEST POP PUSH2 0x96 PUSH2 0x123 JUMP JUMPDEST PUSH1 0x40 MLOAD PUSH2 0xA3 SWAP2 SWAP1 PUSH2 0x98D JUMP JUMPDEST PUSH1 0x40 MLOAD DUP1 SWAP2 SUB SWAP1 RETURN JUMPDEST CALLVALUE DUP1 ISZERO PUSH2 0xB7 JUMPI PUSH0 DUP1 REVERT JUMPDEST POP PUSH2 0xD2 PUSH1 0x4 DUP1 CALLDATASIZE SUB DUP2 ADD SWAP1 PUSH2 0xCD SWAP2 SWAP1 PUSH2 0xB14 JUMP JUMPDEST PUSH2 0x263 JUMP JUMPDEST STOP JUMPDEST PUSH2 0xDC PUSH2 0x454 JUMP JUMPDEST STOP JUMPDEST CALLVALUE DUP1 ISZERO PUSH2 0xE9 JUMPI PUSH0 DUP1 REVERT JUMPDEST POP PUSH2 0xF2 PUSH2 0x456 JUMP JUMPDEST STOP JUMPDEST CALLVALUE DUP1 ISZERO PUSH2 0xFF JUMPI PUSH0 DUP1 REVERT JUMPDEST POP PUSH2 0x11A PUSH1 0x4 DUP1 CALLDATASIZE SUB DUP2 ADD SWAP1 PUSH2 0x115 SWAP2 SWAP1 PUSH2 0xB6E JUMP JUMPDEST PUSH2 0x524 JUMP JUMPDEST STOP JUMPDEST PUSH0 SELFBALANCE SWAP1 POP SWAP1 JUMP JUMPDEST PUSH1 0x60 PUSH1 0x1 DUP1 SLOAD DUP1 PUSH1 0x20 MUL PUSH1 0x20 ADD PUSH1 0x40 MLOAD SWAP1 DUP2 ADD PUSH1 0x40 MSTORE DUP1 SWAP3 SWAP2 SWAP1 DUP2 DUP2 MSTORE PUSH1 0x20 ADD PUSH0 SWAP1 JUMPDEST DUP3 DUP3 LT ISZERO PUSH2 0x25A JUMPI DUP4 DUP3 SWAP1 PUSH0 MSTORE PUSH1 0x20 PUSH0 KECCAK256 SWAP1 PUSH1 0x2 MUL ADD PUSH1 0x40 MLOAD DUP1 PUSH1 0x40 ADD PUSH1 0x40 MSTORE SWAP1 DUP2 PUSH0 DUP3 ADD PUSH0 SWAP1 SLOAD SWAP1 PUSH2 0x100 EXP SWAP1 DIV PUSH20 0xFFFFFFFFFFFFFFFFFFFFFFFFFFFFFFFFFFFFFFFF AND PUSH20 0xFFFFFFFFFFFFFFFFFFFFFFFFFFFFFFFFFFFFFFFF AND PUSH20 0xFFFFFFFFFFFFFFFFFFFFFFFFFFFFFFFFFFFFFFFF AND DUP2 MSTORE PUSH1 0x20 ADD PUSH1 0x1 DUP3 ADD DUP1 SLOAD PUSH2 0x1CB SWAP1 PUSH2 0xBC6 JUMP JUMPDEST DUP1 PUSH1 0x1F ADD PUSH1 0x20 DUP1 SWAP2 DIV MUL PUSH1 0x20 ADD PUSH1 0x40 MLOAD SWAP1 DUP2 ADD PUSH1 0x40 MSTORE DUP1 SWAP3 SWAP2 SWAP1 DUP2 DUP2 MSTORE PUSH1 0x20 ADD DUP3 DUP1 SLOAD PUSH2 0x1F7 SWAP1 PUSH2 0xBC6 JUMP JUMPDEST DUP1 ISZERO PUSH2 0x242 JUMPI DUP1 PUSH1 0x1F LT PUSH2 0x219 JUMPI PUSH2 0x100 DUP1 DUP4 SLOAD DIV MUL DUP4 MSTORE SWAP2 PUSH1 0x20 ADD SWAP2 PUSH2 0x242 JUMP JUMPDEST DUP3 ADD SWAP2 SWAP1 PUSH0 MSTORE PUSH1 0x20 PUSH0 KECCAK256 SWAP1 JUMPDEST DUP2 SLOAD DUP2 MSTORE SWAP1 PUSH1 0x1 ADD SWAP1 PUSH1 0x20 ADD DUP1 DUP4 GT PUSH2 0x225 JUMPI DUP3 SWAP1 SUB PUSH1 0x1F AND DUP3 ADD SWAP2 JUMPDEST POP POP POP POP POP DUP2 MSTORE POP POP DUP2 MSTORE PUSH1 0x20 ADD SWAP1 PUSH1 0x1 ADD SWAP1 PUSH2 0x146 JUMP JUMPDEST POP POP POP POP SWAP1 POP SWAP1 JUMP JUMPDEST PUSH0 DUP1 SLOAD SWAP1 PUSH2 0x100 EXP SWAP1 DIV PUSH20 0xFFFFFFFFFFFFFFFFFFFFFFFFFFFFFFFFFFFFFFFF AND PUSH20 0xFFFFFFFFFFFFFFFFFFFFFFFFFFFFFFFFFFFFFFFF AND CALLER PUSH20 0xFFFFFFFFFFFFFFFFFFFFFFFFFFFFFFFFFFFFFFFF AND EQ PUSH2 0x2F0 JUMPI PUSH1 0x40 MLOAD PUSH32 0x8C379A000000000000000000000000000000000000000000000000000000000 DUP2 MSTORE PUSH1 0x4 ADD PUSH2 0x2E7 SWAP1 PUSH2 0xC76 JUMP JUMPDEST PUSH1 0x40 MLOAD DUP1 SWAP2 SUB SWAP1 REVERT JUMPDEST PUSH0 PUSH1 0x1 DUP1 DUP1 SLOAD SWAP1 POP LT PUSH2 0x394 JUMPI PUSH0 JUMPDEST PUSH1 0x1 DUP1 SLOAD SWAP1 POP DUP2 LT ISZERO PUSH2 0x392 JUMPI DUP4 PUSH20 0xFFFFFFFFFFFFFFFFFFFFFFFFFFFFFFFFFFFFFFFF AND PUSH1 0x1 DUP3 DUP2 SLOAD DUP2 LT PUSH2 0x337 JUMPI PUSH2 0x336 PUSH2 0xC94 JUMP JUMPDEST JUMPDEST SWAP1 PUSH0 MSTORE PUSH1 0x20 PUSH0 KECCAK256 SWAP1 PUSH1 0x2 MUL ADD PUSH0 ADD PUSH0 SWAP1 SLOAD SWAP1 PUSH2 0x100 EXP SWAP1 DIV PUSH20 0xFFFFFFFFFFFFFFFFFFFFFFFFFFFFFFFFFFFFFFFF AND PUSH20 0xFFFFFFFFFFFFFFFFFFFFFFFFFFFFFFFFFFFFFFFF AND SUB PUSH2 0x385 JUMPI PUSH1 0x1 SWAP2 POP JUMPDEST DUP1 DUP1 PUSH1 0x1 ADD SWAP2 POP POP PUSH2 0x2FF JUMP JUMPDEST POP JUMPDEST PUSH0 ISZERO ISZERO DUP2 ISZERO ISZERO SUB PUSH2 0x44F JUMPI PUSH1 0x1 PUSH1 0x40 MLOAD DUP1 PUSH1 0x40 ADD PUSH1 0x40 MSTORE DUP1 DUP6 PUSH20 0xFFFFFFFFFFFFFFFFFFFFFFFFFFFFFFFFFFFFFFFF AND DUP2 MSTORE PUSH1 0x20 ADD DUP5 DUP2 MSTORE POP SWAP1 DUP1 PUSH1 0x1 DUP2 SLOAD ADD DUP1 DUP3 SSTORE DUP1 SWAP2 POP POP PUSH1 0x1 SWAP1 SUB SWAP1 PUSH0 MSTORE PUSH1 0x20 PUSH0 KECCAK256 SWAP1 PUSH1 0x2 MUL ADD PUSH0 SWAP1 SWAP2 SWAP1 SWAP2 SWAP1 SWAP2 POP PUSH0 DUP3 ADD MLOAD DUP2 PUSH0 ADD PUSH0 PUSH2 0x100 EXP DUP2 SLOAD DUP2 PUSH20 0xFFFFFFFFFFFFFFFFFFFFFFFFFFFFFFFFFFFFFFFF MUL NOT AND SWAP1 DUP4 PUSH20 0xFFFFFFFFFFFFFFFFFFFFFFFFFFFFFFFFFFFFFFFF AND MUL OR SWAP1 SSTORE POP PUSH1 0x20 DUP3 ADD MLOAD DUP2 PUSH1 0x1 ADD SWAP1 DUP2 PUSH2 0x44B SWAP2 SWAP1 PUSH2 0xE5E JUMP JUMPDEST POP POP POP JUMPDEST POP POP POP JUMP JUMPDEST JUMP JUMPDEST PUSH0 SELFBALANCE GT PUSH2 0x498 JUMPI PUSH1 0x40 MLOAD PUSH32 0x8C379A000000000000000000000000000000000000000000000000000000000 DUP2 MSTORE PUSH1 0x4 ADD PUSH2 0x48F SWAP1 PUSH2 0xF9D JUMP JUMPDEST PUSH1 0x40 MLOAD DUP1 SWAP2 SUB SWAP1 REVERT JUMPDEST PUSH1 0x1 DUP1 DUP1 SLOAD SWAP1 POP LT PUSH2 0x522 JUMPI PUSH0 PUSH1 0x1 DUP1 SLOAD SWAP1 POP SELFBALANCE PUSH2 0x4B6 SWAP2 SWAP1 PUSH2 0x1015 JUMP JUMPDEST SWAP1 POP PUSH0 JUMPDEST PUSH1 0x1 DUP1 SLOAD SWAP1 POP DUP2 LT ISZERO PUSH2 0x51F JUMPI PUSH2 0x512 PUSH1 0x1 DUP3 DUP2 SLOAD DUP2 LT PUSH2 0x4DE JUMPI PUSH2 0x4DD PUSH2 0xC94 JUMP JUMPDEST JUMPDEST SWAP1 PUSH0 MSTORE PUSH1 0x20 PUSH0 KECCAK256 SWAP1 PUSH1 0x2 MUL ADD PUSH0 ADD PUSH0 SWAP1 SLOAD SWAP1 PUSH2 0x100 EXP SWAP1 DIV PUSH20 0xFFFFFFFFFFFFFFFFFFFFFFFFFFFFFFFFFFFFFFFF AND DUP4 PUSH2 0x718 JUMP JUMPDEST DUP1 DUP1 PUSH1 0x1 ADD SWAP2 POP POP PUSH2 0x4BA JUMP JUMPDEST POP POP JUMPDEST JUMP JUMPDEST PUSH1 0x1 DUP1 DUP1 SLOAD SWAP1 POP LT PUSH2 0x715 JUMPI PUSH0 JUMPDEST PUSH1 0x1 DUP1 SLOAD SWAP1 POP DUP2 LT ISZERO PUSH2 0x713 JUMPI DUP2 PUSH20 0xFFFFFFFFFFFFFFFFFFFFFFFFFFFFFFFFFFFFFFFF AND PUSH1 0x1 DUP3 DUP2 SLOAD DUP2 LT PUSH2 0x56A JUMPI PUSH2 0x569 PUSH2 0xC94 JUMP JUMPDEST JUMPDEST SWAP1 PUSH0 MSTORE PUSH1 0x20 PUSH0 KECCAK256 SWAP1 PUSH1 0x2 MUL ADD PUSH0 ADD PUSH0 SWAP1 SLOAD SWAP1 PUSH2 0x100 EXP SWAP1 DIV PUSH20 0xFFFFFFFFFFFFFFFFFFFFFFFFFFFFFFFFFFFFFFFF AND PUSH20 0xFFFFFFFFFFFFFFFFFFFFFFFFFFFFFFFFFFFFFFFF AND SUB PUSH2 0x706 JUMPI PUSH0 DUP2 SWAP1 POP JUMPDEST PUSH1 0x1 DUP1 DUP1 SLOAD SWAP1 POP PUSH2 0x5C9 SWAP2 SWAP1 PUSH2 0x1045 JUMP JUMPDEST DUP2 LT ISZERO PUSH2 0x6A3 JUMPI PUSH1 0x1 DUP1 DUP3 PUSH2 0x5DE SWAP2 SWAP1 PUSH2 0x1078 JUMP JUMPDEST DUP2 SLOAD DUP2 LT PUSH2 0x5EF JUMPI PUSH2 0x5EE PUSH2 0xC94 JUMP JUMPDEST JUMPDEST SWAP1 PUSH0 MSTORE PUSH1 0x20 PUSH0 KECCAK256 SWAP1 PUSH1 0x2 MUL ADD PUSH1 0x1 DUP3 DUP2 SLOAD DUP2 LT PUSH2 0x60F JUMPI PUSH2 0x60E PUSH2 0xC94 JUMP JUMPDEST JUMPDEST SWAP1 PUSH0 MSTORE PUSH1 0x20 PUSH0 KECCAK256 SWAP1 PUSH1 0x2 MUL ADD PUSH0 DUP3 ADD PUSH0 SWAP1 SLOAD SWAP1 PUSH2 0x100 EXP SWAP1 DIV PUSH20 0xFFFFFFFFFFFFFFFFFFFFFFFFFFFFFFFFFFFFFFFF AND DUP2 PUSH0 ADD PUSH0 PUSH2 0x100 EXP DUP2 SLOAD DUP2 PUSH20 0xFFFFFFFFFFFFFFFFFFFFFFFFFFFFFFFFFFFFFFFF MUL NOT AND SWAP1 DUP4 PUSH20 0xFFFFFFFFFFFFFFFFFFFFFFFFFFFFFFFFFFFFFFFF AND MUL OR SWAP1 SSTORE POP PUSH1 0x1 DUP3 ADD DUP2 PUSH1 0x1 ADD SWAP1 DUP2 PUSH2 0x692 SWAP2 SWAP1 PUSH2 0x10C0 JUMP JUMPDEST POP SWAP1 POP POP DUP1 DUP1 PUSH1 0x1 ADD SWAP2 POP POP PUSH2 0x5B8 JUMP JUMPDEST POP PUSH1 0x1 DUP1 SLOAD DUP1 PUSH2 0x6B6 JUMPI PUSH2 0x6B5 PUSH2 0x11A5 JUMP JUMPDEST JUMPDEST PUSH1 0x1 SWAP1 SUB DUP2 DUP2 SWAP1 PUSH0 MSTORE PUSH1 0x20 PUSH0 KECCAK256 SWAP1 PUSH1 0x2 MUL ADD PUSH0 DUP1 DUP3 ADD PUSH0 PUSH2 0x100 EXP DUP2 SLOAD SWAP1 PUSH20 0xFFFFFFFFFFFFFFFFFFFFFFFFFFFFFFFFFFFFFFFF MUL NOT AND SWAP1 SSTORE PUSH1 0x1 DUP3 ADD PUSH0 PUSH2 0x6FD SWAP2 SWAP1 PUSH2 0x760 JUMP JUMPDEST POP POP SWAP1 SSTORE PUSH2 0x713 JUMP JUMPDEST DUP1 DUP1 PUSH1 0x1 ADD SWAP2 POP POP PUSH2 0x532 JUMP JUMPDEST POP JUMPDEST POP JUMP JUMPDEST DUP2 PUSH20 0xFFFFFFFFFFFFFFFFFFFFFFFFFFFFFFFFFFFFFFFF AND PUSH2 0x8FC DUP3 SWAP1 DUP2 ISZERO MUL SWAP1 PUSH1 0x40 MLOAD PUSH0 PUSH1 0x40 MLOAD DUP1 DUP4 SUB DUP2 DUP6 DUP9 DUP9 CALL SWAP4 POP POP POP POP ISZERO DUP1 ISZERO PUSH2 0x75B JUMPI RETURNDATASIZE PUSH0 DUP1 RETURNDATACOPY RETURNDATASIZE PUSH0 REVERT JUMPDEST POP POP POP JUMP JUMPDEST POP DUP1 SLOAD PUSH2 0x76C SWAP1 PUSH2 0xBC6 JUMP JUMPDEST PUSH0 DUP3 SSTORE DUP1 PUSH1 0x1F LT PUSH2 0x77D JUMPI POP PUSH2 0x79A JUMP JUMPDEST PUSH1 0x1F ADD PUSH1 0x20 SWAP1 DIV SWAP1 PUSH0 MSTORE PUSH1 0x20 PUSH0 KECCAK256 SWAP1 DUP2 ADD SWAP1 PUSH2 0x799 SWAP2 SWAP1 PUSH2 0x79D JUMP JUMPDEST JUMPDEST POP JUMP JUMPDEST JUMPDEST DUP1 DUP3 GT ISZERO PUSH2 0x7B4 JUMPI PUSH0 DUP2 PUSH0 SWAP1 SSTORE POP PUSH1 0x1 ADD PUSH2 0x79E JUMP JUMPDEST POP SWAP1 JUMP JUMPDEST PUSH0 DUP2 SWAP1 POP SWAP2 SWAP1 POP JUMP JUMPDEST PUSH2 0x7CA DUP2 PUSH2 0x7B8 JUMP JUMPDEST DUP3 MSTORE POP POP JUMP JUMPDEST PUSH0 PUSH1 0x20 DUP3 ADD SWAP1 POP PUSH2 0x7E3 PUSH0 DUP4 ADD DUP5 PUSH2 0x7C1 JUMP JUMPDEST SWAP3 SWAP2 POP POP JUMP JUMPDEST PUSH0 DUP2 MLOAD SWAP1 POP SWAP2 SWAP1 POP JUMP JUMPDEST PUSH0 DUP3 DUP3 MSTORE PUSH1 0x20 DUP3 ADD SWAP1 POP SWAP3 SWAP2 POP POP JUMP JUMPDEST PUSH0 DUP2 SWAP1 POP PUSH1 0x20 DUP3 ADD SWAP1 POP SWAP2 SWAP1 POP JUMP JUMPDEST PUSH0 PUSH20 0xFFFFFFFFFFFFFFFFFFFFFFFFFFFFFFFFFFFFFFFF DUP3 AND SWAP1 POP SWAP2 SWAP1 POP JUMP JUMPDEST PUSH0 PUSH2 0x83B DUP3 PUSH2 0x812 JUMP JUMPDEST SWAP1 POP SWAP2 SWAP1 POP JUMP JUMPDEST PUSH2 0x84B DUP2 PUSH2 0x831 JUMP JUMPDEST DUP3 MSTORE POP POP JUMP JUMPDEST PUSH0 DUP2 MLOAD SWAP1 POP SWAP2 SWAP1 POP JUMP JUMPDEST PUSH0 DUP3 DUP3 MSTORE PUSH1 0x20 DUP3 ADD SWAP1 POP SWAP3 SWAP2 POP POP JUMP JUMPDEST DUP3 DUP2 DUP4 MCOPY PUSH0 DUP4 DUP4 ADD MSTORE POP POP POP JUMP JUMPDEST PUSH0 PUSH1 0x1F NOT PUSH1 0x1F DUP4 ADD AND SWAP1 POP SWAP2 SWAP1 POP JUMP JUMPDEST PUSH0 PUSH2 0x893 DUP3 PUSH2 0x851 JUMP JUMPDEST PUSH2 0x89D DUP2 DUP6 PUSH2 0x85B JUMP JUMPDEST SWAP4 POP PUSH2 0x8AD DUP2 DUP6 PUSH1 0x20 DUP7 ADD PUSH2 0x86B JUMP JUMPDEST PUSH2 0x8B6 DUP2 PUSH2 0x879 JUMP JUMPDEST DUP5 ADD SWAP2 POP POP SWAP3 SWAP2 POP POP JUMP JUMPDEST PUSH0 PUSH1 0x40 DUP4 ADD PUSH0 DUP4 ADD MLOAD PUSH2 0x8D6 PUSH0 DUP7 ADD DUP3 PUSH2 0x842 JUMP JUMPDEST POP PUSH1 0x20 DUP4 ADD MLOAD DUP5 DUP3 SUB PUSH1 0x20 DUP7 ADD MSTORE PUSH2 0x8EE DUP3 DUP3 PUSH2 0x889 JUMP JUMPDEST SWAP2 POP POP DUP1 SWAP2 POP POP SWAP3 SWAP2 POP POP JUMP JUMPDEST PUSH0 PUSH2 0x906 DUP4 DUP4 PUSH2 0x8C1 JUMP JUMPDEST SWAP1 POP SWAP3 SWAP2 POP POP JUMP JUMPDEST PUSH0 PUSH1 0x20 DUP3 ADD SWAP1 POP SWAP2 SWAP1 POP JUMP JUMPDEST PUSH0 PUSH2 0x924 DUP3 PUSH2 0x7E9 JUMP JUMPDEST PUSH2 0x92E DUP2 DUP6 PUSH2 0x7F3 JUMP JUMPDEST SWAP4 POP DUP4 PUSH1 0x20 DUP3 MUL DUP6 ADD PUSH2 0x940 DUP6 PUSH2 0x803 JUMP JUMPDEST DUP1 PUSH0 JUMPDEST DUP6 DUP2 LT ISZERO PUSH2 0x97B JUMPI DUP5 DUP5 SUB DUP10 MSTORE DUP2 MLOAD PUSH2 0x95C DUP6 DUP3 PUSH2 0x8FB JUMP JUMPDEST SWAP5 POP PUSH2 0x967 DUP4 PUSH2 0x90E JUMP JUMPDEST SWAP3 POP PUSH1 0x20 DUP11 ADD SWAP10 POP POP PUSH1 0x1 DUP2 ADD SWAP1 POP PUSH2 0x943 JUMP JUMPDEST POP DUP3 SWAP8 POP DUP8 SWAP6 POP POP POP POP POP POP SWAP3 SWAP2 POP POP JUMP JUMPDEST PUSH0 PUSH1 0x20 DUP3 ADD SWAP1 POP DUP2 DUP2 SUB PUSH0 DUP4 ADD MSTORE PUSH2 0x9A5 DUP2 DUP5 PUSH2 0x91A JUMP JUMPDEST SWAP1 POP SWAP3 SWAP2 POP POP JUMP JUMPDEST PUSH0 PUSH1 0x40 MLOAD SWAP1 POP SWAP1 JUMP JUMPDEST PUSH0 DUP1 REVERT JUMPDEST PUSH0 DUP1 REVERT JUMPDEST PUSH2 0x9C7 DUP2 PUSH2 0x831 JUMP JUMPDEST DUP2 EQ PUSH2 0x9D1 JUMPI PUSH0 DUP1 REVERT JUMPDEST POP JUMP JUMPDEST PUSH0 DUP2 CALLDATALOAD SWAP1 POP PUSH2 0x9E2 DUP2 PUSH2 0x9BE JUMP JUMPDEST SWAP3 SWAP2 POP POP JUMP JUMPDEST PUSH0 DUP1 REVERT JUMPDEST PUSH0 DUP1 REVERT JUMPDEST PUSH32 0x4E487B7100000000000000000000000000000000000000000000000000000000 PUSH0 MSTORE PUSH1 0x41 PUSH1 0x4 MSTORE PUSH1 0x24 PUSH0 REVERT JUMPDEST PUSH2 0xA26 DUP3 PUSH2 0x879 JUMP JUMPDEST DUP2 ADD DUP2 DUP2 LT PUSH8 0xFFFFFFFFFFFFFFFF DUP3 GT OR ISZERO PUSH2 0xA45 JUMPI PUSH2 0xA44 PUSH2 0x9F0 JUMP JUMPDEST JUMPDEST DUP1 PUSH1 0x40 MSTORE POP POP POP JUMP JUMPDEST PUSH0 PUSH2 0xA57 PUSH2 0x9AD JUMP JUMPDEST SWAP1 POP PUSH2 0xA63 DUP3 DUP3 PUSH2 0xA1D JUMP JUMPDEST SWAP2 SWAP1 POP JUMP JUMPDEST PUSH0 PUSH8 0xFFFFFFFFFFFFFFFF DUP3 GT ISZERO PUSH2 0xA82 JUMPI PUSH2 0xA81 PUSH2 0x9F0 JUMP JUMPDEST JUMPDEST PUSH2 0xA8B DUP3 PUSH2 0x879 JUMP JUMPDEST SWAP1 POP PUSH1 0x20 DUP2 ADD SWAP1 POP SWAP2 SWAP1 POP JUMP JUMPDEST DUP3 DUP2 DUP4 CALLDATACOPY PUSH0 DUP4 DUP4 ADD MSTORE POP POP POP JUMP JUMPDEST PUSH0 PUSH2 0xAB8 PUSH2 0xAB3 DUP5 PUSH2 0xA68 JUMP JUMPDEST PUSH2 0xA4E JUMP JUMPDEST SWAP1 POP DUP3 DUP2 MSTORE PUSH1 0x20 DUP2 ADD DUP5 DUP5 DUP5 ADD GT ISZERO PUSH2 0xAD4 JUMPI PUSH2 0xAD3 PUSH2 0x9EC JUMP JUMPDEST JUMPDEST PUSH2 0xADF DUP5 DUP3 DUP6 PUSH2 0xA98 JUMP JUMPDEST POP SWAP4 SWAP3 POP POP POP JUMP JUMPDEST PUSH0 DUP3 PUSH1 0x1F DUP4 ADD SLT PUSH2 0xAFB JUMPI PUSH2 0xAFA PUSH2 0x9E8 JUMP JUMPDEST JUMPDEST DUP2 CALLDATALOAD PUSH2 0xB0B DUP5 DUP3 PUSH1 0x20 DUP7 ADD PUSH2 0xAA6 JUMP JUMPDEST SWAP2 POP POP SWAP3 SWAP2 POP POP JUMP JUMPDEST PUSH0 DUP1 PUSH1 0x40 DUP4 DUP6 SUB SLT ISZERO PUSH2 0xB2A JUMPI PUSH2 0xB29 PUSH2 0x9B6 JUMP JUMPDEST JUMPDEST PUSH0 PUSH2 0xB37 DUP6 DUP3 DUP7 ADD PUSH2 0x9D4 JUMP JUMPDEST SWAP3 POP POP PUSH1 0x20 DUP4 ADD CALLDATALOAD PUSH8 0xFFFFFFFFFFFFFFFF DUP2 GT ISZERO PUSH2 0xB58 JUMPI PUSH2 0xB57 PUSH2 0x9BA JUMP JUMPDEST JUMPDEST PUSH2 0xB64 DUP6 DUP3 DUP7 ADD PUSH2 0xAE7 JUMP JUMPDEST SWAP2 POP POP SWAP3 POP SWAP3 SWAP1 POP JUMP JUMPDEST PUSH0 PUSH1 0x20 DUP3 DUP5 SUB SLT ISZERO PUSH2 0xB83 JUMPI PUSH2 0xB82 PUSH2 0x9B6 JUMP JUMPDEST JUMPDEST PUSH0 PUSH2 0xB90 DUP5 DUP3 DUP6 ADD PUSH2 0x9D4 JUMP JUMPDEST SWAP2 POP POP SWAP3 SWAP2 POP POP JUMP JUMPDEST PUSH32 0x4E487B7100000000000000000000000000000000000000000000000000000000 PUSH0 MSTORE PUSH1 0x22 PUSH1 0x4 MSTORE PUSH1 0x24 PUSH0 REVERT JUMPDEST PUSH0 PUSH1 0x2 DUP3 DIV SWAP1 POP PUSH1 0x1 DUP3 AND DUP1 PUSH2 0xBDD JUMPI PUSH1 0x7F DUP3 AND SWAP2 POP JUMPDEST PUSH1 0x20 DUP3 LT DUP2 SUB PUSH2 0xBF0 JUMPI PUSH2 0xBEF PUSH2 0xB99 JUMP JUMPDEST JUMPDEST POP SWAP2 SWAP1 POP JUMP JUMPDEST PUSH0 DUP3 DUP3 MSTORE PUSH1 0x20 DUP3 ADD SWAP1 POP SWAP3 SWAP2 POP POP JUMP JUMPDEST PUSH32 0x4F6E6C7920746865206F776E65722063616E2063616C6C20746869732066756E PUSH0 DUP3 ADD MSTORE PUSH32 0x6374696F6E000000000000000000000000000000000000000000000000000000 PUSH1 0x20 DUP3 ADD MSTORE POP JUMP JUMPDEST PUSH0 PUSH2 0xC60 PUSH1 0x25 DUP4 PUSH2 0xBF6 JUMP JUMPDEST SWAP2 POP PUSH2 0xC6B DUP3 PUSH2 0xC06 JUMP JUMPDEST PUSH1 0x40 DUP3 ADD SWAP1 POP SWAP2 SWAP1 POP JUMP JUMPDEST PUSH0 PUSH1 0x20 DUP3 ADD SWAP1 POP DUP2 DUP2 SUB PUSH0 DUP4 ADD MSTORE PUSH2 0xC8D DUP2 PUSH2 0xC54 JUMP JUMPDEST SWAP1 POP SWAP2 SWAP1 POP JUMP JUMPDEST PUSH32 0x4E487B7100000000000000000000000000000000000000000000000000000000 PUSH0 MSTORE PUSH1 0x32 PUSH1 0x4 MSTORE PUSH1 0x24 PUSH0 REVERT JUMPDEST PUSH0 DUP2 SWAP1 POP DUP2 PUSH0 MSTORE PUSH1 0x20 PUSH0 KECCAK256 SWAP1 POP SWAP2 SWAP1 POP JUMP JUMPDEST PUSH0 PUSH1 0x20 PUSH1 0x1F DUP4 ADD DIV SWAP1 POP SWAP2 SWAP1 POP JUMP JUMPDEST PUSH0 DUP3 DUP3 SHL SWAP1 POP SWAP3 SWAP2 POP POP JUMP JUMPDEST PUSH0 PUSH1 0x8 DUP4 MUL PUSH2 0xD1D PUSH32 0xFFFFFFFFFFFFFFFFFFFFFFFFFFFFFFFFFFFFFFFFFFFFFFFFFFFFFFFFFFFFFFFF DUP3 PUSH2 0xCE2 JUMP JUMPDEST PUSH2 0xD27 DUP7 DUP4 PUSH2 0xCE2 JUMP JUMPDEST SWAP6 POP DUP1 NOT DUP5 AND SWAP4 POP DUP1 DUP7 AND DUP5 OR SWAP3 POP POP POP SWAP4 SWAP3 POP POP POP JUMP JUMPDEST PUSH0 DUP2 SWAP1 POP SWAP2 SWAP1 POP JUMP JUMPDEST PUSH0 PUSH2 0xD62 PUSH2 0xD5D PUSH2 0xD58 DUP5 PUSH2 0x7B8 JUMP JUMPDEST PUSH2 0xD3F JUMP JUMPDEST PUSH2 0x7B8 JUMP JUMPDEST SWAP1 POP SWAP2 SWAP1 POP JUMP JUMPDEST PUSH0 DUP2 SWAP1 POP SWAP2 SWAP1 POP JUMP JUMPDEST PUSH2 0xD7B DUP4 PUSH2 0xD48 JUMP JUMPDEST PUSH2 0xD8F PUSH2 0xD87 DUP3 PUSH2 0xD69 JUMP JUMPDEST DUP5 DUP5 SLOAD PUSH2 0xCEE JUMP JUMPDEST DUP3 SSTORE POP POP POP POP JUMP JUMPDEST PUSH0 SWAP1 JUMP JUMPDEST PUSH2 0xDA3 PUSH2 0xD97 JUMP JUMPDEST PUSH2 0xDAE DUP2 DUP5 DUP5 PUSH2 0xD72 JUMP JUMPDEST POP POP POP JUMP JUMPDEST JUMPDEST DUP2 DUP2 LT ISZERO PUSH2 0xDD1 JUMPI PUSH2 0xDC6 PUSH0 DUP3 PUSH2 0xD9B JUMP JUMPDEST PUSH1 0x1 DUP2 ADD SWAP1 POP PUSH2 0xDB4 JUMP JUMPDEST POP POP JUMP JUMPDEST PUSH1 0x1F DUP3 GT ISZERO PUSH2 0xE16 JUMPI PUSH2 0xDE7 DUP2 PUSH2 0xCC1 JUMP JUMPDEST PUSH2 0xDF0 DUP5 PUSH2 0xCD3 JUMP JUMPDEST DUP2 ADD PUSH1 0x20 DUP6 LT ISZERO PUSH2 0xDFF JUMPI DUP2 SWAP1 POP JUMPDEST PUSH2 0xE13 PUSH2 0xE0B DUP6 PUSH2 0xCD3 JUMP JUMPDEST DUP4 ADD DUP3 PUSH2 0xDB3 JUMP JUMPDEST POP POP JUMPDEST POP POP POP JUMP JUMPDEST PUSH0 DUP3 DUP3 SHR SWAP1 POP SWAP3 SWAP2 POP POP JUMP JUMPDEST PUSH0 PUSH2 0xE36 PUSH0 NOT DUP5 PUSH1 0x8 MUL PUSH2 0xE1B JUMP JUMPDEST NOT DUP1 DUP4 AND SWAP2 POP POP SWAP3 SWAP2 POP POP JUMP JUMPDEST PUSH0 PUSH2 0xE4E DUP4 DUP4 PUSH2 0xE27 JUMP JUMPDEST SWAP2 POP DUP3 PUSH1 0x2 MUL DUP3 OR SWAP1 POP SWAP3 SWAP2 POP POP JUMP JUMPDEST PUSH2 0xE67 DUP3 PUSH2 0x851 JUMP JUMPDEST PUSH8 0xFFFFFFFFFFFFFFFF DUP2 GT ISZERO PUSH2 0xE80 JUMPI PUSH2 0xE7F PUSH2 0x9F0 JUMP JUMPDEST JUMPDEST PUSH2 0xE8A DUP3 SLOAD PUSH2 0xBC6 JUMP JUMPDEST PUSH2 0xE95 DUP3 DUP3 DUP6 PUSH2 0xDD5 JUMP JUMPDEST PUSH0 PUSH1 0x20 SWAP1 POP PUSH1 0x1F DUP4 GT PUSH1 0x1 DUP2 EQ PUSH2 0xEC6 JUMPI PUSH0 DUP5 ISZERO PUSH2 0xEB4 JUMPI DUP3 DUP8 ADD MLOAD SWAP1 POP JUMPDEST PUSH2 0xEBE DUP6 DUP3 PUSH2 0xE43 JUMP JUMPDEST DUP7 SSTORE POP PUSH2 0xF25 JUMP JUMPDEST PUSH1 0x1F NOT DUP5 AND PUSH2 0xED4 DUP7 PUSH2 0xCC1 JUMP JUMPDEST PUSH0 JUMPDEST DUP3 DUP2 LT ISZERO PUSH2 0xEFB JUMPI DUP5 DUP10 ADD MLOAD DUP3 SSTORE PUSH1 0x1 DUP3 ADD SWAP2 POP PUSH1 0x20 DUP6 ADD SWAP5 POP PUSH1 0x20 DUP2 ADD SWAP1 POP PUSH2 0xED6 JUMP JUMPDEST DUP7 DUP4 LT ISZERO PUSH2 0xF18 JUMPI DUP5 DUP10 ADD MLOAD PUSH2 0xF14 PUSH1 0x1F DUP10 AND DUP3 PUSH2 0xE27 JUMP JUMPDEST DUP4 SSTORE POP JUMPDEST PUSH1 0x1 PUSH1 0x2 DUP9 MUL ADD DUP9 SSTORE POP POP POP JUMPDEST POP POP POP POP POP POP JUMP JUMPDEST PUSH32 0x496E73756666696369656E742062616C616E636520696E2074686520636F6E74 PUSH0 DUP3 ADD MSTORE PUSH32 0x7261637400000000000000000000000000000000000000000000000000000000 PUSH1 0x20 DUP3 ADD MSTORE POP JUMP JUMPDEST PUSH0 PUSH2 0xF87 PUSH1 0x24 DUP4 PUSH2 0xBF6 JUMP JUMPDEST SWAP2 POP PUSH2 0xF92 DUP3 PUSH2 0xF2D JUMP JUMPDEST PUSH1 0x40 DUP3 ADD SWAP1 POP SWAP2 SWAP1 POP JUMP JUMPDEST PUSH0 PUSH1 0x20 DUP3 ADD SWAP1 POP DUP2 DUP2 SUB PUSH0 DUP4 ADD MSTORE PUSH2 0xFB4 DUP2 PUSH2 0xF7B JUMP JUMPDEST SWAP1 POP SWAP2 SWAP1 POP JUMP JUMPDEST PUSH32 0x4E487B7100000000000000000000000000000000000000000000000000000000 PUSH0 MSTORE PUSH1 0x12 PUSH1 0x4 MSTORE PUSH1 0x24 PUSH0 REVERT JUMPDEST PUSH32 0x4E487B7100000000000000000000000000000000000000000000000000000000 PUSH0 MSTORE PUSH1 0x11 PUSH1 0x4 MSTORE PUSH1 0x24 PUSH0 REVERT JUMPDEST PUSH0 PUSH2 0x101F DUP3 PUSH2 0x7B8 JUMP JUMPDEST SWAP2 POP PUSH2 0x102A DUP4 PUSH2 0x7B8 JUMP JUMPDEST SWAP3 POP DUP3 PUSH2 0x103A JUMPI PUSH2 0x1039 PUSH2 0xFBB JUMP JUMPDEST JUMPDEST DUP3 DUP3 DIV SWAP1 POP SWAP3 SWAP2 POP POP JUMP JUMPDEST PUSH0 PUSH2 0x104F DUP3 PUSH2 0x7B8 JUMP JUMPDEST SWAP2 POP PUSH2 0x105A DUP4 PUSH2 0x7B8 JUMP JUMPDEST SWAP3 POP DUP3 DUP3 SUB SWAP1 POP DUP2 DUP2 GT ISZERO PUSH2 0x1072 JUMPI PUSH2 0x1071 PUSH2 0xFE8 JUMP JUMPDEST JUMPDEST SWAP3 SWAP2 POP POP JUMP JUMPDEST PUSH0 PUSH2 0x1082 DUP3 PUSH2 0x7B8 JUMP JUMPDEST SWAP2 POP PUSH2 0x108D DUP4 PUSH2 0x7B8 JUMP JUMPDEST SWAP3 POP DUP3 DUP3 ADD SWAP1 POP DUP1 DUP3 GT ISZERO PUSH2 0x10A5 JUMPI PUSH2 0x10A4 PUSH2 0xFE8 JUMP JUMPDEST JUMPDEST SWAP3 SWAP2 POP POP JUMP JUMPDEST PUSH0 DUP2 SLOAD SWAP1 POP PUSH2 0x10B9 DUP2 PUSH2 0xBC6 JUMP JUMPDEST SWAP1 POP SWAP2 SWAP1 POP JUMP JUMPDEST DUP2 DUP2 SUB PUSH2 0x10CE JUMPI POP POP PUSH2 0x11A3 JUMP JUMPDEST PUSH2 0x10D7 DUP3 PUSH2 0x10AB JUMP JUMPDEST PUSH8 0xFFFFFFFFFFFFFFFF DUP2 GT ISZERO PUSH2 0x10F0 JUMPI PUSH2 0x10EF PUSH2 0x9F0 JUMP JUMPDEST JUMPDEST PUSH2 0x10FA DUP3 SLOAD PUSH2 0xBC6 JUMP JUMPDEST PUSH2 0x1105 DUP3 DUP3 DUP6 PUSH2 0xDD5 JUMP JUMPDEST PUSH0 PUSH1 0x1F DUP4 GT PUSH1 0x1 DUP2 EQ PUSH2 0x1132 JUMPI PUSH0 DUP5 ISZERO PUSH2 0x1120 JUMPI DUP3 DUP8 ADD SLOAD SWAP1 POP JUMPDEST PUSH2 0x112A DUP6 DUP3 PUSH2 0xE43 JUMP JUMPDEST DUP7 SSTORE POP PUSH2 0x119C JUMP JUMPDEST PUSH1 0x1F NOT DUP5 AND PUSH2 0x1140 DUP8 PUSH2 0xCC1 JUMP JUMPDEST SWAP7 POP PUSH2 0x114B DUP7 PUSH2 0xCC1 JUMP JUMPDEST PUSH0 JUMPDEST DUP3 DUP2 LT ISZERO PUSH2 0x1172 JUMPI DUP5 DUP10 ADD SLOAD DUP3 SSTORE PUSH1 0x1 DUP3 ADD SWAP2 POP PUSH1 0x1 DUP6 ADD SWAP5 POP PUSH1 0x20 DUP2 ADD SWAP1 POP PUSH2 0x114D JUMP JUMPDEST DUP7 DUP4 LT ISZERO PUSH2 0x118F JUMPI DUP5 DUP10 ADD SLOAD PUSH2 0x118B PUSH1 0x1F DUP10 AND DUP3 PUSH2 0xE27 JUMP JUMPDEST DUP4 SSTORE POP JUMPDEST PUSH1 0x1 PUSH1 0x2 DUP9 MUL ADD DUP9 SSTORE POP POP POP JUMPDEST POP POP POP POP POP POP JUMPDEST JUMP JUMPDEST PUSH32 0x4E487B7100000000000000000000000000000000000000000000000000000000 PUSH0 MSTORE PUSH1 0x31 PUSH1 0x4 MSTORE PUSH1 0x24 PUSH0 REVERT INVALID LOG2 PUSH5 0x6970667358 0x22 SLT KECCAK256 PUSH22 0x548DE2BAE9EC2A5B7B032DA95FD61924E5F43E7DAEB7 LOG3 0x2E 0x4D SELFBALANCE INVALID DUP3 DUP10 POP PUSH23 0x64736F6C634300081A0033000000000000000000000000 "
				},
				"gasEstimates": {
					"creation": {
						"codeDepositCost": "923200",
						"executionCost": "25225",
						"totalCost": "948425"
					},
					"external": {
						"addInheritor(address,string)": "infinite",
						"addtips()": "163",
						"distrubiteInheritor()": "infinite",
						"removeInheritor(address)": "infinite",
						"viewInheritor()": "infinite",
						"viewtips()": "312"
					},
					"internal": {
						"transfer(address payable,uint256)": "infinite"
					}
				},
				"methodIdentifiers": {
					"addInheritor(address,string)": "69c68311",
					"addtips()": "6e7301fd",
					"distrubiteInheritor()": "9e36d493",
					"removeInheritor(address)": "cf701f31",
					"viewInheritor()": "5a0d854f",
					"viewtips()": "2a08deda"
				}
			},
			"storageLayout": {
				"storage": [
					{
						"astId": 3,
						"contract": "Project/Project.sol:inheritance",
						"label": "owner",
						"offset": 0,
						"slot": "0",
						"type": "t_address"
					},
					{
						"astId": 7,
						"contract": "Project/Project.sol:inheritance",
						"label": "inheritor",
						"offset": 0,
						"slot": "1",
						"type": "t_array(t_struct(Inheritor)37_storage)dyn_storage"
					}
				],
				"types": {
					"t_address": {
						"encoding": "inplace",
						"label": "address",
						"numberOfBytes": "20"
					},
					"t_address_payable": {
						"encoding": "inplace",
						"label": "address payable",
						"numberOfBytes": "20"
					},
					"t_array(t_struct(Inheritor)37_storage)dyn_storage": {
						"base": "t_struct(Inheritor)37_storage",
						"encoding": "dynamic_array",
						"label": "struct inheritance.Inheritor[]",
						"numberOfBytes": "32"
					},
					"t_string_storage": {
						"encoding": "bytes",
						"label": "string",
						"numberOfBytes": "32"
					},
					"t_struct(Inheritor)37_storage": {
						"encoding": "inplace",
						"label": "struct inheritance.Inheritor",
						"members": [
							{
								"astId": 34,
								"contract": "Project/Project.sol:inheritance",
								"label": "inheritorAddress",
								"offset": 0,
								"slot": "0",
								"type": "t_address_payable"
							},
							{
								"astId": 36,
								"contract": "Project/Project.sol:inheritance",
								"label": "name",
								"offset": 0,
								"slot": "1",
								"type": "t_string_storage"
							}
						],
						"numberOfBytes": "64"
					}
				}
			},
			"userdoc": {
				"kind": "user",
				"methods": {},
				"version": 1
			}
		}
	}
}